{
  "contractName": "Collab",
  "abi": [
    {
      "anonymous": false,
      "inputs": [
        {
          "indexed": true,
          "internalType": "uint256",
          "name": "agreementId",
          "type": "uint256"
        },
        {
          "indexed": true,
          "internalType": "address",
          "name": "party2",
          "type": "address"
        }
      ],
      "name": "AgreementApproved",
      "type": "event"
    },
    {
      "anonymous": false,
      "inputs": [
        {
          "indexed": true,
          "internalType": "uint256",
          "name": "agreementId",
          "type": "uint256"
        },
        {
          "indexed": true,
          "internalType": "address",
          "name": "creator",
          "type": "address"
        },
        {
          "indexed": false,
          "internalType": "string",
          "name": "terms",
          "type": "string"
        },
        {
          "indexed": false,
          "internalType": "string",
          "name": "skillsRequired",
          "type": "string"
        }
      ],
      "name": "AgreementProposed",
      "type": "event"
    },
    {
      "anonymous": false,
      "inputs": [
        {
          "indexed": true,
          "internalType": "uint256",
          "name": "agreementId",
          "type": "uint256"
        },
        {
          "indexed": true,
          "internalType": "address",
          "name": "potentialPartner",
          "type": "address"
        }
      ],
      "name": "CollabRequestSent",
      "type": "event"
    },
    {
      "inputs": [
        {
          "internalType": "uint256",
          "name": "",
          "type": "uint256"
        }
      ],
      "name": "collaborations",
      "outputs": [
        {
          "internalType": "address",
          "name": "party1",
          "type": "address"
        },
        {
          "internalType": "address",
          "name": "party2",
          "type": "address"
        },
        {
          "internalType": "string",
          "name": "terms",
          "type": "string"
        },
        {
          "internalType": "string",
          "name": "skillsRequired",
          "type": "string"
        }
      ],
      "stateMutability": "view",
      "type": "function",
      "constant": true
    },
    {
      "inputs": [
        {
          "internalType": "uint256",
          "name": "",
          "type": "uint256"
        }
      ],
      "name": "proposedAgreements",
      "outputs": [
        {
          "internalType": "address",
          "name": "creator",
          "type": "address"
        },
        {
          "internalType": "uint256",
          "name": "deadline",
          "type": "uint256"
        },
        {
          "internalType": "string",
          "name": "terms",
          "type": "string"
        },
        {
          "internalType": "string",
          "name": "skillsRequired",
          "type": "string"
        },
        {
          "internalType": "address",
          "name": "potentialCollaborator",
          "type": "address"
        },
        {
          "internalType": "string",
          "name": "potentialCollabSkills",
          "type": "string"
        }
      ],
      "stateMutability": "view",
      "type": "function",
      "constant": true
    },
    {
      "inputs": [
        {
          "internalType": "string",
          "name": "_terms",
          "type": "string"
        },
        {
          "internalType": "string",
          "name": "_skillsRequired",
          "type": "string"
        }
      ],
      "name": "proposeAgreement",
      "outputs": [],
      "stateMutability": "nonpayable",
      "type": "function"
    },
    {
      "inputs": [
        {
          "internalType": "uint256",
          "name": "_agreementId",
          "type": "uint256"
        },
        {
          "internalType": "address",
          "name": "user",
          "type": "address"
        },
        {
          "internalType": "string",
          "name": "_skills",
          "type": "string"
        }
      ],
      "name": "requestCollaboration",
      "outputs": [],
      "stateMutability": "nonpayable",
      "type": "function"
    },
    {
      "inputs": [
        {
          "internalType": "uint256",
          "name": "_agreementId",
          "type": "uint256"
        }
      ],
      "name": "approveCollaborator",
      "outputs": [],
      "stateMutability": "nonpayable",
      "type": "function"
    },
    {
      "inputs": [],
      "name": "getAllProposedAgreements",
      "outputs": [
        {
          "components": [
            {
              "internalType": "address",
              "name": "creator",
              "type": "address"
            },
            {
              "internalType": "uint256",
              "name": "deadline",
              "type": "uint256"
            },
            {
              "internalType": "string",
              "name": "terms",
              "type": "string"
            },
            {
              "internalType": "string",
              "name": "skillsRequired",
              "type": "string"
            },
            {
              "internalType": "address",
              "name": "potentialCollaborator",
              "type": "address"
            },
            {
              "internalType": "string",
              "name": "potentialCollabSkills",
              "type": "string"
            }
          ],
          "internalType": "struct Collab.ProposedAgreement[]",
          "name": "",
          "type": "tuple[]"
        }
      ],
      "stateMutability": "view",
      "type": "function",
      "constant": true
    },
    {
      "inputs": [],
      "name": "getAllCollaborations",
      "outputs": [
        {
          "components": [
            {
              "internalType": "address",
              "name": "party1",
              "type": "address"
            },
            {
              "internalType": "address",
              "name": "party2",
              "type": "address"
            },
            {
              "internalType": "string",
              "name": "terms",
              "type": "string"
            },
            {
              "internalType": "string",
              "name": "skillsRequired",
              "type": "string"
            }
          ],
          "internalType": "struct Collab.Collaboration[]",
          "name": "",
          "type": "tuple[]"
        }
      ],
      "stateMutability": "view",
      "type": "function",
      "constant": true
    },
    {
      "inputs": [],
      "name": "getMyProposedAgreements",
      "outputs": [
        {
          "components": [
            {
              "internalType": "address",
              "name": "creator",
              "type": "address"
            },
            {
              "internalType": "uint256",
              "name": "deadline",
              "type": "uint256"
            },
            {
              "internalType": "string",
              "name": "terms",
              "type": "string"
            },
            {
              "internalType": "string",
              "name": "skillsRequired",
              "type": "string"
            },
            {
              "internalType": "address",
              "name": "potentialCollaborator",
              "type": "address"
            },
            {
              "internalType": "string",
              "name": "potentialCollabSkills",
              "type": "string"
            }
          ],
          "internalType": "struct Collab.ProposedAgreement[]",
          "name": "",
          "type": "tuple[]"
        }
      ],
      "stateMutability": "view",
      "type": "function",
      "constant": true
    },
    {
      "inputs": [],
      "name": "getMyCollaborations",
      "outputs": [
        {
          "components": [
            {
              "internalType": "address",
              "name": "party1",
              "type": "address"
            },
            {
              "internalType": "address",
              "name": "party2",
              "type": "address"
            },
            {
              "internalType": "string",
              "name": "terms",
              "type": "string"
            },
            {
              "internalType": "string",
              "name": "skillsRequired",
              "type": "string"
            }
          ],
          "internalType": "struct Collab.Collaboration[]",
          "name": "",
          "type": "tuple[]"
        }
      ],
      "stateMutability": "view",
      "type": "function",
      "constant": true
    },
    {
      "inputs": [],
      "name": "getPendingAgreements",
      "outputs": [
        {
          "components": [
            {
              "internalType": "address",
              "name": "creator",
              "type": "address"
            },
            {
              "internalType": "uint256",
              "name": "deadline",
              "type": "uint256"
            },
            {
              "internalType": "string",
              "name": "terms",
              "type": "string"
            },
            {
              "internalType": "string",
              "name": "skillsRequired",
              "type": "string"
            },
            {
              "internalType": "address",
              "name": "potentialCollaborator",
              "type": "address"
            },
            {
              "internalType": "string",
              "name": "potentialCollabSkills",
              "type": "string"
            }
          ],
          "internalType": "struct Collab.ProposedAgreement[]",
          "name": "",
          "type": "tuple[]"
        }
      ],
      "stateMutability": "view",
      "type": "function",
      "constant": true
    }
  ],
  "bytecode": "0x608060405234801561000f575f80fd5b50612dca8061001d5f395ff3fe608060405234801561000f575f80fd5b506004361061009c575f3560e01c8063cf0567ec11610064578063cf0567ec14610147578063ed3f09dd14610165578063f32a927a14610183578063fb6ccb18146101a1578063fc7fa806146101d65761009c565b80632daab499146100a05780634b254f68146100be5780638088b351146100f1578063a04b0ea01461010d578063c5e01cf11461012b575b5f80fd5b6100a86101f2565b6040516100b591906122ba565b60405180910390f35b6100d860048036038101906100d39190612315565b6106d0565b6040516100e89493929190612397565b60405180910390f35b61010b60048036038101906101069190612514565b610855565b005b6101156109cd565b60405161012291906122ba565b60405180910390f35b61014560048036038101906101409190612315565b610c8b565b005b61014f6110fe565b60405161015c91906126ac565b60405180910390f35b61016d611323565b60405161017a91906126ac565b60405180910390f35b61018b61176a565b60405161019891906122ba565b60405180910390f35b6101bb60048036038101906101b69190612315565b611bce565b6040516101cd969594939291906126db565b60405180910390f35b6101f060048036038101906101eb9190612779565b611de4565b005b60605f808054905067ffffffffffffffff811115610213576102126123f0565b5b60405190808252806020026020018201604052801561024c57816020015b610239611f81565b8152602001906001900390816102315790505b5090505f805b5f80549050811015610618573373ffffffffffffffffffffffffffffffffffffffff165f8281548110610288576102876127e5565b5b905f5260205f2090600602015f015f9054906101000a900473ffffffffffffffffffffffffffffffffffffffff1673ffffffffffffffffffffffffffffffffffffffff1614801561034657505f73ffffffffffffffffffffffffffffffffffffffff165f82815481106102fe576102fd6127e5565b5b905f5260205f2090600602016004015f9054906101000a900473ffffffffffffffffffffffffffffffffffffffff1673ffffffffffffffffffffffffffffffffffffffff1614155b15610605575f818154811061035e5761035d6127e5565b5b905f5260205f2090600602016040518060c00160405290815f82015f9054906101000a900473ffffffffffffffffffffffffffffffffffffffff1673ffffffffffffffffffffffffffffffffffffffff1673ffffffffffffffffffffffffffffffffffffffff168152602001600182015481526020016002820180546103e39061283f565b80601f016020809104026020016040519081016040528092919081815260200182805461040f9061283f565b801561045a5780601f106104315761010080835404028352916020019161045a565b820191905f5260205f20905b81548152906001019060200180831161043d57829003601f168201915b505050505081526020016003820180546104739061283f565b80601f016020809104026020016040519081016040528092919081815260200182805461049f9061283f565b80156104ea5780601f106104c1576101008083540402835291602001916104ea565b820191905f5260205f20905b8154815290600101906020018083116104cd57829003601f168201915b50505050508152602001600482015f9054906101000a900473ffffffffffffffffffffffffffffffffffffffff1673ffffffffffffffffffffffffffffffffffffffff1673ffffffffffffffffffffffffffffffffffffffff1681526020016005820180546105589061283f565b80601f01602080910402602001604051908101604052809291908181526020018280546105849061283f565b80156105cf5780601f106105a6576101008083540402835291602001916105cf565b820191905f5260205f20905b8154815290600101906020018083116105b257829003601f168201915b5050505050815250508383815181106105eb576105ea6127e5565b5b602002602001018190525081806106019061289c565b9250505b80806106109061289c565b915050610252565b505f8167ffffffffffffffff811115610634576106336123f0565b5b60405190808252806020026020018201604052801561066d57816020015b61065a611f81565b8152602001906001900390816106525790505b5090505f5b828110156106c65783818151811061068d5761068c6127e5565b5b60200260200101518282815181106106a8576106a76127e5565b5b602002602001018190525080806106be9061289c565b915050610672565b5080935050505090565b600181815481106106df575f80fd5b905f5260205f2090600402015f91509050805f015f9054906101000a900473ffffffffffffffffffffffffffffffffffffffff1690806001015f9054906101000a900473ffffffffffffffffffffffffffffffffffffffff16908060020180546107489061283f565b80601f01602080910402602001604051908101604052809291908181526020018280546107749061283f565b80156107bf5780601f10610796576101008083540402835291602001916107bf565b820191905f5260205f20905b8154815290600101906020018083116107a257829003601f168201915b5050505050908060030180546107d49061283f565b80601f01602080910402602001604051908101604052809291908181526020018280546108009061283f565b801561084b5780601f106108225761010080835404028352916020019161084b565b820191905f5260205f20905b81548152906001019060200180831161082e57829003601f168201915b5050505050905084565b5f6040518060c001604052803373ffffffffffffffffffffffffffffffffffffffff16815260200162278d004261088c91906128e3565b81526020018481526020018381526020015f73ffffffffffffffffffffffffffffffffffffffff16815260200160405180602001604052805f815250815250908060018154018082558091505060019003905f5260205f2090600602015f909190919091505f820151815f015f6101000a81548173ffffffffffffffffffffffffffffffffffffffff021916908373ffffffffffffffffffffffffffffffffffffffff1602179055506020820151816001015560408201518160020190816109549190612ab3565b50606082015181600301908161096a9190612ab3565b506080820151816004015f6101000a81548173ffffffffffffffffffffffffffffffffffffffff021916908373ffffffffffffffffffffffffffffffffffffffff16021790555060a08201518160050190816109c69190612ab3565b5050505050565b60605f805480602002602001604051908101604052809291908181526020015f905b82821015610c82578382905f5260205f2090600602016040518060c00160405290815f82015f9054906101000a900473ffffffffffffffffffffffffffffffffffffffff1673ffffffffffffffffffffffffffffffffffffffff1673ffffffffffffffffffffffffffffffffffffffff16815260200160018201548152602001600282018054610a7e9061283f565b80601f0160208091040260200160405190810160405280929190818152602001828054610aaa9061283f565b8015610af55780601f10610acc57610100808354040283529160200191610af5565b820191905f5260205f20905b815481529060010190602001808311610ad857829003601f168201915b50505050508152602001600382018054610b0e9061283f565b80601f0160208091040260200160405190810160405280929190818152602001828054610b3a9061283f565b8015610b855780601f10610b5c57610100808354040283529160200191610b85565b820191905f5260205f20905b815481529060010190602001808311610b6857829003601f168201915b50505050508152602001600482015f9054906101000a900473ffffffffffffffffffffffffffffffffffffffff1673ffffffffffffffffffffffffffffffffffffffff1673ffffffffffffffffffffffffffffffffffffffff168152602001600582018054610bf39061283f565b80601f0160208091040260200160405190810160405280929190818152602001828054610c1f9061283f565b8015610c6a5780601f10610c4157610100808354040283529160200191610c6a565b820191905f5260205f20905b815481529060010190602001808311610c4d57829003601f168201915b505050505081525050815260200190600101906109ef565b50505050905090565b5f808281548110610c9f57610c9e6127e5565b5b905f5260205f20906006020190503373ffffffffffffffffffffffffffffffffffffffff16815f015f9054906101000a900473ffffffffffffffffffffffffffffffffffffffff1673ffffffffffffffffffffffffffffffffffffffff1614610d3d576040517f08c379a0000000000000000000000000000000000000000000000000000000008152600401610d3490612bf2565b60405180910390fd5b5f73ffffffffffffffffffffffffffffffffffffffff16816004015f9054906101000a900473ffffffffffffffffffffffffffffffffffffffff1673ffffffffffffffffffffffffffffffffffffffff1603610dce576040517f08c379a0000000000000000000000000000000000000000000000000000000008152600401610dc590612c5a565b60405180910390fd5b5f6040518060800160405280835f015f9054906101000a900473ffffffffffffffffffffffffffffffffffffffff1673ffffffffffffffffffffffffffffffffffffffff168152602001836004015f9054906101000a900473ffffffffffffffffffffffffffffffffffffffff1673ffffffffffffffffffffffffffffffffffffffff168152602001836002018054610e669061283f565b80601f0160208091040260200160405190810160405280929190818152602001828054610e929061283f565b8015610edd5780601f10610eb457610100808354040283529160200191610edd565b820191905f5260205f20905b815481529060010190602001808311610ec057829003601f168201915b50505050508152602001836003018054610ef69061283f565b80601f0160208091040260200160405190810160405280929190818152602001828054610f229061283f565b8015610f6d5780601f10610f4457610100808354040283529160200191610f6d565b820191905f5260205f20905b815481529060010190602001808311610f5057829003601f168201915b50505050508152509050600181908060018154018082558091505060019003905f5260205f2090600402015f909190919091505f820151815f015f6101000a81548173ffffffffffffffffffffffffffffffffffffffff021916908373ffffffffffffffffffffffffffffffffffffffff1602179055506020820151816001015f6101000a81548173ffffffffffffffffffffffffffffffffffffffff021916908373ffffffffffffffffffffffffffffffffffffffff160217905550604082015181600201908161103f9190612ab3565b5060608201518160030190816110559190612ab3565b5050505f838154811061106b5761106a6127e5565b5b905f5260205f2090600602015f8082015f6101000a81549073ffffffffffffffffffffffffffffffffffffffff0219169055600182015f9055600282015f6110b39190611fe0565b600382015f6110c29190611fe0565b600482015f6101000a81549073ffffffffffffffffffffffffffffffffffffffff0219169055600582015f6110f79190611fe0565b5050505050565b60606001805480602002602001604051908101604052809291908181526020015f905b8282101561131a578382905f5260205f2090600402016040518060800160405290815f82015f9054906101000a900473ffffffffffffffffffffffffffffffffffffffff1673ffffffffffffffffffffffffffffffffffffffff1673ffffffffffffffffffffffffffffffffffffffff168152602001600182015f9054906101000a900473ffffffffffffffffffffffffffffffffffffffff1673ffffffffffffffffffffffffffffffffffffffff1673ffffffffffffffffffffffffffffffffffffffff1681526020016002820180546111fb9061283f565b80601f01602080910402602001604051908101604052809291908181526020018280546112279061283f565b80156112725780601f1061124957610100808354040283529160200191611272565b820191905f5260205f20905b81548152906001019060200180831161125557829003601f168201915b5050505050815260200160038201805461128b9061283f565b80601f01602080910402602001604051908101604052809291908181526020018280546112b79061283f565b80156113025780601f106112d957610100808354040283529160200191611302565b820191905f5260205f20905b8154815290600101906020018083116112e557829003601f168201915b50505050508152505081526020019060010190611121565b50505050905090565b60605f60018054905067ffffffffffffffff811115611345576113446123f0565b5b60405190808252806020026020018201604052801561137e57816020015b61136b61201d565b8152602001906001900390816113635790505b5090505f805b6001805490508110156116b2573373ffffffffffffffffffffffffffffffffffffffff16600182815481106113bc576113bb6127e5565b5b905f5260205f2090600402015f015f9054906101000a900473ffffffffffffffffffffffffffffffffffffffff1673ffffffffffffffffffffffffffffffffffffffff16148061147957503373ffffffffffffffffffffffffffffffffffffffff1660018281548110611432576114316127e5565b5b905f5260205f2090600402016001015f9054906101000a900473ffffffffffffffffffffffffffffffffffffffff1673ffffffffffffffffffffffffffffffffffffffff16145b1561169f5760018181548110611492576114916127e5565b5b905f5260205f2090600402016040518060800160405290815f82015f9054906101000a900473ffffffffffffffffffffffffffffffffffffffff1673ffffffffffffffffffffffffffffffffffffffff1673ffffffffffffffffffffffffffffffffffffffff168152602001600182015f9054906101000a900473ffffffffffffffffffffffffffffffffffffffff1673ffffffffffffffffffffffffffffffffffffffff1673ffffffffffffffffffffffffffffffffffffffff1681526020016002820180546115629061283f565b80601f016020809104026020016040519081016040528092919081815260200182805461158e9061283f565b80156115d95780601f106115b0576101008083540402835291602001916115d9565b820191905f5260205f20905b8154815290600101906020018083116115bc57829003601f168201915b505050505081526020016003820180546115f29061283f565b80601f016020809104026020016040519081016040528092919081815260200182805461161e9061283f565b80156116695780601f1061164057610100808354040283529160200191611669565b820191905f5260205f20905b81548152906001019060200180831161164c57829003601f168201915b505050505081525050838381518110611685576116846127e5565b5b6020026020010181905250818061169b9061289c565b9250505b80806116aa9061289c565b915050611384565b505f8167ffffffffffffffff8111156116ce576116cd6123f0565b5b60405190808252806020026020018201604052801561170757816020015b6116f461201d565b8152602001906001900390816116ec5790505b5090505f5b8281101561176057838181518110611727576117266127e5565b5b6020026020010151828281518110611742576117416127e5565b5b602002602001018190525080806117589061289c565b91505061170c565b5080935050505090565b60605f808054905067ffffffffffffffff81111561178b5761178a6123f0565b5b6040519080825280602002602001820160405280156117c457816020015b6117b1611f81565b8152602001906001900390816117a95790505b5090505f805b5f80549050811015611b16573373ffffffffffffffffffffffffffffffffffffffff165f8281548110611800576117ff6127e5565b5b905f5260205f2090600602015f015f9054906101000a900473ffffffffffffffffffffffffffffffffffffffff1673ffffffffffffffffffffffffffffffffffffffff1603611b03575f818154811061185c5761185b6127e5565b5b905f5260205f2090600602016040518060c00160405290815f82015f9054906101000a900473ffffffffffffffffffffffffffffffffffffffff1673ffffffffffffffffffffffffffffffffffffffff1673ffffffffffffffffffffffffffffffffffffffff168152602001600182015481526020016002820180546118e19061283f565b80601f016020809104026020016040519081016040528092919081815260200182805461190d9061283f565b80156119585780601f1061192f57610100808354040283529160200191611958565b820191905f5260205f20905b81548152906001019060200180831161193b57829003601f168201915b505050505081526020016003820180546119719061283f565b80601f016020809104026020016040519081016040528092919081815260200182805461199d9061283f565b80156119e85780601f106119bf576101008083540402835291602001916119e8565b820191905f5260205f20905b8154815290600101906020018083116119cb57829003601f168201915b50505050508152602001600482015f9054906101000a900473ffffffffffffffffffffffffffffffffffffffff1673ffffffffffffffffffffffffffffffffffffffff1673ffffffffffffffffffffffffffffffffffffffff168152602001600582018054611a569061283f565b80601f0160208091040260200160405190810160405280929190818152602001828054611a829061283f565b8015611acd5780601f10611aa457610100808354040283529160200191611acd565b820191905f5260205f20905b815481529060010190602001808311611ab057829003601f168201915b505050505081525050838381518110611ae957611ae86127e5565b5b60200260200101819052508180611aff9061289c565b9250505b8080611b0e9061289c565b9150506117ca565b505f8167ffffffffffffffff811115611b3257611b316123f0565b5b604051908082528060200260200182016040528015611b6b57816020015b611b58611f81565b815260200190600190039081611b505790505b5090505f5b82811015611bc457838181518110611b8b57611b8a6127e5565b5b6020026020010151828281518110611ba657611ba56127e5565b5b60200260200101819052508080611bbc9061289c565b915050611b70565b5080935050505090565b5f8181548110611bdc575f80fd5b905f5260205f2090600602015f91509050805f015f9054906101000a900473ffffffffffffffffffffffffffffffffffffffff1690806001015490806002018054611c269061283f565b80601f0160208091040260200160405190810160405280929190818152602001828054611c529061283f565b8015611c9d5780601f10611c7457610100808354040283529160200191611c9d565b820191905f5260205f20905b815481529060010190602001808311611c8057829003601f168201915b505050505090806003018054611cb29061283f565b80601f0160208091040260200160405190810160405280929190818152602001828054611cde9061283f565b8015611d295780601f10611d0057610100808354040283529160200191611d29565b820191905f5260205f20905b815481529060010190602001808311611d0c57829003601f168201915b505050505090806004015f9054906101000a900473ffffffffffffffffffffffffffffffffffffffff1690806005018054611d639061283f565b80601f0160208091040260200160405190810160405280929190818152602001828054611d8f9061283f565b8015611dda5780601f10611db157610100808354040283529160200191611dda565b820191905f5260205f20905b815481529060010190602001808311611dbd57829003601f168201915b5050505050905086565b5f808481548110611df857611df76127e5565b5b905f5260205f20906006020190508273ffffffffffffffffffffffffffffffffffffffff16815f015f9054906101000a900473ffffffffffffffffffffffffffffffffffffffff1673ffffffffffffffffffffffffffffffffffffffff1603611e96576040517f08c379a0000000000000000000000000000000000000000000000000000000008152600401611e8d90612ce8565b60405180910390fd5b5f73ffffffffffffffffffffffffffffffffffffffff16816004015f9054906101000a900473ffffffffffffffffffffffffffffffffffffffff1673ffffffffffffffffffffffffffffffffffffffff1614611f27576040517f08c379a0000000000000000000000000000000000000000000000000000000008152600401611f1e90612d76565b60405180910390fd5b82816004015f6101000a81548173ffffffffffffffffffffffffffffffffffffffff021916908373ffffffffffffffffffffffffffffffffffffffff16021790555081816005019081611f7a9190612ab3565b5050505050565b6040518060c001604052805f73ffffffffffffffffffffffffffffffffffffffff1681526020015f815260200160608152602001606081526020015f73ffffffffffffffffffffffffffffffffffffffff168152602001606081525090565b508054611fec9061283f565b5f825580601f10611ffd575061201a565b601f0160209004905f5260205f2090810190612019919061206f565b5b50565b60405180608001604052805f73ffffffffffffffffffffffffffffffffffffffff1681526020015f73ffffffffffffffffffffffffffffffffffffffff16815260200160608152602001606081525090565b5b80821115612086575f815f905550600101612070565b5090565b5f81519050919050565b5f82825260208201905092915050565b5f819050602082019050919050565b5f73ffffffffffffffffffffffffffffffffffffffff82169050919050565b5f6120dc826120b3565b9050919050565b6120ec816120d2565b82525050565b5f819050919050565b612104816120f2565b82525050565b5f81519050919050565b5f82825260208201905092915050565b5f5b83811015612141578082015181840152602081019050612126565b5f8484015250505050565b5f601f19601f8301169050919050565b5f6121668261210a565b6121708185612114565b9350612180818560208601612124565b6121898161214c565b840191505092915050565b5f60c083015f8301516121a95f8601826120e3565b5060208301516121bc60208601826120fb565b50604083015184820360408601526121d4828261215c565b915050606083015184820360608601526121ee828261215c565b915050608083015161220360808601826120e3565b5060a083015184820360a086015261221b828261215c565b9150508091505092915050565b5f6122338383612194565b905092915050565b5f602082019050919050565b5f6122518261208a565b61225b8185612094565b93508360208202850161226d856120a4565b805f5b858110156122a857848403895281516122898582612228565b94506122948361223b565b925060208a01995050600181019050612270565b50829750879550505050505092915050565b5f6020820190508181035f8301526122d28184612247565b905092915050565b5f604051905090565b5f80fd5b5f80fd5b6122f4816120f2565b81146122fe575f80fd5b50565b5f8135905061230f816122eb565b92915050565b5f6020828403121561232a576123296122e3565b5b5f61233784828501612301565b91505092915050565b612349816120d2565b82525050565b5f82825260208201905092915050565b5f6123698261210a565b612373818561234f565b9350612383818560208601612124565b61238c8161214c565b840191505092915050565b5f6080820190506123aa5f830187612340565b6123b76020830186612340565b81810360408301526123c9818561235f565b905081810360608301526123dd818461235f565b905095945050505050565b5f80fd5b5f80fd5b7f4e487b71000000000000000000000000000000000000000000000000000000005f52604160045260245ffd5b6124268261214c565b810181811067ffffffffffffffff82111715612445576124446123f0565b5b80604052505050565b5f6124576122da565b9050612463828261241d565b919050565b5f67ffffffffffffffff821115612482576124816123f0565b5b61248b8261214c565b9050602081019050919050565b828183375f83830152505050565b5f6124b86124b384612468565b61244e565b9050828152602081018484840111156124d4576124d36123ec565b5b6124df848285612498565b509392505050565b5f82601f8301126124fb576124fa6123e8565b5b813561250b8482602086016124a6565b91505092915050565b5f806040838503121561252a576125296122e3565b5b5f83013567ffffffffffffffff811115612547576125466122e7565b5b612553858286016124e7565b925050602083013567ffffffffffffffff811115612574576125736122e7565b5b612580858286016124e7565b9150509250929050565b5f81519050919050565b5f82825260208201905092915050565b5f819050602082019050919050565b5f608083015f8301516125c85f8601826120e3565b5060208301516125db60208601826120e3565b50604083015184820360408601526125f3828261215c565b9150506060830151848203606086015261260d828261215c565b9150508091505092915050565b5f61262583836125b3565b905092915050565b5f602082019050919050565b5f6126438261258a565b61264d8185612594565b93508360208202850161265f856125a4565b805f5b8581101561269a578484038952815161267b858261261a565b94506126868361262d565b925060208a01995050600181019050612662565b50829750879550505050505092915050565b5f6020820190508181035f8301526126c48184612639565b905092915050565b6126d5816120f2565b82525050565b5f60c0820190506126ee5f830189612340565b6126fb60208301886126cc565b818103604083015261270d818761235f565b90508181036060830152612721818661235f565b90506127306080830185612340565b81810360a0830152612742818461235f565b9050979650505050505050565b612758816120d2565b8114612762575f80fd5b50565b5f813590506127738161274f565b92915050565b5f805f606084860312156127905761278f6122e3565b5b5f61279d86828701612301565b93505060206127ae86828701612765565b925050604084013567ffffffffffffffff8111156127cf576127ce6122e7565b5b6127db868287016124e7565b9150509250925092565b7f4e487b71000000000000000000000000000000000000000000000000000000005f52603260045260245ffd5b7f4e487b71000000000000000000000000000000000000000000000000000000005f52602260045260245ffd5b5f600282049050600182168061285657607f821691505b60208210810361286957612868612812565b5b50919050565b7f4e487b71000000000000000000000000000000000000000000000000000000005f52601160045260245ffd5b5f6128a6826120f2565b91507fffffffffffffffffffffffffffffffffffffffffffffffffffffffffffffffff82036128d8576128d761286f565b5b600182019050919050565b5f6128ed826120f2565b91506128f8836120f2565b92508282019050808211156129105761290f61286f565b5b92915050565b5f819050815f5260205f209050919050565b5f6020601f8301049050919050565b5f82821b905092915050565b5f600883026129727fffffffffffffffffffffffffffffffffffffffffffffffffffffffffffffffff82612937565b61297c8683612937565b95508019841693508086168417925050509392505050565b5f819050919050565b5f6129b76129b26129ad846120f2565b612994565b6120f2565b9050919050565b5f819050919050565b6129d08361299d565b6129e46129dc826129be565b848454612943565b825550505050565b5f90565b6129f86129ec565b612a038184846129c7565b505050565b5b81811015612a2657612a1b5f826129f0565b600181019050612a09565b5050565b601f821115612a6b57612a3c81612916565b612a4584612928565b81016020851015612a54578190505b612a68612a6085612928565b830182612a08565b50505b505050565b5f82821c905092915050565b5f612a8b5f1984600802612a70565b1980831691505092915050565b5f612aa38383612a7c565b9150826002028217905092915050565b612abc8261210a565b67ffffffffffffffff811115612ad557612ad46123f0565b5b612adf825461283f565b612aea828285612a2a565b5f60209050601f831160018114612b1b575f8415612b09578287015190505b612b138582612a98565b865550612b7a565b601f198416612b2986612916565b5f5b82811015612b5057848901518255600182019150602085019450602081019050612b2b565b86831015612b6d5784890151612b69601f891682612a7c565b8355505b6001600288020188555050505b505050505050565b7f4f6e6c79207468652061677265656d656e742063726561746f722063616e20615f8201527f7070726f766520636f6c6c61626f7261746f7273000000000000000000000000602082015250565b5f612bdc60348361234f565b9150612be782612b82565b604082019050919050565b5f6020820190508181035f830152612c0981612bd0565b9050919050565b7f4e6f2070656e64696e6720636f6c6c61626f726174696f6e20726571756573745f82015250565b5f612c4460208361234f565b9150612c4f82612c10565b602082019050919050565b5f6020820190508181035f830152612c7181612c38565b9050919050565b7f43616e6e6f7420636f6c6c61626f72617465206f6e20796f7572206f776e20615f8201527f677265656d656e74000000000000000000000000000000000000000000000000602082015250565b5f612cd260288361234f565b9150612cdd82612c78565b604082019050919050565b5f6020820190508181035f830152612cff81612cc6565b9050919050565b7f436f6c6c61626f726174696f6e207265717565737420616c72656164792070655f8201527f6e64696e67000000000000000000000000000000000000000000000000000000602082015250565b5f612d6060258361234f565b9150612d6b82612d06565b604082019050919050565b5f6020820190508181035f830152612d8d81612d54565b905091905056fea26469706673582212205a03e17590c7c855e9a77dd5de048ed4096a918d527289429469b9ffdcd39b5e64736f6c63430008150033",
  "immutableReferences": {},
  "source": "// SPDX-License-Identifier: MIT\npragma solidity ^0.8.0;\n\ncontract Collab {\n    struct ProposedAgreement {\n        address creator;\n        uint256 deadline;\n        string terms;\n        string skillsRequired;\n        address potentialCollaborator;\n        string potentialCollabSkills;\n    }\n\n    struct Collaboration {\n        address party1;\n        address party2;\n        string terms;\n        string skillsRequired;\n    }\n\n    ProposedAgreement[] public proposedAgreements;\n    Collaboration[] public collaborations;\n\n    event AgreementProposed(uint256 indexed agreementId, address indexed creator, string terms, string skillsRequired);\n    event CollabRequestSent(uint256 indexed agreementId, address indexed potentialPartner);\n    event AgreementApproved(uint256 indexed agreementId, address indexed party2);\n\n    function proposeAgreement(string memory _terms, string memory _skillsRequired) public {\n        proposedAgreements.push(ProposedAgreement(msg.sender, block.timestamp + 30 days, _terms, _skillsRequired, address(0),\"\"));\n    }\n\n    function requestCollaboration(uint256 _agreementId, address user, string memory _skills) public {\n        ProposedAgreement storage proposedAgreement = proposedAgreements[_agreementId];\n        require(proposedAgreement.creator != user, \"Cannot collaborate on your own agreement\");\n        require(proposedAgreement.potentialCollaborator == address(0), \"Collaboration request already pending\");\n        proposedAgreement.potentialCollaborator = user;\n        proposedAgreement.potentialCollabSkills = _skills;\n    }\n\n\n    function approveCollaborator(uint256 _agreementId) public {\n        ProposedAgreement storage proposedAgreement = proposedAgreements[_agreementId];\n        require(proposedAgreement.creator == msg.sender, \"Only the agreement creator can approve collaborators\");\n        require(proposedAgreement.potentialCollaborator != address(0), \"No pending collaboration request\");\n\n        Collaboration memory newCollaboration = Collaboration(proposedAgreement.creator, proposedAgreement.potentialCollaborator, proposedAgreement.terms, proposedAgreement.skillsRequired);\n        collaborations.push(newCollaboration);\n        delete proposedAgreements[_agreementId];\n    }\n\n    function getAllProposedAgreements() public view returns (ProposedAgreement[] memory) {\n        return proposedAgreements;\n    }\n\n    function getAllCollaborations() public view returns (Collaboration[] memory) {\n        return collaborations;\n    }\n    function getMyProposedAgreements() public view returns (ProposedAgreement[] memory) {\n        ProposedAgreement[] memory creatorAgreements = new ProposedAgreement[](proposedAgreements.length);\n        uint256 count = 0;\n        for (uint256 i = 0; i < proposedAgreements.length; i++) {\n            if (proposedAgreements[i].creator == msg.sender) {\n                creatorAgreements[count] = proposedAgreements[i];\n                count++;\n            }\n        }\n        ProposedAgreement[] memory filteredAgreements = new ProposedAgreement[](count);\n        for (uint256 i = 0; i < count; i++) {\n            filteredAgreements[i] = creatorAgreements[i];\n        }\n\n        return filteredAgreements;\n    }\n    function getMyCollaborations() public view returns (Collaboration[] memory) {\n        Collaboration[] memory userCollaborations = new Collaboration[](collaborations.length);\n        uint256 count = 0;\n        for (uint256 i = 0; i < collaborations.length; i++) {\n            if (collaborations[i].party1 == msg.sender || collaborations[i].party2 == msg.sender) {\n                userCollaborations[count] = collaborations[i];\n                count++;\n            }\n        }\n        Collaboration[] memory filteredCollaborations = new Collaboration[](count);\n        for (uint256 i = 0; i < count; i++) {\n            filteredCollaborations[i] = userCollaborations[i];\n        }\n\n        return filteredCollaborations;\n    }\n    function getPendingAgreements() public view returns (ProposedAgreement[] memory) {\n        ProposedAgreement[] memory pendingAgreements = new ProposedAgreement[](proposedAgreements.length);\n        uint256 count = 0;\n        for (uint256 i = 0; i < proposedAgreements.length; i++) {\n            if (proposedAgreements[i].creator == msg.sender && proposedAgreements[i].potentialCollaborator != address(0)) {\n                pendingAgreements[count] = proposedAgreements[i];\n                count++;\n            }\n        }\n        ProposedAgreement[] memory filteredAgreements2 = new ProposedAgreement[](count);\n        for (uint256 i = 0; i < count; i++) {\n            filteredAgreements2[i] = pendingAgreements[i];\n        }\n        return filteredAgreements2;\n    }\n}\n\n\n",
  "sourcePath": "/home/am/Desktop/TRINIT_REDACTED_WEB3/truffle/contracts/Collab.sol",
  "compiler": {
    "name": "solc",
    "version": "0.8.21+commit.d9974bed.Emscripten.clang"
  },
  "schemaVersion": "3.4.16",
  "updatedAt": "2024-03-09T19:18:46.380Z",
  "networkType": "ethereum",
  "devdoc": {
    "kind": "dev",
    "methods": {},
    "version": 1
  },
  "userdoc": {
    "kind": "user",
    "methods": {},
    "version": 1
  }
}