{
  "contractName": "Collab",
  "abi": [
    {
      "inputs": [
        {
          "internalType": "address",
          "name": "_IdentityContract",
          "type": "address"
        }
      ],
      "stateMutability": "nonpayable",
      "type": "constructor"
    },
    {
      "anonymous": false,
      "inputs": [
        {
          "indexed": true,
          "internalType": "uint256",
          "name": "agreementId",
          "type": "uint256"
        },
        {
          "indexed": true,
          "internalType": "address",
          "name": "party2",
          "type": "address"
        }
      ],
      "name": "AgreementApproved",
      "type": "event"
    },
    {
      "anonymous": false,
      "inputs": [
        {
          "indexed": true,
          "internalType": "uint256",
          "name": "agreementId",
          "type": "uint256"
        },
        {
          "indexed": true,
          "internalType": "address",
          "name": "creator",
          "type": "address"
        },
        {
          "indexed": false,
          "internalType": "string",
          "name": "terms",
          "type": "string"
        },
        {
          "indexed": false,
          "internalType": "string",
          "name": "skillsRequired",
          "type": "string"
        }
      ],
      "name": "AgreementProposed",
      "type": "event"
    },
    {
      "anonymous": false,
      "inputs": [
        {
          "indexed": true,
          "internalType": "uint256",
          "name": "agreementId",
          "type": "uint256"
        },
        {
          "indexed": true,
          "internalType": "address",
          "name": "potentialPartner",
          "type": "address"
        }
      ],
      "name": "CollabRequestSent",
      "type": "event"
    },
    {
      "inputs": [],
      "name": "Identities",
      "outputs": [
        {
          "internalType": "contract Identity",
          "name": "",
          "type": "address"
        }
      ],
      "stateMutability": "view",
      "type": "function",
      "constant": true
    },
    {
      "inputs": [],
      "name": "IdentityContract",
      "outputs": [
        {
          "internalType": "address",
          "name": "",
          "type": "address"
        }
      ],
      "stateMutability": "view",
      "type": "function",
      "constant": true
    },
    {
      "inputs": [
        {
          "internalType": "uint256",
          "name": "",
          "type": "uint256"
        }
      ],
      "name": "collaborations",
      "outputs": [
        {
          "internalType": "address",
          "name": "p1",
          "type": "address"
        },
        {
          "internalType": "address",
          "name": "p2",
          "type": "address"
        },
        {
          "internalType": "string",
          "name": "party1",
          "type": "string"
        },
        {
          "internalType": "string",
          "name": "party2",
          "type": "string"
        },
        {
          "internalType": "string",
          "name": "terms",
          "type": "string"
        },
        {
          "internalType": "string",
          "name": "skillsRequired",
          "type": "string"
        }
      ],
      "stateMutability": "view",
      "type": "function",
      "constant": true
    },
    {
      "inputs": [
        {
          "internalType": "uint256",
          "name": "",
          "type": "uint256"
        }
      ],
      "name": "proposedAgreements",
      "outputs": [
        {
          "internalType": "address",
          "name": "creator",
          "type": "address"
        },
        {
          "internalType": "string",
          "name": "creatorName",
          "type": "string"
        },
        {
          "internalType": "string",
          "name": "deadline",
          "type": "string"
        },
        {
          "internalType": "string",
          "name": "terms",
          "type": "string"
        },
        {
          "internalType": "string",
          "name": "skillsRequired",
          "type": "string"
        },
        {
          "internalType": "address",
          "name": "potentialCollaborator",
          "type": "address"
        },
        {
          "internalType": "string",
          "name": "collaboratorName",
          "type": "string"
        },
        {
          "internalType": "string",
          "name": "potentialCollabSkills",
          "type": "string"
        }
      ],
      "stateMutability": "view",
      "type": "function",
      "constant": true
    },
    {
      "inputs": [
        {
          "internalType": "string",
          "name": "_terms",
          "type": "string"
        },
        {
          "internalType": "string",
          "name": "_skillsRequired",
          "type": "string"
        },
        {
          "internalType": "string",
          "name": "_deadline",
          "type": "string"
        }
      ],
      "name": "proposeAgreement",
      "outputs": [],
      "stateMutability": "nonpayable",
      "type": "function"
    },
    {
      "inputs": [
        {
          "internalType": "uint256",
          "name": "_agreementId",
          "type": "uint256"
        },
        {
          "internalType": "address",
          "name": "user",
          "type": "address"
        },
        {
          "internalType": "string",
          "name": "_skills",
          "type": "string"
        }
      ],
      "name": "requestCollaboration",
      "outputs": [],
      "stateMutability": "nonpayable",
      "type": "function"
    },
    {
      "inputs": [
        {
          "internalType": "uint256",
          "name": "_agreementId",
          "type": "uint256"
        }
      ],
      "name": "approveCollaborator",
      "outputs": [],
      "stateMutability": "nonpayable",
      "type": "function"
    },
    {
      "inputs": [],
      "name": "getAllProposedAgreements",
      "outputs": [
        {
          "components": [
            {
              "internalType": "address",
              "name": "creator",
              "type": "address"
            },
            {
              "internalType": "string",
              "name": "creatorName",
              "type": "string"
            },
            {
              "internalType": "string",
              "name": "deadline",
              "type": "string"
            },
            {
              "internalType": "string",
              "name": "terms",
              "type": "string"
            },
            {
              "internalType": "string",
              "name": "skillsRequired",
              "type": "string"
            },
            {
              "internalType": "address",
              "name": "potentialCollaborator",
              "type": "address"
            },
            {
              "internalType": "string",
              "name": "collaboratorName",
              "type": "string"
            },
            {
              "internalType": "string",
              "name": "potentialCollabSkills",
              "type": "string"
            }
          ],
          "internalType": "struct Collab.ProposedAgreement[]",
          "name": "",
          "type": "tuple[]"
        }
      ],
      "stateMutability": "view",
      "type": "function",
      "constant": true
    },
    {
      "inputs": [],
      "name": "getAllCollaborations",
      "outputs": [
        {
          "components": [
            {
              "internalType": "address",
              "name": "p1",
              "type": "address"
            },
            {
              "internalType": "address",
              "name": "p2",
              "type": "address"
            },
            {
              "internalType": "string",
              "name": "party1",
              "type": "string"
            },
            {
              "internalType": "string",
              "name": "party2",
              "type": "string"
            },
            {
              "internalType": "string",
              "name": "terms",
              "type": "string"
            },
            {
              "internalType": "string",
              "name": "skillsRequired",
              "type": "string"
            }
          ],
          "internalType": "struct Collab.Collaboration[]",
          "name": "",
          "type": "tuple[]"
        }
      ],
      "stateMutability": "view",
      "type": "function",
      "constant": true
    },
    {
      "inputs": [],
      "name": "getMyProposedAgreements",
      "outputs": [
        {
          "components": [
            {
              "internalType": "address",
              "name": "creator",
              "type": "address"
            },
            {
              "internalType": "string",
              "name": "creatorName",
              "type": "string"
            },
            {
              "internalType": "string",
              "name": "deadline",
              "type": "string"
            },
            {
              "internalType": "string",
              "name": "terms",
              "type": "string"
            },
            {
              "internalType": "string",
              "name": "skillsRequired",
              "type": "string"
            },
            {
              "internalType": "address",
              "name": "potentialCollaborator",
              "type": "address"
            },
            {
              "internalType": "string",
              "name": "collaboratorName",
              "type": "string"
            },
            {
              "internalType": "string",
              "name": "potentialCollabSkills",
              "type": "string"
            }
          ],
          "internalType": "struct Collab.ProposedAgreement[]",
          "name": "",
          "type": "tuple[]"
        }
      ],
      "stateMutability": "view",
      "type": "function",
      "constant": true
    },
    {
      "inputs": [],
      "name": "getMyCollaborations",
      "outputs": [
        {
          "components": [
            {
              "internalType": "address",
              "name": "p1",
              "type": "address"
            },
            {
              "internalType": "address",
              "name": "p2",
              "type": "address"
            },
            {
              "internalType": "string",
              "name": "party1",
              "type": "string"
            },
            {
              "internalType": "string",
              "name": "party2",
              "type": "string"
            },
            {
              "internalType": "string",
              "name": "terms",
              "type": "string"
            },
            {
              "internalType": "string",
              "name": "skillsRequired",
              "type": "string"
            }
          ],
          "internalType": "struct Collab.Collaboration[]",
          "name": "",
          "type": "tuple[]"
        }
      ],
      "stateMutability": "view",
      "type": "function",
      "constant": true
    },
    {
      "inputs": [],
      "name": "getPendingAgreements",
      "outputs": [
        {
          "components": [
            {
              "internalType": "address",
              "name": "creator",
              "type": "address"
            },
            {
              "internalType": "string",
              "name": "creatorName",
              "type": "string"
            },
            {
              "internalType": "string",
              "name": "deadline",
              "type": "string"
            },
            {
              "internalType": "string",
              "name": "terms",
              "type": "string"
            },
            {
              "internalType": "string",
              "name": "skillsRequired",
              "type": "string"
            },
            {
              "internalType": "address",
              "name": "potentialCollaborator",
              "type": "address"
            },
            {
              "internalType": "string",
              "name": "collaboratorName",
              "type": "string"
            },
            {
              "internalType": "string",
              "name": "potentialCollabSkills",
              "type": "string"
            }
          ],
          "internalType": "struct Collab.ProposedAgreement[]",
          "name": "",
          "type": "tuple[]"
        }
      ],
      "stateMutability": "view",
      "type": "function",
      "constant": true
    }
  ],
  "bytecode": "0x608060405234801562000010575f80fd5b506040516200439f3803806200439f833981810160405281019062000036919062000140565b805f806101000a81548173ffffffffffffffffffffffffffffffffffffffff021916908373ffffffffffffffffffffffffffffffffffffffff1602179055505f8054906101000a900473ffffffffffffffffffffffffffffffffffffffff1660015f6101000a81548173ffffffffffffffffffffffffffffffffffffffff021916908373ffffffffffffffffffffffffffffffffffffffff1602179055505062000170565b5f80fd5b5f73ffffffffffffffffffffffffffffffffffffffff82169050919050565b5f6200010a82620000df565b9050919050565b6200011c81620000fe565b811462000127575f80fd5b50565b5f815190506200013a8162000111565b92915050565b5f60208284031215620001585762000157620000db565b5b5f62000167848285016200012a565b91505092915050565b614221806200017e5f395ff3fe608060405234801561000f575f80fd5b50600436106100b2575f3560e01c8063cf0567ec1161006f578063cf0567ec1461017f578063d78f57941461019d578063ed3f09dd146101b9578063f32a927a146101d7578063fb6ccb18146101f5578063fc7fa8061461022c576100b2565b8063171600a3146100b65780632daab499146100d45780634b254f68146100f2578063a01dd86414610127578063a04b0ea014610145578063c5e01cf114610163575b5f80fd5b6100be610248565b6040516100cb919061304e565b60405180910390f35b6100dc61026b565b6040516100e9919061328b565b60405180910390f35b61010c600480360381019061010791906132ef565b6108f5565b60405161011e96959493929190613362565b60405180910390f35b61012f610b92565b60405161013c9190613438565b60405180910390f35b61014d610bb7565b60405161015a919061328b565b60405180910390f35b61017d600480360381019061017891906132ef565b61101d565b005b6101876117a9565b60405161019491906135a7565b60405180910390f35b6101b760048036038101906101b291906136f3565b611aee565b005b6101c1611d5d565b6040516101ce91906135a7565b60405180910390f35b6101df6122c4565b6040516101ec919061328b565b60405180910390f35b61020f600480360381019061020a91906132ef565b6128d3565b604051610223989796959493929190613797565b60405180910390f35b61024660048036038101906102419190613867565b612c88565b005b5f8054906101000a900473ffffffffffffffffffffffffffffffffffffffff1681565b60605f60028054905067ffffffffffffffff81111561028d5761028c6135cf565b5b6040519080825280602002602001820160405280156102c657816020015b6102b3612ee8565b8152602001906001900390816102ab5790505b5090505f805b60028054905081101561083d573373ffffffffffffffffffffffffffffffffffffffff1660028281548110610304576103036138d3565b5b905f5260205f2090600802015f015f9054906101000a900473ffffffffffffffffffffffffffffffffffffffff1673ffffffffffffffffffffffffffffffffffffffff161480156103c357505f73ffffffffffffffffffffffffffffffffffffffff166002828154811061037b5761037a6138d3565b5b905f5260205f2090600802016005015f9054906101000a900473ffffffffffffffffffffffffffffffffffffffff1673ffffffffffffffffffffffffffffffffffffffff1614155b1561082a57600281815481106103dc576103db6138d3565b5b905f5260205f209060080201604051806101000160405290815f82015f9054906101000a900473ffffffffffffffffffffffffffffffffffffffff1673ffffffffffffffffffffffffffffffffffffffff1673ffffffffffffffffffffffffffffffffffffffff1681526020016001820180546104589061392d565b80601f01602080910402602001604051908101604052809291908181526020018280546104849061392d565b80156104cf5780601f106104a6576101008083540402835291602001916104cf565b820191905f5260205f20905b8154815290600101906020018083116104b257829003601f168201915b505050505081526020016002820180546104e89061392d565b80601f01602080910402602001604051908101604052809291908181526020018280546105149061392d565b801561055f5780601f106105365761010080835404028352916020019161055f565b820191905f5260205f20905b81548152906001019060200180831161054257829003601f168201915b505050505081526020016003820180546105789061392d565b80601f01602080910402602001604051908101604052809291908181526020018280546105a49061392d565b80156105ef5780601f106105c6576101008083540402835291602001916105ef565b820191905f5260205f20905b8154815290600101906020018083116105d257829003601f168201915b505050505081526020016004820180546106089061392d565b80601f01602080910402602001604051908101604052809291908181526020018280546106349061392d565b801561067f5780601f106106565761010080835404028352916020019161067f565b820191905f5260205f20905b81548152906001019060200180831161066257829003601f168201915b50505050508152602001600582015f9054906101000a900473ffffffffffffffffffffffffffffffffffffffff1673ffffffffffffffffffffffffffffffffffffffff1673ffffffffffffffffffffffffffffffffffffffff1681526020016006820180546106ed9061392d565b80601f01602080910402602001604051908101604052809291908181526020018280546107199061392d565b80156107645780601f1061073b57610100808354040283529160200191610764565b820191905f5260205f20905b81548152906001019060200180831161074757829003601f168201915b5050505050815260200160078201805461077d9061392d565b80601f01602080910402602001604051908101604052809291908181526020018280546107a99061392d565b80156107f45780601f106107cb576101008083540402835291602001916107f4565b820191905f5260205f20905b8154815290600101906020018083116107d757829003601f168201915b5050505050815250508383815181106108105761080f6138d3565b5b602002602001018190525081806108269061398a565b9250505b80806108359061398a565b9150506102cc565b505f8167ffffffffffffffff811115610859576108586135cf565b5b60405190808252806020026020018201604052801561089257816020015b61087f612ee8565b8152602001906001900390816108775790505b5090505f5b828110156108eb578381815181106108b2576108b16138d3565b5b60200260200101518282815181106108cd576108cc6138d3565b5b602002602001018190525080806108e39061398a565b915050610897565b5080935050505090565b60038181548110610904575f80fd5b905f5260205f2090600602015f91509050805f015f9054906101000a900473ffffffffffffffffffffffffffffffffffffffff1690806001015f9054906101000a900473ffffffffffffffffffffffffffffffffffffffff169080600201805461096d9061392d565b80601f01602080910402602001604051908101604052809291908181526020018280546109999061392d565b80156109e45780601f106109bb576101008083540402835291602001916109e4565b820191905f5260205f20905b8154815290600101906020018083116109c757829003601f168201915b5050505050908060030180546109f99061392d565b80601f0160208091040260200160405190810160405280929190818152602001828054610a259061392d565b8015610a705780601f10610a4757610100808354040283529160200191610a70565b820191905f5260205f20905b815481529060010190602001808311610a5357829003601f168201915b505050505090806004018054610a859061392d565b80601f0160208091040260200160405190810160405280929190818152602001828054610ab19061392d565b8015610afc5780601f10610ad357610100808354040283529160200191610afc565b820191905f5260205f20905b815481529060010190602001808311610adf57829003601f168201915b505050505090806005018054610b119061392d565b80601f0160208091040260200160405190810160405280929190818152602001828054610b3d9061392d565b8015610b885780601f10610b5f57610100808354040283529160200191610b88565b820191905f5260205f20905b815481529060010190602001808311610b6b57829003601f168201915b5050505050905086565b60015f9054906101000a900473ffffffffffffffffffffffffffffffffffffffff1681565b60606002805480602002602001604051908101604052809291908181526020015f905b82821015611014578382905f5260205f209060080201604051806101000160405290815f82015f9054906101000a900473ffffffffffffffffffffffffffffffffffffffff1673ffffffffffffffffffffffffffffffffffffffff1673ffffffffffffffffffffffffffffffffffffffff168152602001600182018054610c609061392d565b80601f0160208091040260200160405190810160405280929190818152602001828054610c8c9061392d565b8015610cd75780601f10610cae57610100808354040283529160200191610cd7565b820191905f5260205f20905b815481529060010190602001808311610cba57829003601f168201915b50505050508152602001600282018054610cf09061392d565b80601f0160208091040260200160405190810160405280929190818152602001828054610d1c9061392d565b8015610d675780601f10610d3e57610100808354040283529160200191610d67565b820191905f5260205f20905b815481529060010190602001808311610d4a57829003601f168201915b50505050508152602001600382018054610d809061392d565b80601f0160208091040260200160405190810160405280929190818152602001828054610dac9061392d565b8015610df75780601f10610dce57610100808354040283529160200191610df7565b820191905f5260205f20905b815481529060010190602001808311610dda57829003601f168201915b50505050508152602001600482018054610e109061392d565b80601f0160208091040260200160405190810160405280929190818152602001828054610e3c9061392d565b8015610e875780601f10610e5e57610100808354040283529160200191610e87565b820191905f5260205f20905b815481529060010190602001808311610e6a57829003601f168201915b50505050508152602001600582015f9054906101000a900473ffffffffffffffffffffffffffffffffffffffff1673ffffffffffffffffffffffffffffffffffffffff1673ffffffffffffffffffffffffffffffffffffffff168152602001600682018054610ef59061392d565b80601f0160208091040260200160405190810160405280929190818152602001828054610f219061392d565b8015610f6c5780601f10610f4357610100808354040283529160200191610f6c565b820191905f5260205f20905b815481529060010190602001808311610f4f57829003601f168201915b50505050508152602001600782018054610f859061392d565b80601f0160208091040260200160405190810160405280929190818152602001828054610fb19061392d565b8015610ffc5780601f10610fd357610100808354040283529160200191610ffc565b820191905f5260205f20905b815481529060010190602001808311610fdf57829003601f168201915b50505050508152505081526020019060010190610bda565b50505050905090565b5f60028281548110611032576110316138d3565b5b905f5260205f20906008020190503373ffffffffffffffffffffffffffffffffffffffff16815f015f9054906101000a900473ffffffffffffffffffffffffffffffffffffffff1673ffffffffffffffffffffffffffffffffffffffff16146110d0576040517f08c379a00000000000000000000000000000000000000000000000000000000081526004016110c790613a41565b60405180910390fd5b5f73ffffffffffffffffffffffffffffffffffffffff16816005015f9054906101000a900473ffffffffffffffffffffffffffffffffffffffff1673ffffffffffffffffffffffffffffffffffffffff1603611161576040517f08c379a000000000000000000000000000000000000000000000000000000000815260040161115890613aa9565b60405180910390fd5b5f6040518060c00160405280835f015f9054906101000a900473ffffffffffffffffffffffffffffffffffffffff1673ffffffffffffffffffffffffffffffffffffffff168152602001836005015f9054906101000a900473ffffffffffffffffffffffffffffffffffffffff1673ffffffffffffffffffffffffffffffffffffffff1681526020018360010180546111f99061392d565b80601f01602080910402602001604051908101604052809291908181526020018280546112259061392d565b80156112705780601f1061124757610100808354040283529160200191611270565b820191905f5260205f20905b81548152906001019060200180831161125357829003601f168201915b505050505081526020018360060180546112899061392d565b80601f01602080910402602001604051908101604052809291908181526020018280546112b59061392d565b80156113005780601f106112d757610100808354040283529160200191611300565b820191905f5260205f20905b8154815290600101906020018083116112e357829003601f168201915b505050505081526020018360030180546113199061392d565b80601f01602080910402602001604051908101604052809291908181526020018280546113459061392d565b80156113905780601f1061136757610100808354040283529160200191611390565b820191905f5260205f20905b81548152906001019060200180831161137357829003601f168201915b505050505081526020018360040180546113a99061392d565b80601f01602080910402602001604051908101604052809291908181526020018280546113d59061392d565b80156114205780601f106113f757610100808354040283529160200191611420565b820191905f5260205f20905b81548152906001019060200180831161140357829003601f168201915b50505050508152509050600381908060018154018082558091505060019003905f5260205f2090600602015f909190919091505f820151815f015f6101000a81548173ffffffffffffffffffffffffffffffffffffffff021916908373ffffffffffffffffffffffffffffffffffffffff1602179055506020820151816001015f6101000a81548173ffffffffffffffffffffffffffffffffffffffff021916908373ffffffffffffffffffffffffffffffffffffffff16021790555060408201518160020190816114f29190613c5b565b5060608201518160030190816115089190613c5b565b50608082015181600401908161151e9190613c5b565b5060a08201518160050190816115349190613c5b565b5050505f600160028054905061154a9190613d2a565b9050600281815481106115605761155f6138d3565b5b905f5260205f209060080201600285815481106115805761157f6138d3565b5b905f5260205f2090600802015f82015f9054906101000a900473ffffffffffffffffffffffffffffffffffffffff16815f015f6101000a81548173ffffffffffffffffffffffffffffffffffffffff021916908373ffffffffffffffffffffffffffffffffffffffff160217905550600182018160010190816116039190613d72565b50600282018160020190816116189190613d72565b506003820181600301908161162d9190613d72565b50600482018160040190816116429190613d72565b50600582015f9054906101000a900473ffffffffffffffffffffffffffffffffffffffff16816005015f6101000a81548173ffffffffffffffffffffffffffffffffffffffff021916908373ffffffffffffffffffffffffffffffffffffffff160217905550600682018160060190816116bc9190613d72565b50600782018160070190816116d19190613d72565b5090505060028054806116e7576116e6613e57565b5b600190038181905f5260205f2090600802015f8082015f6101000a81549073ffffffffffffffffffffffffffffffffffffffff0219169055600182015f61172e9190612f57565b600282015f61173d9190612f57565b600382015f61174c9190612f57565b600482015f61175b9190612f57565b600582015f6101000a81549073ffffffffffffffffffffffffffffffffffffffff0219169055600682015f6117909190612f57565b600782015f61179f9190612f57565b5050905550505050565b60606003805480602002602001604051908101604052809291908181526020015f905b82821015611ae5578382905f5260205f2090600602016040518060c00160405290815f82015f9054906101000a900473ffffffffffffffffffffffffffffffffffffffff1673ffffffffffffffffffffffffffffffffffffffff1673ffffffffffffffffffffffffffffffffffffffff168152602001600182015f9054906101000a900473ffffffffffffffffffffffffffffffffffffffff1673ffffffffffffffffffffffffffffffffffffffff1673ffffffffffffffffffffffffffffffffffffffff1681526020016002820180546118a69061392d565b80601f01602080910402602001604051908101604052809291908181526020018280546118d29061392d565b801561191d5780601f106118f45761010080835404028352916020019161191d565b820191905f5260205f20905b81548152906001019060200180831161190057829003601f168201915b505050505081526020016003820180546119369061392d565b80601f01602080910402602001604051908101604052809291908181526020018280546119629061392d565b80156119ad5780601f10611984576101008083540402835291602001916119ad565b820191905f5260205f20905b81548152906001019060200180831161199057829003601f168201915b505050505081526020016004820180546119c69061392d565b80601f01602080910402602001604051908101604052809291908181526020018280546119f29061392d565b8015611a3d5780601f10611a1457610100808354040283529160200191611a3d565b820191905f5260205f20905b815481529060010190602001808311611a2057829003601f168201915b50505050508152602001600582018054611a569061392d565b80601f0160208091040260200160405190810160405280929190818152602001828054611a829061392d565b8015611acd5780601f10611aa457610100808354040283529160200191611acd565b820191905f5260205f20905b815481529060010190602001808311611ab057829003601f168201915b505050505081525050815260200190600101906117cc565b50505050905090565b5f805f805f60015f9054906101000a900473ffffffffffffffffffffffffffffffffffffffff1673ffffffffffffffffffffffffffffffffffffffff16636f77926b336040518263ffffffff1660e01b8152600401611b4d919061304e565b5f60405180830381865afa158015611b67573d5f803e3d5ffd5b505050506040513d5f823e3d601f19601f82011682018060405250810190611b8f9190613fe8565b9450945094509450945060026040518061010001604052803373ffffffffffffffffffffffffffffffffffffffff1681526020018781526020018881526020018a81526020018981526020015f73ffffffffffffffffffffffffffffffffffffffff16815260200160405180602001604052805f815250815260200160405180602001604052805f815250815250908060018154018082558091505060019003905f5260205f2090600802015f909190919091505f820151815f015f6101000a81548173ffffffffffffffffffffffffffffffffffffffff021916908373ffffffffffffffffffffffffffffffffffffffff1602179055506020820151816001019081611c9c9190613c5b565b506040820151816002019081611cb29190613c5b565b506060820151816003019081611cc89190613c5b565b506080820151816004019081611cde9190613c5b565b5060a0820151816005015f6101000a81548173ffffffffffffffffffffffffffffffffffffffff021916908373ffffffffffffffffffffffffffffffffffffffff16021790555060c0820151816006019081611d3a9190613c5b565b5060e0820151816007019081611d509190613c5b565b5050505050505050505050565b60605f60038054905067ffffffffffffffff811115611d7f57611d7e6135cf565b5b604051908082528060200260200182016040528015611db857816020015b611da5612f94565b815260200190600190039081611d9d5790505b5090505f805b60038054905081101561220c573373ffffffffffffffffffffffffffffffffffffffff1660038281548110611df657611df56138d3565b5b905f5260205f2090600602015f015f9054906101000a900473ffffffffffffffffffffffffffffffffffffffff1673ffffffffffffffffffffffffffffffffffffffff161480611eb357503373ffffffffffffffffffffffffffffffffffffffff1660038281548110611e6c57611e6b6138d3565b5b905f5260205f2090600602016001015f9054906101000a900473ffffffffffffffffffffffffffffffffffffffff1673ffffffffffffffffffffffffffffffffffffffff16145b156121f95760038181548110611ecc57611ecb6138d3565b5b905f5260205f2090600602016040518060c00160405290815f82015f9054906101000a900473ffffffffffffffffffffffffffffffffffffffff1673ffffffffffffffffffffffffffffffffffffffff1673ffffffffffffffffffffffffffffffffffffffff168152602001600182015f9054906101000a900473ffffffffffffffffffffffffffffffffffffffff1673ffffffffffffffffffffffffffffffffffffffff1673ffffffffffffffffffffffffffffffffffffffff168152602001600282018054611f9c9061392d565b80601f0160208091040260200160405190810160405280929190818152602001828054611fc89061392d565b80156120135780601f10611fea57610100808354040283529160200191612013565b820191905f5260205f20905b815481529060010190602001808311611ff657829003601f168201915b5050505050815260200160038201805461202c9061392d565b80601f01602080910402602001604051908101604052809291908181526020018280546120589061392d565b80156120a35780601f1061207a576101008083540402835291602001916120a3565b820191905f5260205f20905b81548152906001019060200180831161208657829003601f168201915b505050505081526020016004820180546120bc9061392d565b80601f01602080910402602001604051908101604052809291908181526020018280546120e89061392d565b80156121335780601f1061210a57610100808354040283529160200191612133565b820191905f5260205f20905b81548152906001019060200180831161211657829003601f168201915b5050505050815260200160058201805461214c9061392d565b80601f01602080910402602001604051908101604052809291908181526020018280546121789061392d565b80156121c35780601f1061219a576101008083540402835291602001916121c3565b820191905f5260205f20905b8154815290600101906020018083116121a657829003601f168201915b5050505050815250508383815181106121df576121de6138d3565b5b602002602001018190525081806121f59061398a565b9250505b80806122049061398a565b915050611dbe565b505f8167ffffffffffffffff811115612228576122276135cf565b5b60405190808252806020026020018201604052801561226157816020015b61224e612f94565b8152602001906001900390816122465790505b5090505f5b828110156122ba57838181518110612281576122806138d3565b5b602002602001015182828151811061229c5761229b6138d3565b5b602002602001018190525080806122b29061398a565b915050612266565b5080935050505090565b60605f60028054905067ffffffffffffffff8111156122e6576122e56135cf565b5b60405190808252806020026020018201604052801561231f57816020015b61230c612ee8565b8152602001906001900390816123045790505b5090505f805b60028054905081101561281b573373ffffffffffffffffffffffffffffffffffffffff166002828154811061235d5761235c6138d3565b5b905f5260205f2090600802015f015f9054906101000a900473ffffffffffffffffffffffffffffffffffffffff1673ffffffffffffffffffffffffffffffffffffffff160361280857600281815481106123ba576123b96138d3565b5b905f5260205f209060080201604051806101000160405290815f82015f9054906101000a900473ffffffffffffffffffffffffffffffffffffffff1673ffffffffffffffffffffffffffffffffffffffff1673ffffffffffffffffffffffffffffffffffffffff1681526020016001820180546124369061392d565b80601f01602080910402602001604051908101604052809291908181526020018280546124629061392d565b80156124ad5780601f10612484576101008083540402835291602001916124ad565b820191905f5260205f20905b81548152906001019060200180831161249057829003601f168201915b505050505081526020016002820180546124c69061392d565b80601f01602080910402602001604051908101604052809291908181526020018280546124f29061392d565b801561253d5780601f106125145761010080835404028352916020019161253d565b820191905f5260205f20905b81548152906001019060200180831161252057829003601f168201915b505050505081526020016003820180546125569061392d565b80601f01602080910402602001604051908101604052809291908181526020018280546125829061392d565b80156125cd5780601f106125a4576101008083540402835291602001916125cd565b820191905f5260205f20905b8154815290600101906020018083116125b057829003601f168201915b505050505081526020016004820180546125e69061392d565b80601f01602080910402602001604051908101604052809291908181526020018280546126129061392d565b801561265d5780601f106126345761010080835404028352916020019161265d565b820191905f5260205f20905b81548152906001019060200180831161264057829003601f168201915b50505050508152602001600582015f9054906101000a900473ffffffffffffffffffffffffffffffffffffffff1673ffffffffffffffffffffffffffffffffffffffff1673ffffffffffffffffffffffffffffffffffffffff1681526020016006820180546126cb9061392d565b80601f01602080910402602001604051908101604052809291908181526020018280546126f79061392d565b80156127425780601f1061271957610100808354040283529160200191612742565b820191905f5260205f20905b81548152906001019060200180831161272557829003601f168201915b5050505050815260200160078201805461275b9061392d565b80601f01602080910402602001604051908101604052809291908181526020018280546127879061392d565b80156127d25780601f106127a9576101008083540402835291602001916127d2565b820191905f5260205f20905b8154815290600101906020018083116127b557829003601f168201915b5050505050815250508383815181106127ee576127ed6138d3565b5b602002602001018190525081806128049061398a565b9250505b80806128139061398a565b915050612325565b505f8167ffffffffffffffff811115612837576128366135cf565b5b60405190808252806020026020018201604052801561287057816020015b61285d612ee8565b8152602001906001900390816128555790505b5090505f5b828110156128c9578381815181106128905761288f6138d3565b5b60200260200101518282815181106128ab576128aa6138d3565b5b602002602001018190525080806128c19061398a565b915050612875565b5080935050505090565b600281815481106128e2575f80fd5b905f5260205f2090600802015f91509050805f015f9054906101000a900473ffffffffffffffffffffffffffffffffffffffff16908060010180546129269061392d565b80601f01602080910402602001604051908101604052809291908181526020018280546129529061392d565b801561299d5780601f106129745761010080835404028352916020019161299d565b820191905f5260205f20905b81548152906001019060200180831161298057829003601f168201915b5050505050908060020180546129b29061392d565b80601f01602080910402602001604051908101604052809291908181526020018280546129de9061392d565b8015612a295780601f10612a0057610100808354040283529160200191612a29565b820191905f5260205f20905b815481529060010190602001808311612a0c57829003601f168201915b505050505090806003018054612a3e9061392d565b80601f0160208091040260200160405190810160405280929190818152602001828054612a6a9061392d565b8015612ab55780601f10612a8c57610100808354040283529160200191612ab5565b820191905f5260205f20905b815481529060010190602001808311612a9857829003601f168201915b505050505090806004018054612aca9061392d565b80601f0160208091040260200160405190810160405280929190818152602001828054612af69061392d565b8015612b415780601f10612b1857610100808354040283529160200191612b41565b820191905f5260205f20905b815481529060010190602001808311612b2457829003601f168201915b505050505090806005015f9054906101000a900473ffffffffffffffffffffffffffffffffffffffff1690806006018054612b7b9061392d565b80601f0160208091040260200160405190810160405280929190818152602001828054612ba79061392d565b8015612bf25780601f10612bc957610100808354040283529160200191612bf2565b820191905f5260205f20905b815481529060010190602001808311612bd557829003601f168201915b505050505090806007018054612c079061392d565b80601f0160208091040260200160405190810160405280929190818152602001828054612c339061392d565b8015612c7e5780601f10612c5557610100808354040283529160200191612c7e565b820191905f5260205f20905b815481529060010190602001808311612c6157829003601f168201915b5050505050905088565b5f805f805f60015f9054906101000a900473ffffffffffffffffffffffffffffffffffffffff1673ffffffffffffffffffffffffffffffffffffffff16636f77926b336040518263ffffffff1660e01b8152600401612ce7919061304e565b5f60405180830381865afa158015612d01573d5f803e3d5ffd5b505050506040513d5f823e3d601f19601f82011682018060405250810190612d299190613fe8565b945094509450945094505f60028981548110612d4857612d476138d3565b5b905f5260205f20906008020190508773ffffffffffffffffffffffffffffffffffffffff16815f015f9054906101000a900473ffffffffffffffffffffffffffffffffffffffff1673ffffffffffffffffffffffffffffffffffffffff1603612de6576040517f08c379a0000000000000000000000000000000000000000000000000000000008152600401612ddd9061413f565b60405180910390fd5b5f73ffffffffffffffffffffffffffffffffffffffff16816005015f9054906101000a900473ffffffffffffffffffffffffffffffffffffffff1673ffffffffffffffffffffffffffffffffffffffff1614612e77576040517f08c379a0000000000000000000000000000000000000000000000000000000008152600401612e6e906141cd565b60405180910390fd5b87816005015f6101000a81548173ffffffffffffffffffffffffffffffffffffffff021916908373ffffffffffffffffffffffffffffffffffffffff16021790555085816006019081612eca9190613c5b565b5086816007019081612edc9190613c5b565b50505050505050505050565b6040518061010001604052805f73ffffffffffffffffffffffffffffffffffffffff168152602001606081526020016060815260200160608152602001606081526020015f73ffffffffffffffffffffffffffffffffffffffff16815260200160608152602001606081525090565b508054612f639061392d565b5f825580601f10612f745750612f91565b601f0160209004905f5260205f2090810190612f909190612ff4565b5b50565b6040518060c001604052805f73ffffffffffffffffffffffffffffffffffffffff1681526020015f73ffffffffffffffffffffffffffffffffffffffff168152602001606081526020016060815260200160608152602001606081525090565b5b8082111561300b575f815f905550600101612ff5565b5090565b5f73ffffffffffffffffffffffffffffffffffffffff82169050919050565b5f6130388261300f565b9050919050565b6130488161302e565b82525050565b5f6020820190506130615f83018461303f565b92915050565b5f81519050919050565b5f82825260208201905092915050565b5f819050602082019050919050565b6130998161302e565b82525050565b5f81519050919050565b5f82825260208201905092915050565b5f5b838110156130d65780820151818401526020810190506130bb565b5f8484015250505050565b5f601f19601f8301169050919050565b5f6130fb8261309f565b61310581856130a9565b93506131158185602086016130b9565b61311e816130e1565b840191505092915050565b5f61010083015f83015161313f5f860182613090565b506020830151848203602086015261315782826130f1565b9150506040830151848203604086015261317182826130f1565b9150506060830151848203606086015261318b82826130f1565b915050608083015184820360808601526131a582826130f1565b91505060a08301516131ba60a0860182613090565b5060c083015184820360c08601526131d282826130f1565b91505060e083015184820360e08601526131ec82826130f1565b9150508091505092915050565b5f6132048383613129565b905092915050565b5f602082019050919050565b5f61322282613067565b61322c8185613071565b93508360208202850161323e85613081565b805f5b85811015613279578484038952815161325a85826131f9565b94506132658361320c565b925060208a01995050600181019050613241565b50829750879550505050505092915050565b5f6020820190508181035f8301526132a38184613218565b905092915050565b5f604051905090565b5f80fd5b5f80fd5b5f819050919050565b6132ce816132bc565b81146132d8575f80fd5b50565b5f813590506132e9816132c5565b92915050565b5f60208284031215613304576133036132b4565b5b5f613311848285016132db565b91505092915050565b5f82825260208201905092915050565b5f6133348261309f565b61333e818561331a565b935061334e8185602086016130b9565b613357816130e1565b840191505092915050565b5f60c0820190506133755f83018961303f565b613382602083018861303f565b8181036040830152613394818761332a565b905081810360608301526133a8818661332a565b905081810360808301526133bc818561332a565b905081810360a08301526133d0818461332a565b9050979650505050505050565b5f819050919050565b5f6134006133fb6133f68461300f565b6133dd565b61300f565b9050919050565b5f613411826133e6565b9050919050565b5f61342282613407565b9050919050565b61343281613418565b82525050565b5f60208201905061344b5f830184613429565b92915050565b5f81519050919050565b5f82825260208201905092915050565b5f819050602082019050919050565b5f60c083015f83015161348f5f860182613090565b5060208301516134a26020860182613090565b50604083015184820360408601526134ba82826130f1565b915050606083015184820360608601526134d482826130f1565b915050608083015184820360808601526134ee82826130f1565b91505060a083015184820360a086015261350882826130f1565b9150508091505092915050565b5f613520838361347a565b905092915050565b5f602082019050919050565b5f61353e82613451565b613548818561345b565b93508360208202850161355a8561346b565b805f5b8581101561359557848403895281516135768582613515565b945061358183613528565b925060208a0199505060018101905061355d565b50829750879550505050505092915050565b5f6020820190508181035f8301526135bf8184613534565b905092915050565b5f80fd5b5f80fd5b7f4e487b71000000000000000000000000000000000000000000000000000000005f52604160045260245ffd5b613605826130e1565b810181811067ffffffffffffffff82111715613624576136236135cf565b5b80604052505050565b5f6136366132ab565b905061364282826135fc565b919050565b5f67ffffffffffffffff821115613661576136606135cf565b5b61366a826130e1565b9050602081019050919050565b828183375f83830152505050565b5f61369761369284613647565b61362d565b9050828152602081018484840111156136b3576136b26135cb565b5b6136be848285613677565b509392505050565b5f82601f8301126136da576136d96135c7565b5b81356136ea848260208601613685565b91505092915050565b5f805f6060848603121561370a576137096132b4565b5b5f84013567ffffffffffffffff811115613727576137266132b8565b5b613733868287016136c6565b935050602084013567ffffffffffffffff811115613754576137536132b8565b5b613760868287016136c6565b925050604084013567ffffffffffffffff811115613781576137806132b8565b5b61378d868287016136c6565b9150509250925092565b5f610100820190506137ab5f83018b61303f565b81810360208301526137bd818a61332a565b905081810360408301526137d1818961332a565b905081810360608301526137e5818861332a565b905081810360808301526137f9818761332a565b905061380860a083018661303f565b81810360c083015261381a818561332a565b905081810360e083015261382e818461332a565b90509998505050505050505050565b6138468161302e565b8114613850575f80fd5b50565b5f813590506138618161383d565b92915050565b5f805f6060848603121561387e5761387d6132b4565b5b5f61388b868287016132db565b935050602061389c86828701613853565b925050604084013567ffffffffffffffff8111156138bd576138bc6132b8565b5b6138c9868287016136c6565b9150509250925092565b7f4e487b71000000000000000000000000000000000000000000000000000000005f52603260045260245ffd5b7f4e487b71000000000000000000000000000000000000000000000000000000005f52602260045260245ffd5b5f600282049050600182168061394457607f821691505b60208210810361395757613956613900565b5b50919050565b7f4e487b71000000000000000000000000000000000000000000000000000000005f52601160045260245ffd5b5f613994826132bc565b91507fffffffffffffffffffffffffffffffffffffffffffffffffffffffffffffffff82036139c6576139c561395d565b5b600182019050919050565b7f4f6e6c79207468652061677265656d656e742063726561746f722063616e20615f8201527f7070726f766520636f6c6c61626f7261746f7273000000000000000000000000602082015250565b5f613a2b60348361331a565b9150613a36826139d1565b604082019050919050565b5f6020820190508181035f830152613a5881613a1f565b9050919050565b7f4e6f2070656e64696e6720636f6c6c61626f726174696f6e20726571756573745f82015250565b5f613a9360208361331a565b9150613a9e82613a5f565b602082019050919050565b5f6020820190508181035f830152613ac081613a87565b9050919050565b5f819050815f5260205f209050919050565b5f6020601f8301049050919050565b5f82821b905092915050565b5f60088302613b237fffffffffffffffffffffffffffffffffffffffffffffffffffffffffffffffff82613ae8565b613b2d8683613ae8565b95508019841693508086168417925050509392505050565b5f613b5f613b5a613b55846132bc565b6133dd565b6132bc565b9050919050565b5f819050919050565b613b7883613b45565b613b8c613b8482613b66565b848454613af4565b825550505050565b5f90565b613ba0613b94565b613bab818484613b6f565b505050565b5b81811015613bce57613bc35f82613b98565b600181019050613bb1565b5050565b601f821115613c1357613be481613ac7565b613bed84613ad9565b81016020851015613bfc578190505b613c10613c0885613ad9565b830182613bb0565b50505b505050565b5f82821c905092915050565b5f613c335f1984600802613c18565b1980831691505092915050565b5f613c4b8383613c24565b9150826002028217905092915050565b613c648261309f565b67ffffffffffffffff811115613c7d57613c7c6135cf565b5b613c87825461392d565b613c92828285613bd2565b5f60209050601f831160018114613cc3575f8415613cb1578287015190505b613cbb8582613c40565b865550613d22565b601f198416613cd186613ac7565b5f5b82811015613cf857848901518255600182019150602085019450602081019050613cd3565b86831015613d155784890151613d11601f891682613c24565b8355505b6001600288020188555050505b505050505050565b5f613d34826132bc565b9150613d3f836132bc565b9250828203905081811115613d5757613d5661395d565b5b92915050565b5f81549050613d6b8161392d565b9050919050565b818103613d80575050613e55565b613d8982613d5d565b67ffffffffffffffff811115613da257613da16135cf565b5b613dac825461392d565b613db7828285613bd2565b5f601f831160018114613de4575f8415613dd2578287015490505b613ddc8582613c40565b865550613e4e565b601f198416613df287613ac7565b9650613dfd86613ac7565b5f5b82811015613e2457848901548255600182019150600185019450602081019050613dff565b86831015613e415784890154613e3d601f891682613c24565b8355505b6001600288020188555050505b5050505050505b565b7f4e487b71000000000000000000000000000000000000000000000000000000005f52603160045260245ffd5b5f613e96613e9184613647565b61362d565b905082815260208101848484011115613eb257613eb16135cb565b5b613ebd8482856130b9565b509392505050565b5f82601f830112613ed957613ed86135c7565b5b8151613ee9848260208601613e84565b91505092915050565b5f67ffffffffffffffff821115613f0c57613f0b6135cf565b5b602082029050602081019050919050565b5f80fd5b5f613f33613f2e84613ef2565b61362d565b90508083825260208201905060208402830185811115613f5657613f55613f1d565b5b835b81811015613f9d57805167ffffffffffffffff811115613f7b57613f7a6135c7565b5b808601613f888982613ec5565b85526020850194505050602081019050613f58565b5050509392505050565b5f82601f830112613fbb57613fba6135c7565b5b8151613fcb848260208601613f21565b91505092915050565b5f81519050613fe2816132c5565b92915050565b5f805f805f60a08688031215614001576140006132b4565b5b5f86015167ffffffffffffffff81111561401e5761401d6132b8565b5b61402a88828901613ec5565b955050602086015167ffffffffffffffff81111561404b5761404a6132b8565b5b61405788828901613ec5565b945050604086015167ffffffffffffffff811115614078576140776132b8565b5b61408488828901613ec5565b935050606086015167ffffffffffffffff8111156140a5576140a46132b8565b5b6140b188828901613fa7565b92505060806140c288828901613fd4565b9150509295509295909350565b7f43616e6e6f7420636f6c6c61626f72617465206f6e20796f7572206f776e20615f8201527f677265656d656e74000000000000000000000000000000000000000000000000602082015250565b5f61412960288361331a565b9150614134826140cf565b604082019050919050565b5f6020820190508181035f8301526141568161411d565b9050919050565b7f436f6c6c61626f726174696f6e207265717565737420616c72656164792070655f8201527f6e64696e67000000000000000000000000000000000000000000000000000000602082015250565b5f6141b760258361331a565b91506141c28261415d565b604082019050919050565b5f6020820190508181035f8301526141e4816141ab565b905091905056fea26469706673582212206d5ac2782fba8e17a73c05453465a5e37e8dc146edece2b74126a43e8369566364736f6c63430008150033",
  "immutableReferences": {},
  "source": "// SPDX-License-Identifier: MIT\npragma solidity ^0.8.0;\nimport \"./Identity.sol\";\n\n\ncontract Collab {\n    struct ProposedAgreement {\n        address creator;\n        string creatorName;\n        string deadline;\n        string terms;\n        string skillsRequired;\n        address potentialCollaborator;\n        string collaboratorName;\n        string potentialCollabSkills;\n    }\n\n    struct Collaboration {\n        address p1;\n        address p2;\n        string party1;\n        string party2;\n        string terms;\n        string skillsRequired;\n    }\n\n    address public IdentityContract;\n    Identity public Identities;\n\n    constructor(address _IdentityContract) {\n        IdentityContract = _IdentityContract;\n        Identities = Identity(IdentityContract);\n    }\n    \n    ProposedAgreement[] public proposedAgreements;\n    Collaboration[] public collaborations;\n\n    event AgreementProposed(uint256 indexed agreementId, address indexed creator, string terms, string skillsRequired);\n    event CollabRequestSent(uint256 indexed agreementId, address indexed potentialPartner);\n    event AgreementApproved(uint256 indexed agreementId, address indexed party2);\n\n    function proposeAgreement(string memory _terms, string memory _skillsRequired, string memory _deadline) public {\n        (string memory name,string memory collabEmail, string memory bio, string[] memory talents, uint256 tokens) = Identities.getUser(msg.sender);\n        proposedAgreements.push(ProposedAgreement(msg.sender,name,_deadline, _terms, _skillsRequired, address(0), \"\",\"\"));\n    }\n\n    function requestCollaboration(uint256 _agreementId, address user, string memory _skills) public {\n        (string memory collabName,string memory collabEmail, string memory bio, string[] memory talents, uint256 tokens) = Identities.getUser(msg.sender);\n        ProposedAgreement storage proposedAgreement = proposedAgreements[_agreementId];\n        require(proposedAgreement.creator != user, \"Cannot collaborate on your own agreement\");\n        require(proposedAgreement.potentialCollaborator == address(0), \"Collaboration request already pending\");\n        proposedAgreement.potentialCollaborator = user;\n        proposedAgreement.collaboratorName = collabName;\n        proposedAgreement.potentialCollabSkills = _skills;\n    }\n\n\n    function approveCollaborator(uint256 _agreementId) public {\n        ProposedAgreement storage proposedAgreement = proposedAgreements[_agreementId];\n        require(proposedAgreement.creator == msg.sender, \"Only the agreement creator can approve collaborators\");\n        require(proposedAgreement.potentialCollaborator != address(0), \"No pending collaboration request\");\n\n        Collaboration memory newCollaboration = Collaboration(proposedAgreement.creator, proposedAgreement.potentialCollaborator,proposedAgreement.creatorName, proposedAgreement.collaboratorName, proposedAgreement.terms, proposedAgreement.skillsRequired);\n        collaborations.push(newCollaboration);\n        \n        uint256 lastIndex = proposedAgreements.length - 1;\n        proposedAgreements[_agreementId] = proposedAgreements[lastIndex];\n        proposedAgreements.pop();\n    }\n\n    function getAllProposedAgreements() public view returns (ProposedAgreement[] memory) {\n        return proposedAgreements;\n    }\n\n    function getAllCollaborations() public view returns (Collaboration[] memory) {\n        return collaborations;\n    }\n    function getMyProposedAgreements() public view returns (ProposedAgreement[] memory) {\n        ProposedAgreement[] memory creatorAgreements = new ProposedAgreement[](proposedAgreements.length);\n        uint256 count = 0;\n        for (uint256 i = 0; i < proposedAgreements.length; i++) {\n            if (proposedAgreements[i].creator == msg.sender) {\n                creatorAgreements[count] = proposedAgreements[i];\n                count++;\n            }\n        }\n        ProposedAgreement[] memory filteredAgreements = new ProposedAgreement[](count);\n        for (uint256 i = 0; i < count; i++) {\n            filteredAgreements[i] = creatorAgreements[i];\n        }\n\n        return filteredAgreements;\n    }\n    function getMyCollaborations() public view returns (Collaboration[] memory) {\n        Collaboration[] memory userCollaborations = new Collaboration[](collaborations.length);\n        uint256 count = 0;\n        for (uint256 i = 0; i < collaborations.length; i++) {\n            if (collaborations[i].p1 == msg.sender || collaborations[i].p2 == msg.sender) {\n                userCollaborations[count] = collaborations[i];\n                count++;\n            }\n        }\n        Collaboration[] memory filteredCollaborations = new Collaboration[](count);\n        for (uint256 i = 0; i < count; i++) {\n            filteredCollaborations[i] = userCollaborations[i];\n        }\n\n        return filteredCollaborations;\n    }\n    function getPendingAgreements() public view returns (ProposedAgreement[] memory) {\n        ProposedAgreement[] memory pendingAgreements = new ProposedAgreement[](proposedAgreements.length);\n        uint256 count = 0;\n        for (uint256 i = 0; i < proposedAgreements.length; i++) {\n            if (proposedAgreements[i].creator == msg.sender && proposedAgreements[i].potentialCollaborator != address(0)) {\n                pendingAgreements[count] = proposedAgreements[i];\n                count++;\n            }\n        }\n        ProposedAgreement[] memory filteredAgreements2 = new ProposedAgreement[](count);\n        for (uint256 i = 0; i < count; i++) {\n            filteredAgreements2[i] = pendingAgreements[i];\n        }\n        return filteredAgreements2;\n    }\n}",
  "sourcePath": "/home/am/TRINIT_REDACTED_WEB3/truffle/contracts/Collab.sol",
  "compiler": {
    "name": "solc",
    "version": "0.8.21+commit.d9974bed.Emscripten.clang"
  },
  "schemaVersion": "3.4.16",
  "updatedAt": "2025-11-06T05:24:02.025Z",
  "networkType": "ethereum",
  "devdoc": {
    "kind": "dev",
    "methods": {},
    "version": 1
  },
  "userdoc": {
    "kind": "user",
    "methods": {},
    "version": 1
  }
}