{
  "contractName": "Collab",
  "abi": [
    {
      "inputs": [
        {
          "internalType": "address",
          "name": "_IdentityContract",
          "type": "address"
        }
      ],
      "stateMutability": "nonpayable",
      "type": "constructor"
    },
    {
      "anonymous": false,
      "inputs": [
        {
          "indexed": true,
          "internalType": "uint256",
          "name": "agreementId",
          "type": "uint256"
        },
        {
          "indexed": true,
          "internalType": "address",
          "name": "party2",
          "type": "address"
        }
      ],
      "name": "AgreementApproved",
      "type": "event"
    },
    {
      "anonymous": false,
      "inputs": [
        {
          "indexed": true,
          "internalType": "uint256",
          "name": "agreementId",
          "type": "uint256"
        },
        {
          "indexed": true,
          "internalType": "address",
          "name": "creator",
          "type": "address"
        },
        {
          "indexed": false,
          "internalType": "string",
          "name": "terms",
          "type": "string"
        },
        {
          "indexed": false,
          "internalType": "string",
          "name": "skillsRequired",
          "type": "string"
        }
      ],
      "name": "AgreementProposed",
      "type": "event"
    },
    {
      "anonymous": false,
      "inputs": [
        {
          "indexed": true,
          "internalType": "uint256",
          "name": "agreementId",
          "type": "uint256"
        },
        {
          "indexed": true,
          "internalType": "address",
          "name": "potentialPartner",
          "type": "address"
        }
      ],
      "name": "CollabRequestSent",
      "type": "event"
    },
    {
      "inputs": [],
      "name": "Identities",
      "outputs": [
        {
          "internalType": "contract Identity",
          "name": "",
          "type": "address"
        }
      ],
      "stateMutability": "view",
      "type": "function",
      "constant": true
    },
    {
      "inputs": [],
      "name": "IdentityContract",
      "outputs": [
        {
          "internalType": "address",
          "name": "",
          "type": "address"
        }
      ],
      "stateMutability": "view",
      "type": "function",
      "constant": true
    },
    {
      "inputs": [
        {
          "internalType": "uint256",
          "name": "",
          "type": "uint256"
        }
      ],
      "name": "collaborations",
      "outputs": [
        {
          "internalType": "address",
          "name": "p1",
          "type": "address"
        },
        {
          "internalType": "address",
          "name": "p2",
          "type": "address"
        },
        {
          "internalType": "string",
          "name": "party1",
          "type": "string"
        },
        {
          "internalType": "string",
          "name": "party2",
          "type": "string"
        },
        {
          "internalType": "string",
          "name": "terms",
          "type": "string"
        },
        {
          "internalType": "string",
          "name": "skillsRequired",
          "type": "string"
        }
      ],
      "stateMutability": "view",
      "type": "function",
      "constant": true
    },
    {
      "inputs": [
        {
          "internalType": "uint256",
          "name": "",
          "type": "uint256"
        }
      ],
      "name": "proposedAgreements",
      "outputs": [
        {
          "internalType": "address",
          "name": "creator",
          "type": "address"
        },
        {
          "internalType": "string",
          "name": "creatorName",
          "type": "string"
        },
        {
          "internalType": "string",
          "name": "deadline",
          "type": "string"
        },
        {
          "internalType": "string",
          "name": "terms",
          "type": "string"
        },
        {
          "internalType": "string",
          "name": "skillsRequired",
          "type": "string"
        },
        {
          "internalType": "address",
          "name": "potentialCollaborator",
          "type": "address"
        },
        {
          "internalType": "string",
          "name": "collaboratorName",
          "type": "string"
        },
        {
          "internalType": "string",
          "name": "potentialCollabSkills",
          "type": "string"
        }
      ],
      "stateMutability": "view",
      "type": "function",
      "constant": true
    },
    {
      "inputs": [
        {
          "internalType": "string",
          "name": "_terms",
          "type": "string"
        },
        {
          "internalType": "string",
          "name": "_skillsRequired",
          "type": "string"
        },
        {
          "internalType": "string",
          "name": "_deadline",
          "type": "string"
        }
      ],
      "name": "proposeAgreement",
      "outputs": [],
      "stateMutability": "nonpayable",
      "type": "function"
    },
    {
      "inputs": [
        {
          "internalType": "uint256",
          "name": "_agreementId",
          "type": "uint256"
        },
        {
          "internalType": "address",
          "name": "user",
          "type": "address"
        },
        {
          "internalType": "string",
          "name": "_skills",
          "type": "string"
        }
      ],
      "name": "requestCollaboration",
      "outputs": [],
      "stateMutability": "nonpayable",
      "type": "function"
    },
    {
      "inputs": [
        {
          "internalType": "uint256",
          "name": "_agreementId",
          "type": "uint256"
        }
      ],
      "name": "approveCollaborator",
      "outputs": [],
      "stateMutability": "nonpayable",
      "type": "function"
    },
    {
      "inputs": [],
      "name": "getAllProposedAgreements",
      "outputs": [
        {
          "components": [
            {
              "internalType": "address",
              "name": "creator",
              "type": "address"
            },
            {
              "internalType": "string",
              "name": "creatorName",
              "type": "string"
            },
            {
              "internalType": "string",
              "name": "deadline",
              "type": "string"
            },
            {
              "internalType": "string",
              "name": "terms",
              "type": "string"
            },
            {
              "internalType": "string",
              "name": "skillsRequired",
              "type": "string"
            },
            {
              "internalType": "address",
              "name": "potentialCollaborator",
              "type": "address"
            },
            {
              "internalType": "string",
              "name": "collaboratorName",
              "type": "string"
            },
            {
              "internalType": "string",
              "name": "potentialCollabSkills",
              "type": "string"
            }
          ],
          "internalType": "struct Collab.ProposedAgreement[]",
          "name": "",
          "type": "tuple[]"
        }
      ],
      "stateMutability": "view",
      "type": "function",
      "constant": true
    },
    {
      "inputs": [],
      "name": "getAllCollaborations",
      "outputs": [
        {
          "components": [
            {
              "internalType": "address",
              "name": "p1",
              "type": "address"
            },
            {
              "internalType": "address",
              "name": "p2",
              "type": "address"
            },
            {
              "internalType": "string",
              "name": "party1",
              "type": "string"
            },
            {
              "internalType": "string",
              "name": "party2",
              "type": "string"
            },
            {
              "internalType": "string",
              "name": "terms",
              "type": "string"
            },
            {
              "internalType": "string",
              "name": "skillsRequired",
              "type": "string"
            }
          ],
          "internalType": "struct Collab.Collaboration[]",
          "name": "",
          "type": "tuple[]"
        }
      ],
      "stateMutability": "view",
      "type": "function",
      "constant": true
    },
    {
      "inputs": [],
      "name": "getMyProposedAgreements",
      "outputs": [
        {
          "components": [
            {
              "internalType": "address",
              "name": "creator",
              "type": "address"
            },
            {
              "internalType": "string",
              "name": "creatorName",
              "type": "string"
            },
            {
              "internalType": "string",
              "name": "deadline",
              "type": "string"
            },
            {
              "internalType": "string",
              "name": "terms",
              "type": "string"
            },
            {
              "internalType": "string",
              "name": "skillsRequired",
              "type": "string"
            },
            {
              "internalType": "address",
              "name": "potentialCollaborator",
              "type": "address"
            },
            {
              "internalType": "string",
              "name": "collaboratorName",
              "type": "string"
            },
            {
              "internalType": "string",
              "name": "potentialCollabSkills",
              "type": "string"
            }
          ],
          "internalType": "struct Collab.ProposedAgreement[]",
          "name": "",
          "type": "tuple[]"
        }
      ],
      "stateMutability": "view",
      "type": "function",
      "constant": true
    },
    {
      "inputs": [],
      "name": "getMyCollaborations",
      "outputs": [
        {
          "components": [
            {
              "internalType": "address",
              "name": "p1",
              "type": "address"
            },
            {
              "internalType": "address",
              "name": "p2",
              "type": "address"
            },
            {
              "internalType": "string",
              "name": "party1",
              "type": "string"
            },
            {
              "internalType": "string",
              "name": "party2",
              "type": "string"
            },
            {
              "internalType": "string",
              "name": "terms",
              "type": "string"
            },
            {
              "internalType": "string",
              "name": "skillsRequired",
              "type": "string"
            }
          ],
          "internalType": "struct Collab.Collaboration[]",
          "name": "",
          "type": "tuple[]"
        }
      ],
      "stateMutability": "view",
      "type": "function",
      "constant": true
    },
    {
      "inputs": [],
      "name": "getPendingAgreements",
      "outputs": [
        {
          "components": [
            {
              "internalType": "address",
              "name": "creator",
              "type": "address"
            },
            {
              "internalType": "string",
              "name": "creatorName",
              "type": "string"
            },
            {
              "internalType": "string",
              "name": "deadline",
              "type": "string"
            },
            {
              "internalType": "string",
              "name": "terms",
              "type": "string"
            },
            {
              "internalType": "string",
              "name": "skillsRequired",
              "type": "string"
            },
            {
              "internalType": "address",
              "name": "potentialCollaborator",
              "type": "address"
            },
            {
              "internalType": "string",
              "name": "collaboratorName",
              "type": "string"
            },
            {
              "internalType": "string",
              "name": "potentialCollabSkills",
              "type": "string"
            }
          ],
          "internalType": "struct Collab.ProposedAgreement[]",
          "name": "",
          "type": "tuple[]"
        }
      ],
      "stateMutability": "view",
      "type": "function",
      "constant": true
    }
  ],
  "bytecode": "0x608060405234801562000010575f80fd5b506040516200424238038062004242833981810160405281019062000036919062000140565b805f806101000a81548173ffffffffffffffffffffffffffffffffffffffff021916908373ffffffffffffffffffffffffffffffffffffffff1602179055505f8054906101000a900473ffffffffffffffffffffffffffffffffffffffff1660015f6101000a81548173ffffffffffffffffffffffffffffffffffffffff021916908373ffffffffffffffffffffffffffffffffffffffff1602179055505062000170565b5f80fd5b5f73ffffffffffffffffffffffffffffffffffffffff82169050919050565b5f6200010a82620000df565b9050919050565b6200011c81620000fe565b811462000127575f80fd5b50565b5f815190506200013a8162000111565b92915050565b5f60208284031215620001585762000157620000db565b5b5f62000167848285016200012a565b91505092915050565b6140c4806200017e5f395ff3fe608060405234801561000f575f80fd5b50600436106100b2575f3560e01c8063cf0567ec1161006f578063cf0567ec1461017f578063d78f57941461019d578063ed3f09dd146101b9578063f32a927a146101d7578063fb6ccb18146101f5578063fc7fa8061461022c576100b2565b8063171600a3146100b65780632daab499146100d45780634b254f68146100f2578063a01dd86414610127578063a04b0ea014610145578063c5e01cf114610163575b5f80fd5b6100be610248565b6040516100cb9190613032565b60405180910390f35b6100dc61026b565b6040516100e9919061326f565b60405180910390f35b61010c600480360381019061010791906132d3565b6108f5565b60405161011e96959493929190613346565b60405180910390f35b61012f610b92565b60405161013c919061341c565b60405180910390f35b61014d610bb7565b60405161015a919061326f565b60405180910390f35b61017d600480360381019061017891906132d3565b61101d565b005b6101876117a9565b604051610194919061358b565b60405180910390f35b6101b760048036038101906101b291906136d7565b611aee565b005b6101c1611d4f565b6040516101ce919061358b565b60405180910390f35b6101df6122b6565b6040516101ec919061326f565b60405180910390f35b61020f600480360381019061020a91906132d3565b6128c5565b60405161022398979695949392919061377b565b60405180910390f35b6102466004803603810190610241919061384b565b612c7a565b005b5f8054906101000a900473ffffffffffffffffffffffffffffffffffffffff1681565b60605f60028054905067ffffffffffffffff81111561028d5761028c6135b3565b5b6040519080825280602002602001820160405280156102c657816020015b6102b3612ecc565b8152602001906001900390816102ab5790505b5090505f805b60028054905081101561083d573373ffffffffffffffffffffffffffffffffffffffff1660028281548110610304576103036138b7565b5b905f5260205f2090600802015f015f9054906101000a900473ffffffffffffffffffffffffffffffffffffffff1673ffffffffffffffffffffffffffffffffffffffff161480156103c357505f73ffffffffffffffffffffffffffffffffffffffff166002828154811061037b5761037a6138b7565b5b905f5260205f2090600802016005015f9054906101000a900473ffffffffffffffffffffffffffffffffffffffff1673ffffffffffffffffffffffffffffffffffffffff1614155b1561082a57600281815481106103dc576103db6138b7565b5b905f5260205f209060080201604051806101000160405290815f82015f9054906101000a900473ffffffffffffffffffffffffffffffffffffffff1673ffffffffffffffffffffffffffffffffffffffff1673ffffffffffffffffffffffffffffffffffffffff16815260200160018201805461045890613911565b80601f016020809104026020016040519081016040528092919081815260200182805461048490613911565b80156104cf5780601f106104a6576101008083540402835291602001916104cf565b820191905f5260205f20905b8154815290600101906020018083116104b257829003601f168201915b505050505081526020016002820180546104e890613911565b80601f016020809104026020016040519081016040528092919081815260200182805461051490613911565b801561055f5780601f106105365761010080835404028352916020019161055f565b820191905f5260205f20905b81548152906001019060200180831161054257829003601f168201915b5050505050815260200160038201805461057890613911565b80601f01602080910402602001604051908101604052809291908181526020018280546105a490613911565b80156105ef5780601f106105c6576101008083540402835291602001916105ef565b820191905f5260205f20905b8154815290600101906020018083116105d257829003601f168201915b5050505050815260200160048201805461060890613911565b80601f016020809104026020016040519081016040528092919081815260200182805461063490613911565b801561067f5780601f106106565761010080835404028352916020019161067f565b820191905f5260205f20905b81548152906001019060200180831161066257829003601f168201915b50505050508152602001600582015f9054906101000a900473ffffffffffffffffffffffffffffffffffffffff1673ffffffffffffffffffffffffffffffffffffffff1673ffffffffffffffffffffffffffffffffffffffff1681526020016006820180546106ed90613911565b80601f016020809104026020016040519081016040528092919081815260200182805461071990613911565b80156107645780601f1061073b57610100808354040283529160200191610764565b820191905f5260205f20905b81548152906001019060200180831161074757829003601f168201915b5050505050815260200160078201805461077d90613911565b80601f01602080910402602001604051908101604052809291908181526020018280546107a990613911565b80156107f45780601f106107cb576101008083540402835291602001916107f4565b820191905f5260205f20905b8154815290600101906020018083116107d757829003601f168201915b5050505050815250508383815181106108105761080f6138b7565b5b602002602001018190525081806108269061396e565b9250505b80806108359061396e565b9150506102cc565b505f8167ffffffffffffffff811115610859576108586135b3565b5b60405190808252806020026020018201604052801561089257816020015b61087f612ecc565b8152602001906001900390816108775790505b5090505f5b828110156108eb578381815181106108b2576108b16138b7565b5b60200260200101518282815181106108cd576108cc6138b7565b5b602002602001018190525080806108e39061396e565b915050610897565b5080935050505090565b60038181548110610904575f80fd5b905f5260205f2090600602015f91509050805f015f9054906101000a900473ffffffffffffffffffffffffffffffffffffffff1690806001015f9054906101000a900473ffffffffffffffffffffffffffffffffffffffff169080600201805461096d90613911565b80601f016020809104026020016040519081016040528092919081815260200182805461099990613911565b80156109e45780601f106109bb576101008083540402835291602001916109e4565b820191905f5260205f20905b8154815290600101906020018083116109c757829003601f168201915b5050505050908060030180546109f990613911565b80601f0160208091040260200160405190810160405280929190818152602001828054610a2590613911565b8015610a705780601f10610a4757610100808354040283529160200191610a70565b820191905f5260205f20905b815481529060010190602001808311610a5357829003601f168201915b505050505090806004018054610a8590613911565b80601f0160208091040260200160405190810160405280929190818152602001828054610ab190613911565b8015610afc5780601f10610ad357610100808354040283529160200191610afc565b820191905f5260205f20905b815481529060010190602001808311610adf57829003601f168201915b505050505090806005018054610b1190613911565b80601f0160208091040260200160405190810160405280929190818152602001828054610b3d90613911565b8015610b885780601f10610b5f57610100808354040283529160200191610b88565b820191905f5260205f20905b815481529060010190602001808311610b6b57829003601f168201915b5050505050905086565b60015f9054906101000a900473ffffffffffffffffffffffffffffffffffffffff1681565b60606002805480602002602001604051908101604052809291908181526020015f905b82821015611014578382905f5260205f209060080201604051806101000160405290815f82015f9054906101000a900473ffffffffffffffffffffffffffffffffffffffff1673ffffffffffffffffffffffffffffffffffffffff1673ffffffffffffffffffffffffffffffffffffffff168152602001600182018054610c6090613911565b80601f0160208091040260200160405190810160405280929190818152602001828054610c8c90613911565b8015610cd75780601f10610cae57610100808354040283529160200191610cd7565b820191905f5260205f20905b815481529060010190602001808311610cba57829003601f168201915b50505050508152602001600282018054610cf090613911565b80601f0160208091040260200160405190810160405280929190818152602001828054610d1c90613911565b8015610d675780601f10610d3e57610100808354040283529160200191610d67565b820191905f5260205f20905b815481529060010190602001808311610d4a57829003601f168201915b50505050508152602001600382018054610d8090613911565b80601f0160208091040260200160405190810160405280929190818152602001828054610dac90613911565b8015610df75780601f10610dce57610100808354040283529160200191610df7565b820191905f5260205f20905b815481529060010190602001808311610dda57829003601f168201915b50505050508152602001600482018054610e1090613911565b80601f0160208091040260200160405190810160405280929190818152602001828054610e3c90613911565b8015610e875780601f10610e5e57610100808354040283529160200191610e87565b820191905f5260205f20905b815481529060010190602001808311610e6a57829003601f168201915b50505050508152602001600582015f9054906101000a900473ffffffffffffffffffffffffffffffffffffffff1673ffffffffffffffffffffffffffffffffffffffff1673ffffffffffffffffffffffffffffffffffffffff168152602001600682018054610ef590613911565b80601f0160208091040260200160405190810160405280929190818152602001828054610f2190613911565b8015610f6c5780601f10610f4357610100808354040283529160200191610f6c565b820191905f5260205f20905b815481529060010190602001808311610f4f57829003601f168201915b50505050508152602001600782018054610f8590613911565b80601f0160208091040260200160405190810160405280929190818152602001828054610fb190613911565b8015610ffc5780601f10610fd357610100808354040283529160200191610ffc565b820191905f5260205f20905b815481529060010190602001808311610fdf57829003601f168201915b50505050508152505081526020019060010190610bda565b50505050905090565b5f60028281548110611032576110316138b7565b5b905f5260205f20906008020190503373ffffffffffffffffffffffffffffffffffffffff16815f015f9054906101000a900473ffffffffffffffffffffffffffffffffffffffff1673ffffffffffffffffffffffffffffffffffffffff16146110d0576040517f08c379a00000000000000000000000000000000000000000000000000000000081526004016110c790613a25565b60405180910390fd5b5f73ffffffffffffffffffffffffffffffffffffffff16816005015f9054906101000a900473ffffffffffffffffffffffffffffffffffffffff1673ffffffffffffffffffffffffffffffffffffffff1603611161576040517f08c379a000000000000000000000000000000000000000000000000000000000815260040161115890613a8d565b60405180910390fd5b5f6040518060c00160405280835f015f9054906101000a900473ffffffffffffffffffffffffffffffffffffffff1673ffffffffffffffffffffffffffffffffffffffff168152602001836005015f9054906101000a900473ffffffffffffffffffffffffffffffffffffffff1673ffffffffffffffffffffffffffffffffffffffff1681526020018360010180546111f990613911565b80601f016020809104026020016040519081016040528092919081815260200182805461122590613911565b80156112705780601f1061124757610100808354040283529160200191611270565b820191905f5260205f20905b81548152906001019060200180831161125357829003601f168201915b5050505050815260200183600601805461128990613911565b80601f01602080910402602001604051908101604052809291908181526020018280546112b590613911565b80156113005780601f106112d757610100808354040283529160200191611300565b820191905f5260205f20905b8154815290600101906020018083116112e357829003601f168201915b5050505050815260200183600301805461131990613911565b80601f016020809104026020016040519081016040528092919081815260200182805461134590613911565b80156113905780601f1061136757610100808354040283529160200191611390565b820191905f5260205f20905b81548152906001019060200180831161137357829003601f168201915b505050505081526020018360040180546113a990613911565b80601f01602080910402602001604051908101604052809291908181526020018280546113d590613911565b80156114205780601f106113f757610100808354040283529160200191611420565b820191905f5260205f20905b81548152906001019060200180831161140357829003601f168201915b50505050508152509050600381908060018154018082558091505060019003905f5260205f2090600602015f909190919091505f820151815f015f6101000a81548173ffffffffffffffffffffffffffffffffffffffff021916908373ffffffffffffffffffffffffffffffffffffffff1602179055506020820151816001015f6101000a81548173ffffffffffffffffffffffffffffffffffffffff021916908373ffffffffffffffffffffffffffffffffffffffff16021790555060408201518160020190816114f29190613c3f565b5060608201518160030190816115089190613c3f565b50608082015181600401908161151e9190613c3f565b5060a08201518160050190816115349190613c3f565b5050505f600160028054905061154a9190613d0e565b9050600281815481106115605761155f6138b7565b5b905f5260205f209060080201600285815481106115805761157f6138b7565b5b905f5260205f2090600802015f82015f9054906101000a900473ffffffffffffffffffffffffffffffffffffffff16815f015f6101000a81548173ffffffffffffffffffffffffffffffffffffffff021916908373ffffffffffffffffffffffffffffffffffffffff160217905550600182018160010190816116039190613d56565b50600282018160020190816116189190613d56565b506003820181600301908161162d9190613d56565b50600482018160040190816116429190613d56565b50600582015f9054906101000a900473ffffffffffffffffffffffffffffffffffffffff16816005015f6101000a81548173ffffffffffffffffffffffffffffffffffffffff021916908373ffffffffffffffffffffffffffffffffffffffff160217905550600682018160060190816116bc9190613d56565b50600782018160070190816116d19190613d56565b5090505060028054806116e7576116e6613e3b565b5b600190038181905f5260205f2090600802015f8082015f6101000a81549073ffffffffffffffffffffffffffffffffffffffff0219169055600182015f61172e9190612f3b565b600282015f61173d9190612f3b565b600382015f61174c9190612f3b565b600482015f61175b9190612f3b565b600582015f6101000a81549073ffffffffffffffffffffffffffffffffffffffff0219169055600682015f6117909190612f3b565b600782015f61179f9190612f3b565b5050905550505050565b60606003805480602002602001604051908101604052809291908181526020015f905b82821015611ae5578382905f5260205f2090600602016040518060c00160405290815f82015f9054906101000a900473ffffffffffffffffffffffffffffffffffffffff1673ffffffffffffffffffffffffffffffffffffffff1673ffffffffffffffffffffffffffffffffffffffff168152602001600182015f9054906101000a900473ffffffffffffffffffffffffffffffffffffffff1673ffffffffffffffffffffffffffffffffffffffff1673ffffffffffffffffffffffffffffffffffffffff1681526020016002820180546118a690613911565b80601f01602080910402602001604051908101604052809291908181526020018280546118d290613911565b801561191d5780601f106118f45761010080835404028352916020019161191d565b820191905f5260205f20905b81548152906001019060200180831161190057829003601f168201915b5050505050815260200160038201805461193690613911565b80601f016020809104026020016040519081016040528092919081815260200182805461196290613911565b80156119ad5780601f10611984576101008083540402835291602001916119ad565b820191905f5260205f20905b81548152906001019060200180831161199057829003601f168201915b505050505081526020016004820180546119c690613911565b80601f01602080910402602001604051908101604052809291908181526020018280546119f290613911565b8015611a3d5780601f10611a1457610100808354040283529160200191611a3d565b820191905f5260205f20905b815481529060010190602001808311611a2057829003601f168201915b50505050508152602001600582018054611a5690613911565b80601f0160208091040260200160405190810160405280929190818152602001828054611a8290613911565b8015611acd5780601f10611aa457610100808354040283529160200191611acd565b820191905f5260205f20905b815481529060010190602001808311611ab057829003601f168201915b505050505081525050815260200190600101906117cc565b50505050905090565b5f60015f9054906101000a900473ffffffffffffffffffffffffffffffffffffffff1673ffffffffffffffffffffffffffffffffffffffff16636f77926b336040518263ffffffff1660e01b8152600401611b499190613032565b5f60405180830381865afa158015611b63573d5f803e3d5ffd5b505050506040513d5f823e3d601f19601f82011682018060405250810190611b8b9190613eea565b5050905060026040518061010001604052803373ffffffffffffffffffffffffffffffffffffffff1681526020018381526020018481526020018681526020018581526020015f73ffffffffffffffffffffffffffffffffffffffff16815260200160405180602001604052805f815250815260200160405180602001604052805f815250815250908060018154018082558091505060019003905f5260205f2090600802015f909190919091505f820151815f015f6101000a81548173ffffffffffffffffffffffffffffffffffffffff021916908373ffffffffffffffffffffffffffffffffffffffff1602179055506020820151816001019081611c929190613c3f565b506040820151816002019081611ca89190613c3f565b506060820151816003019081611cbe9190613c3f565b506080820151816004019081611cd49190613c3f565b5060a0820151816005015f6101000a81548173ffffffffffffffffffffffffffffffffffffffff021916908373ffffffffffffffffffffffffffffffffffffffff16021790555060c0820151816006019081611d309190613c3f565b5060e0820151816007019081611d469190613c3f565b50505050505050565b60605f60038054905067ffffffffffffffff811115611d7157611d706135b3565b5b604051908082528060200260200182016040528015611daa57816020015b611d97612f78565b815260200190600190039081611d8f5790505b5090505f805b6003805490508110156121fe573373ffffffffffffffffffffffffffffffffffffffff1660038281548110611de857611de76138b7565b5b905f5260205f2090600602015f015f9054906101000a900473ffffffffffffffffffffffffffffffffffffffff1673ffffffffffffffffffffffffffffffffffffffff161480611ea557503373ffffffffffffffffffffffffffffffffffffffff1660038281548110611e5e57611e5d6138b7565b5b905f5260205f2090600602016001015f9054906101000a900473ffffffffffffffffffffffffffffffffffffffff1673ffffffffffffffffffffffffffffffffffffffff16145b156121eb5760038181548110611ebe57611ebd6138b7565b5b905f5260205f2090600602016040518060c00160405290815f82015f9054906101000a900473ffffffffffffffffffffffffffffffffffffffff1673ffffffffffffffffffffffffffffffffffffffff1673ffffffffffffffffffffffffffffffffffffffff168152602001600182015f9054906101000a900473ffffffffffffffffffffffffffffffffffffffff1673ffffffffffffffffffffffffffffffffffffffff1673ffffffffffffffffffffffffffffffffffffffff168152602001600282018054611f8e90613911565b80601f0160208091040260200160405190810160405280929190818152602001828054611fba90613911565b80156120055780601f10611fdc57610100808354040283529160200191612005565b820191905f5260205f20905b815481529060010190602001808311611fe857829003601f168201915b5050505050815260200160038201805461201e90613911565b80601f016020809104026020016040519081016040528092919081815260200182805461204a90613911565b80156120955780601f1061206c57610100808354040283529160200191612095565b820191905f5260205f20905b81548152906001019060200180831161207857829003601f168201915b505050505081526020016004820180546120ae90613911565b80601f01602080910402602001604051908101604052809291908181526020018280546120da90613911565b80156121255780601f106120fc57610100808354040283529160200191612125565b820191905f5260205f20905b81548152906001019060200180831161210857829003601f168201915b5050505050815260200160058201805461213e90613911565b80601f016020809104026020016040519081016040528092919081815260200182805461216a90613911565b80156121b55780601f1061218c576101008083540402835291602001916121b5565b820191905f5260205f20905b81548152906001019060200180831161219857829003601f168201915b5050505050815250508383815181106121d1576121d06138b7565b5b602002602001018190525081806121e79061396e565b9250505b80806121f69061396e565b915050611db0565b505f8167ffffffffffffffff81111561221a576122196135b3565b5b60405190808252806020026020018201604052801561225357816020015b612240612f78565b8152602001906001900390816122385790505b5090505f5b828110156122ac57838181518110612273576122726138b7565b5b602002602001015182828151811061228e5761228d6138b7565b5b602002602001018190525080806122a49061396e565b915050612258565b5080935050505090565b60605f60028054905067ffffffffffffffff8111156122d8576122d76135b3565b5b60405190808252806020026020018201604052801561231157816020015b6122fe612ecc565b8152602001906001900390816122f65790505b5090505f805b60028054905081101561280d573373ffffffffffffffffffffffffffffffffffffffff166002828154811061234f5761234e6138b7565b5b905f5260205f2090600802015f015f9054906101000a900473ffffffffffffffffffffffffffffffffffffffff1673ffffffffffffffffffffffffffffffffffffffff16036127fa57600281815481106123ac576123ab6138b7565b5b905f5260205f209060080201604051806101000160405290815f82015f9054906101000a900473ffffffffffffffffffffffffffffffffffffffff1673ffffffffffffffffffffffffffffffffffffffff1673ffffffffffffffffffffffffffffffffffffffff16815260200160018201805461242890613911565b80601f016020809104026020016040519081016040528092919081815260200182805461245490613911565b801561249f5780601f106124765761010080835404028352916020019161249f565b820191905f5260205f20905b81548152906001019060200180831161248257829003601f168201915b505050505081526020016002820180546124b890613911565b80601f01602080910402602001604051908101604052809291908181526020018280546124e490613911565b801561252f5780601f106125065761010080835404028352916020019161252f565b820191905f5260205f20905b81548152906001019060200180831161251257829003601f168201915b5050505050815260200160038201805461254890613911565b80601f016020809104026020016040519081016040528092919081815260200182805461257490613911565b80156125bf5780601f10612596576101008083540402835291602001916125bf565b820191905f5260205f20905b8154815290600101906020018083116125a257829003601f168201915b505050505081526020016004820180546125d890613911565b80601f016020809104026020016040519081016040528092919081815260200182805461260490613911565b801561264f5780601f106126265761010080835404028352916020019161264f565b820191905f5260205f20905b81548152906001019060200180831161263257829003601f168201915b50505050508152602001600582015f9054906101000a900473ffffffffffffffffffffffffffffffffffffffff1673ffffffffffffffffffffffffffffffffffffffff1673ffffffffffffffffffffffffffffffffffffffff1681526020016006820180546126bd90613911565b80601f01602080910402602001604051908101604052809291908181526020018280546126e990613911565b80156127345780601f1061270b57610100808354040283529160200191612734565b820191905f5260205f20905b81548152906001019060200180831161271757829003601f168201915b5050505050815260200160078201805461274d90613911565b80601f016020809104026020016040519081016040528092919081815260200182805461277990613911565b80156127c45780601f1061279b576101008083540402835291602001916127c4565b820191905f5260205f20905b8154815290600101906020018083116127a757829003601f168201915b5050505050815250508383815181106127e0576127df6138b7565b5b602002602001018190525081806127f69061396e565b9250505b80806128059061396e565b915050612317565b505f8167ffffffffffffffff811115612829576128286135b3565b5b60405190808252806020026020018201604052801561286257816020015b61284f612ecc565b8152602001906001900390816128475790505b5090505f5b828110156128bb57838181518110612882576128816138b7565b5b602002602001015182828151811061289d5761289c6138b7565b5b602002602001018190525080806128b39061396e565b915050612867565b5080935050505090565b600281815481106128d4575f80fd5b905f5260205f2090600802015f91509050805f015f9054906101000a900473ffffffffffffffffffffffffffffffffffffffff169080600101805461291890613911565b80601f016020809104026020016040519081016040528092919081815260200182805461294490613911565b801561298f5780601f106129665761010080835404028352916020019161298f565b820191905f5260205f20905b81548152906001019060200180831161297257829003601f168201915b5050505050908060020180546129a490613911565b80601f01602080910402602001604051908101604052809291908181526020018280546129d090613911565b8015612a1b5780601f106129f257610100808354040283529160200191612a1b565b820191905f5260205f20905b8154815290600101906020018083116129fe57829003601f168201915b505050505090806003018054612a3090613911565b80601f0160208091040260200160405190810160405280929190818152602001828054612a5c90613911565b8015612aa75780601f10612a7e57610100808354040283529160200191612aa7565b820191905f5260205f20905b815481529060010190602001808311612a8a57829003601f168201915b505050505090806004018054612abc90613911565b80601f0160208091040260200160405190810160405280929190818152602001828054612ae890613911565b8015612b335780601f10612b0a57610100808354040283529160200191612b33565b820191905f5260205f20905b815481529060010190602001808311612b1657829003601f168201915b505050505090806005015f9054906101000a900473ffffffffffffffffffffffffffffffffffffffff1690806006018054612b6d90613911565b80601f0160208091040260200160405190810160405280929190818152602001828054612b9990613911565b8015612be45780601f10612bbb57610100808354040283529160200191612be4565b820191905f5260205f20905b815481529060010190602001808311612bc757829003601f168201915b505050505090806007018054612bf990613911565b80601f0160208091040260200160405190810160405280929190818152602001828054612c2590613911565b8015612c705780601f10612c4757610100808354040283529160200191612c70565b820191905f5260205f20905b815481529060010190602001808311612c5357829003601f168201915b5050505050905088565b5f60015f9054906101000a900473ffffffffffffffffffffffffffffffffffffffff1673ffffffffffffffffffffffffffffffffffffffff16636f77926b336040518263ffffffff1660e01b8152600401612cd59190613032565b5f60405180830381865afa158015612cef573d5f803e3d5ffd5b505050506040513d5f823e3d601f19601f82011682018060405250810190612d179190613eea565b505090505f60028581548110612d3057612d2f6138b7565b5b905f5260205f20906008020190508373ffffffffffffffffffffffffffffffffffffffff16815f015f9054906101000a900473ffffffffffffffffffffffffffffffffffffffff1673ffffffffffffffffffffffffffffffffffffffff1603612dce576040517f08c379a0000000000000000000000000000000000000000000000000000000008152600401612dc590613fe2565b60405180910390fd5b5f73ffffffffffffffffffffffffffffffffffffffff16816005015f9054906101000a900473ffffffffffffffffffffffffffffffffffffffff1673ffffffffffffffffffffffffffffffffffffffff1614612e5f576040517f08c379a0000000000000000000000000000000000000000000000000000000008152600401612e5690614070565b60405180910390fd5b83816005015f6101000a81548173ffffffffffffffffffffffffffffffffffffffff021916908373ffffffffffffffffffffffffffffffffffffffff16021790555081816006019081612eb29190613c3f565b5082816007019081612ec49190613c3f565b505050505050565b6040518061010001604052805f73ffffffffffffffffffffffffffffffffffffffff168152602001606081526020016060815260200160608152602001606081526020015f73ffffffffffffffffffffffffffffffffffffffff16815260200160608152602001606081525090565b508054612f4790613911565b5f825580601f10612f585750612f75565b601f0160209004905f5260205f2090810190612f749190612fd8565b5b50565b6040518060c001604052805f73ffffffffffffffffffffffffffffffffffffffff1681526020015f73ffffffffffffffffffffffffffffffffffffffff168152602001606081526020016060815260200160608152602001606081525090565b5b80821115612fef575f815f905550600101612fd9565b5090565b5f73ffffffffffffffffffffffffffffffffffffffff82169050919050565b5f61301c82612ff3565b9050919050565b61302c81613012565b82525050565b5f6020820190506130455f830184613023565b92915050565b5f81519050919050565b5f82825260208201905092915050565b5f819050602082019050919050565b61307d81613012565b82525050565b5f81519050919050565b5f82825260208201905092915050565b5f5b838110156130ba57808201518184015260208101905061309f565b5f8484015250505050565b5f601f19601f8301169050919050565b5f6130df82613083565b6130e9818561308d565b93506130f981856020860161309d565b613102816130c5565b840191505092915050565b5f61010083015f8301516131235f860182613074565b506020830151848203602086015261313b82826130d5565b9150506040830151848203604086015261315582826130d5565b9150506060830151848203606086015261316f82826130d5565b9150506080830151848203608086015261318982826130d5565b91505060a083015161319e60a0860182613074565b5060c083015184820360c08601526131b682826130d5565b91505060e083015184820360e08601526131d082826130d5565b9150508091505092915050565b5f6131e8838361310d565b905092915050565b5f602082019050919050565b5f6132068261304b565b6132108185613055565b93508360208202850161322285613065565b805f5b8581101561325d578484038952815161323e85826131dd565b9450613249836131f0565b925060208a01995050600181019050613225565b50829750879550505050505092915050565b5f6020820190508181035f83015261328781846131fc565b905092915050565b5f604051905090565b5f80fd5b5f80fd5b5f819050919050565b6132b2816132a0565b81146132bc575f80fd5b50565b5f813590506132cd816132a9565b92915050565b5f602082840312156132e8576132e7613298565b5b5f6132f5848285016132bf565b91505092915050565b5f82825260208201905092915050565b5f61331882613083565b61332281856132fe565b935061333281856020860161309d565b61333b816130c5565b840191505092915050565b5f60c0820190506133595f830189613023565b6133666020830188613023565b8181036040830152613378818761330e565b9050818103606083015261338c818661330e565b905081810360808301526133a0818561330e565b905081810360a08301526133b4818461330e565b9050979650505050505050565b5f819050919050565b5f6133e46133df6133da84612ff3565b6133c1565b612ff3565b9050919050565b5f6133f5826133ca565b9050919050565b5f613406826133eb565b9050919050565b613416816133fc565b82525050565b5f60208201905061342f5f83018461340d565b92915050565b5f81519050919050565b5f82825260208201905092915050565b5f819050602082019050919050565b5f60c083015f8301516134735f860182613074565b5060208301516134866020860182613074565b506040830151848203604086015261349e82826130d5565b915050606083015184820360608601526134b882826130d5565b915050608083015184820360808601526134d282826130d5565b91505060a083015184820360a08601526134ec82826130d5565b9150508091505092915050565b5f613504838361345e565b905092915050565b5f602082019050919050565b5f61352282613435565b61352c818561343f565b93508360208202850161353e8561344f565b805f5b85811015613579578484038952815161355a85826134f9565b94506135658361350c565b925060208a01995050600181019050613541565b50829750879550505050505092915050565b5f6020820190508181035f8301526135a38184613518565b905092915050565b5f80fd5b5f80fd5b7f4e487b71000000000000000000000000000000000000000000000000000000005f52604160045260245ffd5b6135e9826130c5565b810181811067ffffffffffffffff82111715613608576136076135b3565b5b80604052505050565b5f61361a61328f565b905061362682826135e0565b919050565b5f67ffffffffffffffff821115613645576136446135b3565b5b61364e826130c5565b9050602081019050919050565b828183375f83830152505050565b5f61367b6136768461362b565b613611565b905082815260208101848484011115613697576136966135af565b5b6136a284828561365b565b509392505050565b5f82601f8301126136be576136bd6135ab565b5b81356136ce848260208601613669565b91505092915050565b5f805f606084860312156136ee576136ed613298565b5b5f84013567ffffffffffffffff81111561370b5761370a61329c565b5b613717868287016136aa565b935050602084013567ffffffffffffffff8111156137385761373761329c565b5b613744868287016136aa565b925050604084013567ffffffffffffffff8111156137655761376461329c565b5b613771868287016136aa565b9150509250925092565b5f6101008201905061378f5f83018b613023565b81810360208301526137a1818a61330e565b905081810360408301526137b5818961330e565b905081810360608301526137c9818861330e565b905081810360808301526137dd818761330e565b90506137ec60a0830186613023565b81810360c08301526137fe818561330e565b905081810360e0830152613812818461330e565b90509998505050505050505050565b61382a81613012565b8114613834575f80fd5b50565b5f8135905061384581613821565b92915050565b5f805f6060848603121561386257613861613298565b5b5f61386f868287016132bf565b935050602061388086828701613837565b925050604084013567ffffffffffffffff8111156138a1576138a061329c565b5b6138ad868287016136aa565b9150509250925092565b7f4e487b71000000000000000000000000000000000000000000000000000000005f52603260045260245ffd5b7f4e487b71000000000000000000000000000000000000000000000000000000005f52602260045260245ffd5b5f600282049050600182168061392857607f821691505b60208210810361393b5761393a6138e4565b5b50919050565b7f4e487b71000000000000000000000000000000000000000000000000000000005f52601160045260245ffd5b5f613978826132a0565b91507fffffffffffffffffffffffffffffffffffffffffffffffffffffffffffffffff82036139aa576139a9613941565b5b600182019050919050565b7f4f6e6c79207468652061677265656d656e742063726561746f722063616e20615f8201527f7070726f766520636f6c6c61626f7261746f7273000000000000000000000000602082015250565b5f613a0f6034836132fe565b9150613a1a826139b5565b604082019050919050565b5f6020820190508181035f830152613a3c81613a03565b9050919050565b7f4e6f2070656e64696e6720636f6c6c61626f726174696f6e20726571756573745f82015250565b5f613a776020836132fe565b9150613a8282613a43565b602082019050919050565b5f6020820190508181035f830152613aa481613a6b565b9050919050565b5f819050815f5260205f209050919050565b5f6020601f8301049050919050565b5f82821b905092915050565b5f60088302613b077fffffffffffffffffffffffffffffffffffffffffffffffffffffffffffffffff82613acc565b613b118683613acc565b95508019841693508086168417925050509392505050565b5f613b43613b3e613b39846132a0565b6133c1565b6132a0565b9050919050565b5f819050919050565b613b5c83613b29565b613b70613b6882613b4a565b848454613ad8565b825550505050565b5f90565b613b84613b78565b613b8f818484613b53565b505050565b5b81811015613bb257613ba75f82613b7c565b600181019050613b95565b5050565b601f821115613bf757613bc881613aab565b613bd184613abd565b81016020851015613be0578190505b613bf4613bec85613abd565b830182613b94565b50505b505050565b5f82821c905092915050565b5f613c175f1984600802613bfc565b1980831691505092915050565b5f613c2f8383613c08565b9150826002028217905092915050565b613c4882613083565b67ffffffffffffffff811115613c6157613c606135b3565b5b613c6b8254613911565b613c76828285613bb6565b5f60209050601f831160018114613ca7575f8415613c95578287015190505b613c9f8582613c24565b865550613d06565b601f198416613cb586613aab565b5f5b82811015613cdc57848901518255600182019150602085019450602081019050613cb7565b86831015613cf95784890151613cf5601f891682613c08565b8355505b6001600288020188555050505b505050505050565b5f613d18826132a0565b9150613d23836132a0565b9250828203905081811115613d3b57613d3a613941565b5b92915050565b5f81549050613d4f81613911565b9050919050565b818103613d64575050613e39565b613d6d82613d41565b67ffffffffffffffff811115613d8657613d856135b3565b5b613d908254613911565b613d9b828285613bb6565b5f601f831160018114613dc8575f8415613db6578287015490505b613dc08582613c24565b865550613e32565b601f198416613dd687613aab565b9650613de186613aab565b5f5b82811015613e0857848901548255600182019150600185019450602081019050613de3565b86831015613e255784890154613e21601f891682613c08565b8355505b6001600288020188555050505b5050505050505b565b7f4e487b71000000000000000000000000000000000000000000000000000000005f52603160045260245ffd5b5f613e7a613e758461362b565b613611565b905082815260208101848484011115613e9657613e956135af565b5b613ea184828561309d565b509392505050565b5f82601f830112613ebd57613ebc6135ab565b5b8151613ecd848260208601613e68565b91505092915050565b5f81519050613ee4816132a9565b92915050565b5f805f60608486031215613f0157613f00613298565b5b5f84015167ffffffffffffffff811115613f1e57613f1d61329c565b5b613f2a86828701613ea9565b935050602084015167ffffffffffffffff811115613f4b57613f4a61329c565b5b613f5786828701613ea9565b9250506040613f6886828701613ed6565b9150509250925092565b7f43616e6e6f7420636f6c6c61626f72617465206f6e20796f7572206f776e20615f8201527f677265656d656e74000000000000000000000000000000000000000000000000602082015250565b5f613fcc6028836132fe565b9150613fd782613f72565b604082019050919050565b5f6020820190508181035f830152613ff981613fc0565b9050919050565b7f436f6c6c61626f726174696f6e207265717565737420616c72656164792070655f8201527f6e64696e67000000000000000000000000000000000000000000000000000000602082015250565b5f61405a6025836132fe565b915061406582614000565b604082019050919050565b5f6020820190508181035f8301526140878161404e565b905091905056fea2646970667358221220d4a2198fa2a0ce66651b0c791935567133712217159cd6937f4c9215ea0d0f3964736f6c63430008150033",
  "immutableReferences": {},
  "source": "// SPDX-License-Identifier: MIT\npragma solidity ^0.8.0;\nimport \"./Identity.sol\";\n\n\ncontract Collab {\n    struct ProposedAgreement {\n        address creator;\n        string creatorName;\n        string deadline;\n        string terms;\n        string skillsRequired;\n        address potentialCollaborator;\n        string collaboratorName;\n        string potentialCollabSkills;\n    }\n\n    struct Collaboration {\n        address p1;\n        address p2;\n        string party1;\n        string party2;\n        string terms;\n        string skillsRequired;\n    }\n\n    address public IdentityContract;\n    Identity public Identities;\n\n    constructor(address _IdentityContract) {\n        IdentityContract = _IdentityContract;\n        Identities = Identity(IdentityContract);\n    }\n    \n    ProposedAgreement[] public proposedAgreements;\n    Collaboration[] public collaborations;\n\n    event AgreementProposed(uint256 indexed agreementId, address indexed creator, string terms, string skillsRequired);\n    event CollabRequestSent(uint256 indexed agreementId, address indexed potentialPartner);\n    event AgreementApproved(uint256 indexed agreementId, address indexed party2);\n\n    function proposeAgreement(string memory _terms, string memory _skillsRequired, string memory _deadline) public {\n        (string memory name,,) = Identities.getUser(msg.sender);\n        proposedAgreements.push(ProposedAgreement(msg.sender,name,_deadline, _terms, _skillsRequired, address(0), \"\",\"\"));\n    }\n\n    function requestCollaboration(uint256 _agreementId, address user, string memory _skills) public {\n        (string memory collabName,,) = Identities.getUser(msg.sender);\n        ProposedAgreement storage proposedAgreement = proposedAgreements[_agreementId];\n        require(proposedAgreement.creator != user, \"Cannot collaborate on your own agreement\");\n        require(proposedAgreement.potentialCollaborator == address(0), \"Collaboration request already pending\");\n        proposedAgreement.potentialCollaborator = user;\n        proposedAgreement.collaboratorName = collabName;\n        proposedAgreement.potentialCollabSkills = _skills;\n    }\n\n\n    function approveCollaborator(uint256 _agreementId) public {\n        ProposedAgreement storage proposedAgreement = proposedAgreements[_agreementId];\n        require(proposedAgreement.creator == msg.sender, \"Only the agreement creator can approve collaborators\");\n        require(proposedAgreement.potentialCollaborator != address(0), \"No pending collaboration request\");\n\n        Collaboration memory newCollaboration = Collaboration(proposedAgreement.creator, proposedAgreement.potentialCollaborator,proposedAgreement.creatorName, proposedAgreement.collaboratorName, proposedAgreement.terms, proposedAgreement.skillsRequired);\n        collaborations.push(newCollaboration);\n\n        // Swap with last element and delete last element\n        uint256 lastIndex = proposedAgreements.length - 1;\n        proposedAgreements[_agreementId] = proposedAgreements[lastIndex];\n        proposedAgreements.pop();\n    }\n\n    function getAllProposedAgreements() public view returns (ProposedAgreement[] memory) {\n        return proposedAgreements;\n    }\n\n    function getAllCollaborations() public view returns (Collaboration[] memory) {\n        return collaborations;\n    }\n    function getMyProposedAgreements() public view returns (ProposedAgreement[] memory) {\n        ProposedAgreement[] memory creatorAgreements = new ProposedAgreement[](proposedAgreements.length);\n        uint256 count = 0;\n        for (uint256 i = 0; i < proposedAgreements.length; i++) {\n            if (proposedAgreements[i].creator == msg.sender) {\n                creatorAgreements[count] = proposedAgreements[i];\n                count++;\n            }\n        }\n        ProposedAgreement[] memory filteredAgreements = new ProposedAgreement[](count);\n        for (uint256 i = 0; i < count; i++) {\n            filteredAgreements[i] = creatorAgreements[i];\n        }\n\n        return filteredAgreements;\n    }\n    function getMyCollaborations() public view returns (Collaboration[] memory) {\n        Collaboration[] memory userCollaborations = new Collaboration[](collaborations.length);\n        uint256 count = 0;\n        for (uint256 i = 0; i < collaborations.length; i++) {\n            if (collaborations[i].p1 == msg.sender || collaborations[i].p2 == msg.sender) {\n                userCollaborations[count] = collaborations[i];\n                count++;\n            }\n        }\n        Collaboration[] memory filteredCollaborations = new Collaboration[](count);\n        for (uint256 i = 0; i < count; i++) {\n            filteredCollaborations[i] = userCollaborations[i];\n        }\n\n        return filteredCollaborations;\n    }\n    function getPendingAgreements() public view returns (ProposedAgreement[] memory) {\n        ProposedAgreement[] memory pendingAgreements = new ProposedAgreement[](proposedAgreements.length);\n        uint256 count = 0;\n        for (uint256 i = 0; i < proposedAgreements.length; i++) {\n            if (proposedAgreements[i].creator == msg.sender && proposedAgreements[i].potentialCollaborator != address(0)) {\n                pendingAgreements[count] = proposedAgreements[i];\n                count++;\n            }\n        }\n        ProposedAgreement[] memory filteredAgreements2 = new ProposedAgreement[](count);\n        for (uint256 i = 0; i < count; i++) {\n            filteredAgreements2[i] = pendingAgreements[i];\n        }\n        return filteredAgreements2;\n    }\n}\n\n\n",
  "sourcePath": "/home/aaditkrishnaa/Documents/trinit/TRINIT_REDACTED_WEB3/truffle/contracts/Collab.sol",
  "compiler": {
    "name": "solc",
    "version": "0.8.21+commit.d9974bed.Emscripten.clang"
  },
  "schemaVersion": "3.4.16",
  "updatedAt": "2024-03-10T00:29:36.350Z",
  "networkType": "ethereum",
  "devdoc": {
    "kind": "dev",
    "methods": {},
    "version": 1
  },
  "userdoc": {
    "kind": "user",
    "methods": {},
    "version": 1
  }
}