{
  "contractName": "Feed",
  "abi": [
    {
      "inputs": [
        {
          "internalType": "address",
          "name": "_identityContract",
          "type": "address"
        }
      ],
      "stateMutability": "nonpayable",
      "type": "constructor"
    },
    {
      "anonymous": false,
      "inputs": [
        {
          "indexed": true,
          "internalType": "address",
          "name": "user",
          "type": "address"
        },
        {
          "indexed": false,
          "internalType": "string",
          "name": "cid",
          "type": "string"
        }
      ],
      "name": "CIDDeleted",
      "type": "event"
    },
    {
      "anonymous": false,
      "inputs": [
        {
          "indexed": true,
          "internalType": "address",
          "name": "user",
          "type": "address"
        },
        {
          "indexed": false,
          "internalType": "string",
          "name": "cid",
          "type": "string"
        },
        {
          "indexed": false,
          "internalType": "uint256",
          "name": "timestamp",
          "type": "uint256"
        }
      ],
      "name": "CIDUploaded",
      "type": "event"
    },
    {
      "inputs": [],
      "name": "identities",
      "outputs": [
        {
          "internalType": "contract Identity",
          "name": "",
          "type": "address"
        }
      ],
      "stateMutability": "view",
      "type": "function",
      "constant": true
    },
    {
      "inputs": [],
      "name": "identityContract",
      "outputs": [
        {
          "internalType": "address",
          "name": "",
          "type": "address"
        }
      ],
      "stateMutability": "view",
      "type": "function",
      "constant": true
    },
    {
      "inputs": [
        {
          "internalType": "string",
          "name": "_cid",
          "type": "string"
        },
        {
          "internalType": "string",
          "name": "_name",
          "type": "string"
        },
        {
          "internalType": "string",
          "name": "_description",
          "type": "string"
        }
      ],
      "name": "uploadCID",
      "outputs": [],
      "stateMutability": "nonpayable",
      "type": "function"
    },
    {
      "inputs": [
        {
          "internalType": "address",
          "name": "_user",
          "type": "address"
        }
      ],
      "name": "getUserCIDs",
      "outputs": [
        {
          "components": [
            {
              "internalType": "address",
              "name": "user",
              "type": "address"
            },
            {
              "internalType": "string",
              "name": "username",
              "type": "string"
            },
            {
              "internalType": "string",
              "name": "email",
              "type": "string"
            },
            {
              "internalType": "string[]",
              "name": "skills",
              "type": "string[]"
            },
            {
              "internalType": "string",
              "name": "cid",
              "type": "string"
            },
            {
              "internalType": "uint256",
              "name": "timestamp",
              "type": "uint256"
            },
            {
              "internalType": "string",
              "name": "name",
              "type": "string"
            },
            {
              "internalType": "string",
              "name": "description",
              "type": "string"
            }
          ],
          "internalType": "struct Feed.CIDInfo[]",
          "name": "",
          "type": "tuple[]"
        }
      ],
      "stateMutability": "view",
      "type": "function",
      "constant": true
    },
    {
      "inputs": [],
      "name": "getAllCIDS",
      "outputs": [
        {
          "components": [
            {
              "internalType": "address",
              "name": "user",
              "type": "address"
            },
            {
              "internalType": "string",
              "name": "username",
              "type": "string"
            },
            {
              "internalType": "string",
              "name": "email",
              "type": "string"
            },
            {
              "internalType": "string[]",
              "name": "skills",
              "type": "string[]"
            },
            {
              "internalType": "string",
              "name": "cid",
              "type": "string"
            },
            {
              "internalType": "uint256",
              "name": "timestamp",
              "type": "uint256"
            },
            {
              "internalType": "string",
              "name": "name",
              "type": "string"
            },
            {
              "internalType": "string",
              "name": "description",
              "type": "string"
            }
          ],
          "internalType": "struct Feed.CIDInfo[]",
          "name": "",
          "type": "tuple[]"
        }
      ],
      "stateMutability": "view",
      "type": "function",
      "constant": true
    },
    {
      "inputs": [
        {
          "internalType": "string",
          "name": "_cid",
          "type": "string"
        }
      ],
      "name": "deleteCID",
      "outputs": [],
      "stateMutability": "nonpayable",
      "type": "function"
    }
  ],
  "bytecode": "0x608060405234801562000010575f80fd5b506040516200218338038062002183833981810160405281019062000036919062000143565b8060015f6101000a81548173ffffffffffffffffffffffffffffffffffffffff021916908373ffffffffffffffffffffffffffffffffffffffff16021790555060015f9054906101000a900473ffffffffffffffffffffffffffffffffffffffff1660025f6101000a81548173ffffffffffffffffffffffffffffffffffffffff021916908373ffffffffffffffffffffffffffffffffffffffff1602179055505062000173565b5f80fd5b5f73ffffffffffffffffffffffffffffffffffffffff82169050919050565b5f6200010d82620000e2565b9050919050565b6200011f8162000101565b81146200012a575f80fd5b50565b5f815190506200013d8162000114565b92915050565b5f602082840312156200015b576200015a620000de565b5b5f6200016a848285016200012d565b91505092915050565b61200280620001815f395ff3fe608060405234801561000f575f80fd5b5060043610610060575f3560e01c80633918c69f146100645780635691e60f1461008057806367031bae1461009c578063858c5616146100ba578063de9f4248146100ea578063e54a4ee514610108575b5f80fd5b61007e600480360381019061007991906110db565b610126565b005b61009a60048036038101906100959190611122565b610364565b005b6100a4610488565b6040516100b19190611205565b60405180910390f35b6100d460048036038101906100cf9190611248565b6104ad565b6040516100e1919061155a565b60405180910390f35b6100f2610a51565b6040516100ff91906115d5565b60405180910390f35b610110610a76565b60405161011d919061155a565b60405180910390f35b5f805f3373ffffffffffffffffffffffffffffffffffffffff1673ffffffffffffffffffffffffffffffffffffffff1681526020019081526020015f2090505f5b818054905081101561035f57826040516020016101849190611628565b604051602081830303815290604052805190602001208282815481106101ad576101ac61163e565b5b905f5260205f2090600402015f016040516020016101cb919061175a565b604051602081830303815290604052805190602001200361034c573373ffffffffffffffffffffffffffffffffffffffff167f0b47d944b068e49ecac43415358a9144e0ea644fc7a4ff8028f1c9403ac692928383815481106102315761023061163e565b5b905f5260205f2090600402015f0160405161024c9190611801565b60405180910390a28160018380549050610266919061184e565b815481106102775761027661163e565b5b905f5260205f2090600402018282815481106102965761029561163e565b5b905f5260205f2090600402015f8201815f0190816102b49190611a18565b5060018201548160010155600282018160020190816102d39190611a18565b50600382018160030190816102e89190611a18565b50905050818054806102fd576102fc611afd565b5b600190038181905f5260205f2090600402015f8082015f61031e9190610edd565b600182015f9055600282015f6103349190610edd565b600382015f6103439190610edd565b5050905561035f565b808061035790611b2a565b915050610167565b505050565b5f803373ffffffffffffffffffffffffffffffffffffffff1673ffffffffffffffffffffffffffffffffffffffff1681526020019081526020015f20604051806080016040528085815260200142815260200184815260200183815250908060018154018082558091505060019003905f5260205f2090600402015f909190919091505f820151815f0190816103fa9190611b71565b5060208201518160010155604082015181600201908161041a9190611b71565b5060608201518160030190816104309190611b71565b5050503373ffffffffffffffffffffffffffffffffffffffff167fc5a624bbe081c974fab2531febdc5c0830223c20ff944e607bbf4806c7887780844260405161047b929190611c87565b60405180910390a2505050565b60015f9054906101000a900473ffffffffffffffffffffffffffffffffffffffff1681565b60605f805f8473ffffffffffffffffffffffffffffffffffffffff1673ffffffffffffffffffffffffffffffffffffffff1681526020019081526020015f20805480602002602001604051908101604052809291908181526020015f905b828210156106f4578382905f5260205f2090600402016040518060800160405290815f8201805461053b90611698565b80601f016020809104026020016040519081016040528092919081815260200182805461056790611698565b80156105b25780601f10610589576101008083540402835291602001916105b2565b820191905f5260205f20905b81548152906001019060200180831161059557829003601f168201915b50505050508152602001600182015481526020016002820180546105d590611698565b80601f016020809104026020016040519081016040528092919081815260200182805461060190611698565b801561064c5780601f106106235761010080835404028352916020019161064c565b820191905f5260205f20905b81548152906001019060200180831161062f57829003601f168201915b5050505050815260200160038201805461066590611698565b80601f016020809104026020016040519081016040528092919081815260200182805461069190611698565b80156106dc5780601f106106b3576101008083540402835291602001916106dc565b820191905f5260205f20905b8154815290600101906020018083116106bf57829003601f168201915b5050505050815250508152602001906001019061050b565b5050505090505f815167ffffffffffffffff81111561071657610715610fb7565b5b60405190808252806020026020018201604052801561074f57816020015b61073c610f1a565b8152602001906001900390816107345790505b5090505f5b8251811015610905575f805f805f60025f9054906101000a900473ffffffffffffffffffffffffffffffffffffffff1673ffffffffffffffffffffffffffffffffffffffff16636f77926b8b6040518263ffffffff1660e01b81526004016107bc9190611205565b5f60405180830381865afa1580156107d6573d5f803e3d5ffd5b505050506040513d5f823e3d601f19601f820116820180604052508101906107fe9190611e2f565b945094509450945094506040518061010001604052808b73ffffffffffffffffffffffffffffffffffffffff1681526020018681526020018581526020018381526020018988815181106108555761085461163e565b5b60200260200101515f015181526020018988815181106108785761087761163e565b5b602002602001015160200151815260200189888151811061089c5761089b61163e565b5b60200260200101516040015181526020018988815181106108c0576108bf61163e565b5b6020026020010151606001518152508787815181106108e2576108e161163e565b5b6020026020010181905250505050505080806108fd90611b2a565b915050610754565b505f5b60018251610916919061184e565b811015610a46575f5b600182845161092e919061184e565b610938919061184e565b811015610a32578260018261094d9190611f16565b8151811061095e5761095d61163e565b5b602002602001015160a0015183828151811061097d5761097c61163e565b5b602002602001015160a001511015610a1f575f8382815181106109a3576109a261163e565b5b60200260200101519050836001836109bb9190611f16565b815181106109cc576109cb61163e565b5b60200260200101518483815181106109e7576109e661163e565b5b60200260200101819052508084600184610a019190611f16565b81518110610a1257610a1161163e565b5b6020026020010181905250505b8080610a2a90611b2a565b91505061091f565b508080610a3e90611b2a565b915050610908565b508092505050919050565b60025f9054906101000a900473ffffffffffffffffffffffffffffffffffffffff1681565b60605f60025f9054906101000a900473ffffffffffffffffffffffffffffffffffffffff1673ffffffffffffffffffffffffffffffffffffffff16634bb86af06040518163ffffffff1660e01b8152600401602060405180830381865afa158015610ae3573d5f803e3d5ffd5b505050506040513d601f19601f82011682018060405250810190610b079190611f49565b90505f60605f5b83811015610c0e575f8060025f9054906101000a900473ffffffffffffffffffffffffffffffffffffffff1673ffffffffffffffffffffffffffffffffffffffff16639f4216e8846040518263ffffffff1660e01b8152600401610b729190611f74565b602060405180830381865afa158015610b8d573d5f803e3d5ffd5b505050506040513d601f19601f82011682018060405250810190610bb19190611fa1565b73ffffffffffffffffffffffffffffffffffffffff1673ffffffffffffffffffffffffffffffffffffffff1681526020019081526020015f208054905083610bf99190611f16565b92508080610c0690611b2a565b915050610b0e565b508167ffffffffffffffff811115610c2957610c28610fb7565b5b604051908082528060200260200182016040528015610c6257816020015b610c4f610f1a565b815260200190600190039081610c475790505b5090505f805b84811015610d93575f60025f9054906101000a900473ffffffffffffffffffffffffffffffffffffffff1673ffffffffffffffffffffffffffffffffffffffff16639f4216e8836040518263ffffffff1660e01b8152600401610ccb9190611f74565b602060405180830381865afa158015610ce6573d5f803e3d5ffd5b505050506040513d601f19601f82011682018060405250810190610d0a9190611fa1565b90505f610d16826104ad565b90505f5b8151811015610d7d57818181518110610d3657610d3561163e565b5b6020026020010151868681518110610d5157610d5061163e565b5b60200260200101819052508480610d6790611b2a565b9550508080610d7590611b2a565b915050610d1a565b5050508080610d8b90611b2a565b915050610c68565b505f5b600184610da3919061184e565b811015610ed2575f5b60018286610dba919061184e565b610dc4919061184e565b811015610ebe5783600182610dd99190611f16565b81518110610dea57610de961163e565b5b602002602001015160a00151848281518110610e0957610e0861163e565b5b602002602001015160a001511015610eab575f848281518110610e2f57610e2e61163e565b5b6020026020010151905084600183610e479190611f16565b81518110610e5857610e5761163e565b5b6020026020010151858381518110610e7357610e7261163e565b5b60200260200101819052508085600184610e8d9190611f16565b81518110610e9e57610e9d61163e565b5b6020026020010181905250505b8080610eb690611b2a565b915050610dac565b508080610eca90611b2a565b915050610d96565b508194505050505090565b508054610ee990611698565b5f825580601f10610efa5750610f17565b601f0160209004905f5260205f2090810190610f169190610f73565b5b50565b6040518061010001604052805f73ffffffffffffffffffffffffffffffffffffffff168152602001606081526020016060815260200160608152602001606081526020015f815260200160608152602001606081525090565b5b80821115610f8a575f815f905550600101610f74565b5090565b5f604051905090565b5f80fd5b5f80fd5b5f80fd5b5f80fd5b5f601f19601f8301169050919050565b7f4e487b71000000000000000000000000000000000000000000000000000000005f52604160045260245ffd5b610fed82610fa7565b810181811067ffffffffffffffff8211171561100c5761100b610fb7565b5b80604052505050565b5f61101e610f8e565b905061102a8282610fe4565b919050565b5f67ffffffffffffffff82111561104957611048610fb7565b5b61105282610fa7565b9050602081019050919050565b828183375f83830152505050565b5f61107f61107a8461102f565b611015565b90508281526020810184848401111561109b5761109a610fa3565b5b6110a684828561105f565b509392505050565b5f82601f8301126110c2576110c1610f9f565b5b81356110d284826020860161106d565b91505092915050565b5f602082840312156110f0576110ef610f97565b5b5f82013567ffffffffffffffff81111561110d5761110c610f9b565b5b611119848285016110ae565b91505092915050565b5f805f6060848603121561113957611138610f97565b5b5f84013567ffffffffffffffff81111561115657611155610f9b565b5b611162868287016110ae565b935050602084013567ffffffffffffffff81111561118357611182610f9b565b5b61118f868287016110ae565b925050604084013567ffffffffffffffff8111156111b0576111af610f9b565b5b6111bc868287016110ae565b9150509250925092565b5f73ffffffffffffffffffffffffffffffffffffffff82169050919050565b5f6111ef826111c6565b9050919050565b6111ff816111e5565b82525050565b5f6020820190506112185f8301846111f6565b92915050565b611227816111e5565b8114611231575f80fd5b50565b5f813590506112428161121e565b92915050565b5f6020828403121561125d5761125c610f97565b5b5f61126a84828501611234565b91505092915050565b5f81519050919050565b5f82825260208201905092915050565b5f819050602082019050919050565b6112a5816111e5565b82525050565b5f81519050919050565b5f82825260208201905092915050565b5f5b838110156112e25780820151818401526020810190506112c7565b5f8484015250505050565b5f6112f7826112ab565b61130181856112b5565b93506113118185602086016112c5565b61131a81610fa7565b840191505092915050565b5f81519050919050565b5f82825260208201905092915050565b5f819050602082019050919050565b5f61135983836112ed565b905092915050565b5f602082019050919050565b5f61137782611325565b611381818561132f565b9350836020820285016113938561133f565b805f5b858110156113ce57848403895281516113af858261134e565b94506113ba83611361565b925060208a01995050600181019050611396565b50829750879550505050505092915050565b5f819050919050565b6113f2816113e0565b82525050565b5f61010083015f83015161140e5f86018261129c565b506020830151848203602086015261142682826112ed565b9150506040830151848203604086015261144082826112ed565b9150506060830151848203606086015261145a828261136d565b9150506080830151848203608086015261147482826112ed565b91505060a083015161148960a08601826113e9565b5060c083015184820360c08601526114a182826112ed565b91505060e083015184820360e08601526114bb82826112ed565b9150508091505092915050565b5f6114d383836113f8565b905092915050565b5f602082019050919050565b5f6114f182611273565b6114fb818561127d565b93508360208202850161150d8561128d565b805f5b85811015611548578484038952815161152985826114c8565b9450611534836114db565b925060208a01995050600181019050611510565b50829750879550505050505092915050565b5f6020820190508181035f83015261157281846114e7565b905092915050565b5f819050919050565b5f61159d611598611593846111c6565b61157a565b6111c6565b9050919050565b5f6115ae82611583565b9050919050565b5f6115bf826115a4565b9050919050565b6115cf816115b5565b82525050565b5f6020820190506115e85f8301846115c6565b92915050565b5f81905092915050565b5f611602826112ab565b61160c81856115ee565b935061161c8185602086016112c5565b80840191505092915050565b5f61163382846115f8565b915081905092915050565b7f4e487b71000000000000000000000000000000000000000000000000000000005f52603260045260245ffd5b7f4e487b71000000000000000000000000000000000000000000000000000000005f52602260045260245ffd5b5f60028204905060018216806116af57607f821691505b6020821081036116c2576116c161166b565b5b50919050565b5f819050815f5260205f209050919050565b5f81546116e681611698565b6116f081866115ee565b9450600182165f811461170a576001811461171f57611751565b60ff1983168652811515820286019350611751565b611728856116c8565b5f5b838110156117495781548189015260018201915060208101905061172a565b838801955050505b50505092915050565b5f61176582846116da565b915081905092915050565b5f82825260208201905092915050565b5f815461178c81611698565b6117968186611770565b9450600182165f81146117b057600181146117c6576117f8565b60ff1983168652811515602002860193506117f8565b6117cf856116c8565b5f5b838110156117f0578154818901526001820191506020810190506117d1565b808801955050505b50505092915050565b5f6020820190508181035f8301526118198184611780565b905092915050565b7f4e487b71000000000000000000000000000000000000000000000000000000005f52601160045260245ffd5b5f611858826113e0565b9150611863836113e0565b925082820390508181111561187b5761187a611821565b5b92915050565b5f8154905061188f81611698565b9050919050565b5f6020601f8301049050919050565b5f82821b905092915050565b5f600883026118e07fffffffffffffffffffffffffffffffffffffffffffffffffffffffffffffffff826118a5565b6118ea86836118a5565b95508019841693508086168417925050509392505050565b5f61191c611917611912846113e0565b61157a565b6113e0565b9050919050565b5f819050919050565b61193583611902565b61194961194182611923565b8484546118b1565b825550505050565b5f90565b61195d611951565b61196881848461192c565b505050565b5b8181101561198b576119805f82611955565b60018101905061196e565b5050565b601f8211156119d0576119a1816116c8565b6119aa84611896565b810160208510156119b9578190505b6119cd6119c585611896565b83018261196d565b50505b505050565b5f82821c905092915050565b5f6119f05f19846008026119d5565b1980831691505092915050565b5f611a0883836119e1565b9150826002028217905092915050565b818103611a26575050611afb565b611a2f82611881565b67ffffffffffffffff811115611a4857611a47610fb7565b5b611a528254611698565b611a5d82828561198f565b5f601f831160018114611a8a575f8415611a78578287015490505b611a8285826119fd565b865550611af4565b601f198416611a98876116c8565b9650611aa3866116c8565b5f5b82811015611aca57848901548255600182019150600185019450602081019050611aa5565b86831015611ae75784890154611ae3601f8916826119e1565b8355505b6001600288020188555050505b5050505050505b565b7f4e487b71000000000000000000000000000000000000000000000000000000005f52603160045260245ffd5b5f611b34826113e0565b91507fffffffffffffffffffffffffffffffffffffffffffffffffffffffffffffffff8203611b6657611b65611821565b5b600182019050919050565b611b7a826112ab565b67ffffffffffffffff811115611b9357611b92610fb7565b5b611b9d8254611698565b611ba882828561198f565b5f60209050601f831160018114611bd9575f8415611bc7578287015190505b611bd185826119fd565b865550611c38565b601f198416611be7866116c8565b5f5b82811015611c0e57848901518255600182019150602085019450602081019050611be9565b86831015611c2b5784890151611c27601f8916826119e1565b8355505b6001600288020188555050505b505050505050565b5f611c4a826112ab565b611c548185611770565b9350611c648185602086016112c5565b611c6d81610fa7565b840191505092915050565b611c81816113e0565b82525050565b5f6040820190508181035f830152611c9f8185611c40565b9050611cae6020830184611c78565b9392505050565b5f611cc7611cc28461102f565b611015565b905082815260208101848484011115611ce357611ce2610fa3565b5b611cee8482856112c5565b509392505050565b5f82601f830112611d0a57611d09610f9f565b5b8151611d1a848260208601611cb5565b91505092915050565b5f67ffffffffffffffff821115611d3d57611d3c610fb7565b5b602082029050602081019050919050565b5f80fd5b5f611d64611d5f84611d23565b611015565b90508083825260208201905060208402830185811115611d8757611d86611d4e565b5b835b81811015611dce57805167ffffffffffffffff811115611dac57611dab610f9f565b5b808601611db98982611cf6565b85526020850194505050602081019050611d89565b5050509392505050565b5f82601f830112611dec57611deb610f9f565b5b8151611dfc848260208601611d52565b91505092915050565b611e0e816113e0565b8114611e18575f80fd5b50565b5f81519050611e2981611e05565b92915050565b5f805f805f60a08688031215611e4857611e47610f97565b5b5f86015167ffffffffffffffff811115611e6557611e64610f9b565b5b611e7188828901611cf6565b955050602086015167ffffffffffffffff811115611e9257611e91610f9b565b5b611e9e88828901611cf6565b945050604086015167ffffffffffffffff811115611ebf57611ebe610f9b565b5b611ecb88828901611cf6565b935050606086015167ffffffffffffffff811115611eec57611eeb610f9b565b5b611ef888828901611dd8565b9250506080611f0988828901611e1b565b9150509295509295909350565b5f611f20826113e0565b9150611f2b836113e0565b9250828201905080821115611f4357611f42611821565b5b92915050565b5f60208284031215611f5e57611f5d610f97565b5b5f611f6b84828501611e1b565b91505092915050565b5f602082019050611f875f830184611c78565b92915050565b5f81519050611f9b8161121e565b92915050565b5f60208284031215611fb657611fb5610f97565b5b5f611fc384828501611f8d565b9150509291505056fea26469706673582212202aff48bb9a2f59fe9807e7039bd72e747966b74fbfa56d2b4177aa2009b2ef4564736f6c63430008150033",
  "immutableReferences": {},
  "source": "// SPDX-License-Identifier: MIT\npragma solidity ^0.8.0;\nimport \"./Identity.sol\";\n\ncontract Feed {\n    struct CIDRecord {\n        string cid;\n        uint256 timestamp;\n        string name;\n        string description;\n    }\n\n    struct CIDInfo {\n        address user;\n        string username;\n        string email;\n        string[] skills;\n        string cid;\n        uint256 timestamp;\n        string name;\n        string description;\n    }\n\n    mapping(address => CIDRecord[]) private userCIDs;\n\n    event CIDUploaded(address indexed user, string cid, uint256 timestamp);\n    event CIDDeleted(address indexed user, string cid);\n\n    address public identityContract;\n    Identity public identities;\n\n    constructor(address _identityContract) {\n        identityContract = _identityContract;\n        identities = Identity(identityContract);\n    }\n\n    function uploadCID(\n        string memory _cid,\n        string memory _name,\n        string memory _description\n    ) external {\n        userCIDs[msg.sender].push(\n            CIDRecord({\n                cid: _cid,\n                timestamp: block.timestamp,\n                name: _name,\n                description: _description\n            })\n        );\n        emit CIDUploaded(msg.sender, _cid, block.timestamp);\n    }\n\n    function getUserCIDs(\n        address _user\n    ) public view returns (CIDInfo[] memory) {\n        CIDRecord[] memory cidsArray = userCIDs[_user];\n        CIDInfo[] memory result = new CIDInfo[](cidsArray.length);\n\n        for (uint256 i = 0; i < cidsArray.length; i++) {\n            (\n                string memory name,\n                string memory email,\n                string memory bio,\n                string[] memory skills,\n                uint256 tokens\n            ) = identities.getUser(_user);\n\n            result[i] = CIDInfo({\n                user: _user,\n                username: name,\n                email: email,\n                skills: skills,\n                cid: cidsArray[i].cid,\n                timestamp: cidsArray[i].timestamp,\n                name: cidsArray[i].name,\n                description: cidsArray[i].description\n            });\n        }\n\n        for (uint256 i = 0; i < result.length - 1; i++) {\n            for (uint256 j = 0; j < result.length - i - 1; j++) {\n                if (result[j].timestamp < result[j + 1].timestamp) {\n                    CIDInfo memory temp = result[j];\n                    result[j] = result[j + 1];\n                    result[j + 1] = temp;\n                }\n            }\n        }\n\n        return result;\n    }\n\n    function getAllCIDS() public view returns (CIDInfo[] memory) {\n        uint256 totalUsers = identities.totalUserCount();\n        uint256 totalCIDs = 0;\n        CIDInfo[] memory allCIDs;\n\n        for (uint256 i = 0; i < totalUsers; i++) {\n            totalCIDs += userCIDs[identities.userList(i)].length;\n        }\n\n        allCIDs = new CIDInfo[](totalCIDs);\n        uint256 currentIndex = 0;\n\n        for (uint256 i = 0; i < totalUsers; i++) {\n            address currAddd = identities.userList(i);\n            CIDInfo[] memory userCIDsArray = getUserCIDs(currAddd);\n\n            for (uint256 j = 0; j < userCIDsArray.length; j++) {\n                allCIDs[currentIndex] = userCIDsArray[j];\n                currentIndex++;\n            }\n        }\n\n        // Perform bubble sort based on timestamp in descending order\n        for (uint256 i = 0; i < totalCIDs - 1; i++) {\n            for (uint256 j = 0; j < totalCIDs - i - 1; j++) {\n                if (allCIDs[j].timestamp < allCIDs[j + 1].timestamp) {\n                    CIDInfo memory temp = allCIDs[j];\n                    allCIDs[j] = allCIDs[j + 1];\n                    allCIDs[j + 1] = temp;\n                }\n            }\n        }\n\n        return allCIDs;\n    }\n    function deleteCID(string memory _cid) external {\n        CIDRecord[] storage cidsArray = userCIDs[msg.sender];\n\n        for (uint256 i = 0; i < cidsArray.length; i++) {\n            if (\n                keccak256(abi.encodePacked(cidsArray[i].cid)) ==\n                keccak256(abi.encodePacked(_cid))\n            ) {\n                emit CIDDeleted(msg.sender, cidsArray[i].cid);\n                cidsArray[i] = cidsArray[cidsArray.length - 1];\n                cidsArray.pop();\n                break;\n            }\n        }\n    }\n}",
  "sourcePath": "/home/am/TRINIT_REDACTED_WEB3/truffle/contracts/Feed.sol",
  "compiler": {
    "name": "solc",
    "version": "0.8.21+commit.d9974bed.Emscripten.clang"
  },
  "schemaVersion": "3.4.16",
  "updatedAt": "2025-11-06T05:24:02.055Z",
  "networkType": "ethereum",
  "devdoc": {
    "kind": "dev",
    "methods": {},
    "version": 1
  },
  "userdoc": {
    "kind": "user",
    "methods": {},
    "version": 1
  }
}