{
  "contractName": "Identity",
  "abi": [
    {
      "inputs": [
        {
          "internalType": "address",
          "name": "",
          "type": "address"
        }
      ],
      "name": "users",
      "outputs": [
        {
          "internalType": "string",
          "name": "name",
          "type": "string"
        },
        {
          "internalType": "string",
          "name": "email",
          "type": "string"
        }
      ],
      "stateMutability": "view",
      "type": "function",
      "constant": true
    },
    {
      "inputs": [
        {
          "internalType": "string",
          "name": "_name",
          "type": "string"
        },
        {
          "internalType": "string",
          "name": "_email",
          "type": "string"
        }
      ],
      "name": "setUser",
      "outputs": [],
      "stateMutability": "nonpayable",
      "type": "function"
    },
    {
      "inputs": [
        {
          "internalType": "address",
          "name": "_user",
          "type": "address"
        }
      ],
      "name": "getUser",
      "outputs": [
        {
          "internalType": "string",
          "name": "",
          "type": "string"
        },
        {
          "internalType": "string",
          "name": "",
          "type": "string"
        }
      ],
      "stateMutability": "view",
      "type": "function",
      "constant": true
    }
  ],
  "bytecode": "0x608060405234801561000f575f80fd5b506109b98061001d5f395ff3fe608060405234801561000f575f80fd5b506004361061003f575f3560e01c80635728b973146100435780636f77926b1461005f578063a87430ba14610090575b5f80fd5b61005d60048036038101906100589190610507565b6100c1565b005b610079600480360381019061007491906105d7565b610128565b60405161008792919061067c565b60405180910390f35b6100aa60048036038101906100a591906105d7565b61028f565b6040516100b892919061067c565b60405180910390f35b5f805f3373ffffffffffffffffffffffffffffffffffffffff1673ffffffffffffffffffffffffffffffffffffffff1681526020019081526020015f20905082815f01908161011091906108b4565b508181600101908161012291906108b4565b50505050565b6060805f805f8573ffffffffffffffffffffffffffffffffffffffff1673ffffffffffffffffffffffffffffffffffffffff1681526020019081526020015f209050805f018160010181805461017d906106de565b80601f01602080910402602001604051908101604052809291908181526020018280546101a9906106de565b80156101f45780601f106101cb576101008083540402835291602001916101f4565b820191905f5260205f20905b8154815290600101906020018083116101d757829003601f168201915b50505050509150808054610207906106de565b80601f0160208091040260200160405190810160405280929190818152602001828054610233906106de565b801561027e5780601f106102555761010080835404028352916020019161027e565b820191905f5260205f20905b81548152906001019060200180831161026157829003601f168201915b505050505090509250925050915091565b5f602052805f5260405f205f91509050805f0180546102ad906106de565b80601f01602080910402602001604051908101604052809291908181526020018280546102d9906106de565b80156103245780601f106102fb57610100808354040283529160200191610324565b820191905f5260205f20905b81548152906001019060200180831161030757829003601f168201915b505050505090806001018054610339906106de565b80601f0160208091040260200160405190810160405280929190818152602001828054610365906106de565b80156103b05780601f10610387576101008083540402835291602001916103b0565b820191905f5260205f20905b81548152906001019060200180831161039357829003601f168201915b5050505050905082565b5f604051905090565b5f80fd5b5f80fd5b5f80fd5b5f80fd5b5f601f19601f8301169050919050565b7f4e487b71000000000000000000000000000000000000000000000000000000005f52604160045260245ffd5b610419826103d3565b810181811067ffffffffffffffff82111715610438576104376103e3565b5b80604052505050565b5f61044a6103ba565b90506104568282610410565b919050565b5f67ffffffffffffffff821115610475576104746103e3565b5b61047e826103d3565b9050602081019050919050565b828183375f83830152505050565b5f6104ab6104a68461045b565b610441565b9050828152602081018484840111156104c7576104c66103cf565b5b6104d284828561048b565b509392505050565b5f82601f8301126104ee576104ed6103cb565b5b81356104fe848260208601610499565b91505092915050565b5f806040838503121561051d5761051c6103c3565b5b5f83013567ffffffffffffffff81111561053a576105396103c7565b5b610546858286016104da565b925050602083013567ffffffffffffffff811115610567576105666103c7565b5b610573858286016104da565b9150509250929050565b5f73ffffffffffffffffffffffffffffffffffffffff82169050919050565b5f6105a68261057d565b9050919050565b6105b68161059c565b81146105c0575f80fd5b50565b5f813590506105d1816105ad565b92915050565b5f602082840312156105ec576105eb6103c3565b5b5f6105f9848285016105c3565b91505092915050565b5f81519050919050565b5f82825260208201905092915050565b5f5b8381101561063957808201518184015260208101905061061e565b5f8484015250505050565b5f61064e82610602565b610658818561060c565b935061066881856020860161061c565b610671816103d3565b840191505092915050565b5f6040820190508181035f8301526106948185610644565b905081810360208301526106a88184610644565b90509392505050565b7f4e487b71000000000000000000000000000000000000000000000000000000005f52602260045260245ffd5b5f60028204905060018216806106f557607f821691505b602082108103610708576107076106b1565b5b50919050565b5f819050815f5260205f209050919050565b5f6020601f8301049050919050565b5f82821b905092915050565b5f6008830261076a7fffffffffffffffffffffffffffffffffffffffffffffffffffffffffffffffff8261072f565b610774868361072f565b95508019841693508086168417925050509392505050565b5f819050919050565b5f819050919050565b5f6107b86107b36107ae8461078c565b610795565b61078c565b9050919050565b5f819050919050565b6107d18361079e565b6107e56107dd826107bf565b84845461073b565b825550505050565b5f90565b6107f96107ed565b6108048184846107c8565b505050565b5b818110156108275761081c5f826107f1565b60018101905061080a565b5050565b601f82111561086c5761083d8161070e565b61084684610720565b81016020851015610855578190505b61086961086185610720565b830182610809565b50505b505050565b5f82821c905092915050565b5f61088c5f1984600802610871565b1980831691505092915050565b5f6108a4838361087d565b9150826002028217905092915050565b6108bd82610602565b67ffffffffffffffff8111156108d6576108d56103e3565b5b6108e082546106de565b6108eb82828561082b565b5f60209050601f83116001811461091c575f841561090a578287015190505b6109148582610899565b86555061097b565b601f19841661092a8661070e565b5f5b828110156109515784890151825560018201915060208501945060208101905061092c565b8683101561096e578489015161096a601f89168261087d565b8355505b6001600288020188555050505b50505050505056fea2646970667358221220dc7d4afc62f776d4840e7f0f0313ac67a861f6bf1b4ca70ebff51e7dcc3a74fa64736f6c63430008150033",
  "immutableReferences": {},
  "source": "// SPDX-License-Identifier: MIT\npragma solidity ^0.8.0;\n\ncontract Identity {\n    struct UserInfo {\n        string name;\n        string email;\n    }\n\n    mapping(address => UserInfo) public users;\n\n    function setUser(string memory _name, string memory _email) public {\n        UserInfo storage user = users[msg.sender];\n        user.name = _name;\n        user.email = _email;\n    }\n\n    function getUser(address _user) public view returns (string memory, string memory) {\n        UserInfo storage user = users[_user];\n        return (user.name, user.email);\n    }\n}",
  "sourcePath": "/home/aaditkrishnaa/Documents/trinit/TRINIT_REDACTED_WEB3/truffle/contracts/Identity.sol",
  "compiler": {
    "name": "solc",
    "version": "0.8.21+commit.d9974bed.Emscripten.clang"
  },
  "schemaVersion": "3.4.16",
  "updatedAt": "2024-03-09T16:32:14.588Z",
  "networkType": "ethereum",
  "devdoc": {
    "kind": "dev",
    "methods": {},
    "version": 1
  },
  "userdoc": {
    "kind": "user",
    "methods": {},
    "version": 1
  }
}