{
  "contractName": "Identity",
  "abi": [
    {
      "inputs": [
        {
          "internalType": "address",
          "name": "_tokenContract",
          "type": "address"
        }
      ],
      "stateMutability": "nonpayable",
      "type": "constructor"
    },
    {
      "inputs": [
        {
          "internalType": "uint256",
          "name": "",
          "type": "uint256"
        }
      ],
      "name": "allowedTalents",
      "outputs": [
        {
          "internalType": "string",
          "name": "",
          "type": "string"
        }
      ],
      "stateMutability": "view",
      "type": "function",
      "constant": true
    },
    {
      "inputs": [],
      "name": "tokenContract",
      "outputs": [
        {
          "internalType": "address",
          "name": "",
          "type": "address"
        }
      ],
      "stateMutability": "view",
      "type": "function",
      "constant": true
    },
    {
      "inputs": [],
      "name": "tokens",
      "outputs": [
        {
          "internalType": "contract Token",
          "name": "",
          "type": "address"
        }
      ],
      "stateMutability": "view",
      "type": "function",
      "constant": true
    },
    {
      "inputs": [],
      "name": "totalUserCount",
      "outputs": [
        {
          "internalType": "uint256",
          "name": "",
          "type": "uint256"
        }
      ],
      "stateMutability": "view",
      "type": "function",
      "constant": true
    },
    {
      "inputs": [
        {
          "internalType": "uint256",
          "name": "",
          "type": "uint256"
        }
      ],
      "name": "userList",
      "outputs": [
        {
          "internalType": "address",
          "name": "",
          "type": "address"
        }
      ],
      "stateMutability": "view",
      "type": "function",
      "constant": true
    },
    {
      "inputs": [
        {
          "internalType": "address",
          "name": "",
          "type": "address"
        }
      ],
      "name": "users",
      "outputs": [
        {
          "internalType": "string",
          "name": "name",
          "type": "string"
        },
        {
          "internalType": "string",
          "name": "email",
          "type": "string"
        },
        {
          "internalType": "string",
          "name": "bio",
          "type": "string"
        }
      ],
      "stateMutability": "view",
      "type": "function",
      "constant": true
    },
    {
      "inputs": [
        {
          "internalType": "string",
          "name": "_name",
          "type": "string"
        },
        {
          "internalType": "string",
          "name": "_email",
          "type": "string"
        },
        {
          "internalType": "string",
          "name": "_bio",
          "type": "string"
        },
        {
          "internalType": "string[]",
          "name": "_talents",
          "type": "string[]"
        }
      ],
      "name": "setUser",
      "outputs": [],
      "stateMutability": "nonpayable",
      "type": "function"
    },
    {
      "inputs": [],
      "name": "getAllowedTalents",
      "outputs": [
        {
          "internalType": "string[]",
          "name": "",
          "type": "string[]"
        }
      ],
      "stateMutability": "view",
      "type": "function",
      "constant": true
    },
    {
      "inputs": [
        {
          "internalType": "address",
          "name": "_user",
          "type": "address"
        }
      ],
      "name": "getUser",
      "outputs": [
        {
          "internalType": "string",
          "name": "",
          "type": "string"
        },
        {
          "internalType": "string",
          "name": "",
          "type": "string"
        },
        {
          "internalType": "string",
          "name": "",
          "type": "string"
        },
        {
          "internalType": "string[]",
          "name": "",
          "type": "string[]"
        },
        {
          "internalType": "uint256",
          "name": "",
          "type": "uint256"
        }
      ],
      "stateMutability": "view",
      "type": "function",
      "constant": true
    }
  ],
  "bytecode": "0x60806040526040518061088001604052806040518060400160405280600e81526020017f477261706869632044657369676e00000000000000000000000000000000000081525081526020016040518060400160405280601481526020017f536f66747761726520446576656c6f706d656e7400000000000000000000000081525081526020016040518060400160405280600f81526020017f57656220446576656c6f706d656e74000000000000000000000000000000000081525081526020016040518060400160405280600c81526020017f4461746120536369656e6365000000000000000000000000000000000000000081525081526020016040518060400160405280601181526020017f4d7573696320436f6d706f736974696f6e00000000000000000000000000000081525081526020016040518060400160405280600981526020017f4d61726b6574696e67000000000000000000000000000000000000000000000081525081526020016040518060400160405280600f81526020017f436f6e74656e742057726974696e67000000000000000000000000000000000081525081526020016040518060400160405280601081526020017f566964656f2050726f64756374696f6e0000000000000000000000000000000081525081526020016040518060400160405280600b81526020017f50686f746f67726170687900000000000000000000000000000000000000000081525081526020016040518060400160405280600581526020017f53616c657300000000000000000000000000000000000000000000000000000081525081526020016040518060400160405280601281526020017f50726f6a656374204d616e6167656d656e74000000000000000000000000000081525081526020016040518060400160405280600581526020017f44616e636500000000000000000000000000000000000000000000000000000081525081526020016040518060400160405280600481526020017f596f67610000000000000000000000000000000000000000000000000000000081525081526020016040518060400160405280600881526020017f5465616368696e6700000000000000000000000000000000000000000000000081525081526020016040518060400160405280600b81526020017f576f6f64776f726b696e6700000000000000000000000000000000000000000081525081526020016040518060400160405280600981526020017f4e7574726974696f6e000000000000000000000000000000000000000000000081525081526020016040518060400160405280601181526020017f506572736f6e616c20547261696e696e6700000000000000000000000000000081525081526020016040518060400160405280600681526020017f416374696e67000000000000000000000000000000000000000000000000000081525081526020016040518060400160405280600e81526020017f46617368696f6e2044657369676e00000000000000000000000000000000000081525081526020016040518060400160405280600d81526020017f437962657273656375726974790000000000000000000000000000000000000081525081526020016040518060400160405280600981526020017f416e696d6174696f6e000000000000000000000000000000000000000000000081525081526020016040518060400160405280600c81526020017f496c6c757374726174696f6e000000000000000000000000000000000000000081525081526020016040518060400160405280600c81526020017f55492f55582044657369676e000000000000000000000000000000000000000081525081526020016040518060400160405280601681526020017f426c6f636b636861696e20446576656c6f706d656e740000000000000000000081525081526020016040518060400160405280601081526020017f47616d6520446576656c6f706d656e740000000000000000000000000000000081525081526020016040518060400160405280600b81526020017f436f707977726974696e6700000000000000000000000000000000000000000081525081526020016040518060400160405280600381526020017f53454f000000000000000000000000000000000000000000000000000000000081525081526020016040518060400160405280601781526020017f536f6369616c204d65646961204d616e6167656d656e7400000000000000000081525081526020016040518060400160405280600e81526020017f4576656e7420506c616e6e696e6700000000000000000000000000000000000081525081526020016040518060400160405280600a81526020017f4163636f756e74696e670000000000000000000000000000000000000000000081525081526020016040518060400160405280600e81526020017f4c6567616c20536572766963657300000000000000000000000000000000000081525081526020016040518060400160405280600f81526020017f496e746572696f722044657369676e000000000000000000000000000000000081525081526020016040518060400160405280600c81526020017f417263686974656374757265000000000000000000000000000000000000000081525081526020016040518060400160405280600981526020017f47617264656e696e67000000000000000000000000000000000000000000000081525081526020016040518060400160405280600d81526020017f43756c696e61727920417274730000000000000000000000000000000000000081525081526020016040518060400160405280600f81526020017f4d616b657570204172746973747279000000000000000000000000000000000081525081526020016040518060400160405280601681526020017f4d6f62696c652041707020446576656c6f706d656e740000000000000000000081525081526020016040518060400160405280600881526020017f526f626f7469637300000000000000000000000000000000000000000000000081525081526020016040518060400160405280600f81526020017f5669727475616c205265616c697479000000000000000000000000000000000081525081526020016040518060400160405280601181526020017f4175676d656e746564205265616c69747900000000000000000000000000000081525081526020016040518060400160405280601681526020017f43727970746f63757272656e63792054726164696e670000000000000000000081525081526020016040518060400160405280600d81526020017f466f7265782054726164696e670000000000000000000000000000000000000081525081526020016040518060400160405280600f81526020017f4f7074696f6e732054726164696e67000000000000000000000000000000000081525081526020016040518060400160405280600b81526020017f5265616c2045737461746500000000000000000000000000000000000000000081525081526020016040518060400160405280601681526020017f456c656374726963616c20456e67696e656572696e670000000000000000000081525081526020016040518060400160405280601681526020017f4d656368616e6963616c20456e67696e656572696e670000000000000000000081525081526020016040518060400160405280601481526020017f4368656d6963616c20456e67696e656572696e6700000000000000000000000081525081526020016040518060400160405280601681526020017f42696f6d65646963616c20456e67696e656572696e670000000000000000000081525081526020016040518060400160405280601581526020017f456e7669726f6e6d656e74616c20536369656e6365000000000000000000000081525081526020016040518060400160405280600b81526020017f4d6574656f726f6c6f677900000000000000000000000000000000000000000081525081526020016040518060400160405280600981526020017f417374726f6e6f6d79000000000000000000000000000000000000000000000081525081526020016040518060400160405280600981526020017f5363756c7074696e67000000000000000000000000000000000000000000000081525081526020016040518060400160405280600781526020017f44726177696e670000000000000000000000000000000000000000000000000081525081526020016040518060400160405280600b81526020017f43616c6c6967726170687900000000000000000000000000000000000000000081525081526020016040518060400160405280600c81526020017f46696c6d2045646974696e67000000000000000000000000000000000000000081525081526020016040518060400160405280600a81526020017f506f6463617374696e670000000000000000000000000000000000000000000081525081526020016040518060400160405280600b81526020017f47616d652044657369676e00000000000000000000000000000000000000000081525081526020016040518060400160405280600f81526020017f4865616c746820436f616368696e67000000000000000000000000000000000081525081526020016040518060400160405280600d81526020017f4c69666520436f616368696e670000000000000000000000000000000000000081525081526020016040518060400160405280601281526020017f46696e616e6369616c20506c616e6e696e67000000000000000000000000000081525081526020016040518060400160405280600a81526020017f452d636f6d6d657263650000000000000000000000000000000000000000000081525081526020016040518060400160405280601781526020017f43727970746f63757272656e637920416e616c7973697300000000000000000081525081526020016040518060400160405280601181526020017f5175616e74756d20436f6d707574696e6700000000000000000000000000000081525081526020016040518060400160405280600e81526020017f414920446576656c6f706d656e7400000000000000000000000000000000000081525081526020016040518060400160405280601081526020017f4d616368696e65204c6561726e696e670000000000000000000000000000000081525081526020016040518060400160405280601581526020017f5175616e746974617469766520416e616c79736973000000000000000000000081525081526020016040518060400160405280600f81526020017f5269736b204d616e6167656d656e74000000000000000000000000000000000081525081526020016040518060400160405280601581526020017f426c6f636b636861696e20436f6e73756c74696e670000000000000000000000815250815250600490604462000fcc929190620010a4565b5034801562000fd9575f80fd5b5060405162002bbd38038062002bbd833981810160405281019062000fff9190620011ee565b805f806101000a81548173ffffffffffffffffffffffffffffffffffffffff021916908373ffffffffffffffffffffffffffffffffffffffff1602179055505f8054906101000a900473ffffffffffffffffffffffffffffffffffffffff1660015f6101000a81548173ffffffffffffffffffffffffffffffffffffffff021916908373ffffffffffffffffffffffffffffffffffffffff1602179055505062001566565b828054828255905f5260205f20908101928215620010ef579160200282015b82811115620010ee578251829081620010dd919062001482565b5091602001919060010190620010c3565b5b509050620010fe919062001102565b5090565b5b8082111562001125575f81816200111b919062001129565b5060010162001103565b5090565b508054620011379062001282565b5f825580601f106200114a575062001169565b601f0160209004905f5260205f20908101906200116891906200116c565b5b50565b5b8082111562001185575f815f9055506001016200116d565b5090565b5f80fd5b5f73ffffffffffffffffffffffffffffffffffffffff82169050919050565b5f620011b8826200118d565b9050919050565b620011ca81620011ac565b8114620011d5575f80fd5b50565b5f81519050620011e881620011bf565b92915050565b5f6020828403121562001206576200120562001189565b5b5f6200121584828501620011d8565b91505092915050565b5f81519050919050565b7f4e487b71000000000000000000000000000000000000000000000000000000005f52604160045260245ffd5b7f4e487b71000000000000000000000000000000000000000000000000000000005f52602260045260245ffd5b5f60028204905060018216806200129a57607f821691505b602082108103620012b057620012af62001255565b5b50919050565b5f819050815f5260205f209050919050565b5f6020601f8301049050919050565b5f82821b905092915050565b5f60088302620013147fffffffffffffffffffffffffffffffffffffffffffffffffffffffffffffffff82620012d7565b620013208683620012d7565b95508019841693508086168417925050509392505050565b5f819050919050565b5f819050919050565b5f6200136a620013646200135e8462001338565b62001341565b62001338565b9050919050565b5f819050919050565b62001385836200134a565b6200139d620013948262001371565b848454620012e3565b825550505050565b5f90565b620013b3620013a5565b620013c08184846200137a565b505050565b5b81811015620013e757620013db5f82620013a9565b600181019050620013c6565b5050565b601f82111562001436576200140081620012b6565b6200140b84620012c8565b810160208510156200141b578190505b620014336200142a85620012c8565b830182620013c5565b50505b505050565b5f82821c905092915050565b5f620014585f19846008026200143b565b1980831691505092915050565b5f62001472838362001447565b9150826002028217905092915050565b6200148d826200121e565b67ffffffffffffffff811115620014a957620014a862001228565b5b620014b5825462001282565b620014c2828285620013eb565b5f60209050601f831160018114620014f8575f8415620014e3578287015190505b620014ef858262001465565b8655506200155e565b601f1984166200150886620012b6565b5f5b8281101562001531578489015182556001820191506020850194506020810190506200150a565b868310156200155157848901516200154d601f89168262001447565b8355505b6001600288020188555050505b505050505050565b61164980620015745f395ff3fe608060405234801561000f575f80fd5b5060043610610091575f3560e01c80639d63848a116100645780639d63848a146101355780639f4216e814610153578063a18de23014610183578063a87430ba1461019f578063f43bd4b8146101d157610091565b80634bb86af01461009557806355a373d6146100b35780636f77926b146100d157806380e1225e14610105575b5f80fd5b61009d6101ef565b6040516100aa9190610b9a565b60405180910390f35b6100bb6101f5565b6040516100c89190610bf2565b60405180910390f35b6100eb60048036038101906100e69190610c46565b610218565b6040516100fc959493929190610dfe565b60405180910390f35b61011f600480360381019061011a9190610e95565b61058c565b60405161012c9190610ec0565b60405180910390f35b61013d610632565b60405161014a9190610f3b565b60405180910390f35b61016d60048036038101906101689190610e95565b610657565b60405161017a9190610bf2565b60405180910390f35b61019d60048036038101906101989190611162565b610692565b005b6101b960048036038101906101b49190610c46565b610824565b6040516101c893929190611236565b60405180910390f35b6101d96109dc565b6040516101e69190611280565b60405180910390f35b60025481565b5f8054906101000a900473ffffffffffffffffffffffffffffffffffffffff1681565b6060806060805f8060055f8873ffffffffffffffffffffffffffffffffffffffff1673ffffffffffffffffffffffffffffffffffffffff1681526020019081526020015f2090505f60015f9054906101000a900473ffffffffffffffffffffffffffffffffffffffff1673ffffffffffffffffffffffffffffffffffffffff166370a08231896040518263ffffffff1660e01b81526004016102ba9190610bf2565b602060405180830381865afa1580156102d5573d5f803e3d5ffd5b505050506040513d601f19601f820116820180604052508101906102f991906112b4565b9050815f01826001018360020184600301848480546103179061130c565b80601f01602080910402602001604051908101604052809291908181526020018280546103439061130c565b801561038e5780601f106103655761010080835404028352916020019161038e565b820191905f5260205f20905b81548152906001019060200180831161037157829003601f168201915b505050505094508380546103a19061130c565b80601f01602080910402602001604051908101604052809291908181526020018280546103cd9061130c565b80156104185780601f106103ef57610100808354040283529160200191610418565b820191905f5260205f20905b8154815290600101906020018083116103fb57829003601f168201915b5050505050935082805461042b9061130c565b80601f01602080910402602001604051908101604052809291908181526020018280546104579061130c565b80156104a25780601f10610479576101008083540402835291602001916104a2565b820191905f5260205f20905b81548152906001019060200180831161048557829003601f168201915b5050505050925081805480602002602001604051908101604052809291908181526020015f905b82821015610571578382905f5260205f200180546104e69061130c565b80601f01602080910402602001604051908101604052809291908181526020018280546105129061130c565b801561055d5780601f106105345761010080835404028352916020019161055d565b820191905f5260205f20905b81548152906001019060200180831161054057829003601f168201915b5050505050815260200190600101906104c9565b50505050915096509650965096509650505091939590929450565b6004818154811061059b575f80fd5b905f5260205f20015f9150905080546105b39061130c565b80601f01602080910402602001604051908101604052809291908181526020018280546105df9061130c565b801561062a5780601f106106015761010080835404028352916020019161062a565b820191905f5260205f20905b81548152906001019060200180831161060d57829003601f168201915b505050505081565b60015f9054906101000a900473ffffffffffffffffffffffffffffffffffffffff1681565b60038181548110610666575f80fd5b905f5260205f20015f915054906101000a900473ffffffffffffffffffffffffffffffffffffffff1681565b5f60055f3373ffffffffffffffffffffffffffffffffffffffff1673ffffffffffffffffffffffffffffffffffffffff1681526020019081526020015f20905084815f0190816106e291906114d0565b50838160010190816106f491906114d0565b508281600201908161070691906114d0565b508181600301908051906020019061071f929190610ab0565b5060015f9054906101000a900473ffffffffffffffffffffffffffffffffffffffff1673ffffffffffffffffffffffffffffffffffffffff1662be4984336040518263ffffffff1660e01b81526004016107799190610bf2565b5f604051808303815f87803b158015610790575f80fd5b505af11580156107a2573d5f803e3d5ffd5b5050505060025f8154809291906107b8906115cc565b9190505550600333908060018154018082558091505060019003905f5260205f20015f9091909190916101000a81548173ffffffffffffffffffffffffffffffffffffffff021916908373ffffffffffffffffffffffffffffffffffffffff1602179055505050505050565b6005602052805f5260405f205f91509050805f0180546108439061130c565b80601f016020809104026020016040519081016040528092919081815260200182805461086f9061130c565b80156108ba5780601f10610891576101008083540402835291602001916108ba565b820191905f5260205f20905b81548152906001019060200180831161089d57829003601f168201915b5050505050908060010180546108cf9061130c565b80601f01602080910402602001604051908101604052809291908181526020018280546108fb9061130c565b80156109465780601f1061091d57610100808354040283529160200191610946565b820191905f5260205f20905b81548152906001019060200180831161092957829003601f168201915b50505050509080600201805461095b9061130c565b80601f01602080910402602001604051908101604052809291908181526020018280546109879061130c565b80156109d25780601f106109a9576101008083540402835291602001916109d2565b820191905f5260205f20905b8154815290600101906020018083116109b557829003601f168201915b5050505050905083565b60606004805480602002602001604051908101604052809291908181526020015f905b82821015610aa7578382905f5260205f20018054610a1c9061130c565b80601f0160208091040260200160405190810160405280929190818152602001828054610a489061130c565b8015610a935780601f10610a6a57610100808354040283529160200191610a93565b820191905f5260205f20905b815481529060010190602001808311610a7657829003601f168201915b5050505050815260200190600101906109ff565b50505050905090565b828054828255905f5260205f20908101928215610af6579160200282015b82811115610af5578251829081610ae591906114d0565b5091602001919060010190610ace565b5b509050610b039190610b07565b5090565b5b80821115610b26575f8181610b1d9190610b2a565b50600101610b08565b5090565b508054610b369061130c565b5f825580601f10610b475750610b64565b601f0160209004905f5260205f2090810190610b639190610b67565b5b50565b5b80821115610b7e575f815f905550600101610b68565b5090565b5f819050919050565b610b9481610b82565b82525050565b5f602082019050610bad5f830184610b8b565b92915050565b5f73ffffffffffffffffffffffffffffffffffffffff82169050919050565b5f610bdc82610bb3565b9050919050565b610bec81610bd2565b82525050565b5f602082019050610c055f830184610be3565b92915050565b5f604051905090565b5f80fd5b5f80fd5b610c2581610bd2565b8114610c2f575f80fd5b50565b5f81359050610c4081610c1c565b92915050565b5f60208284031215610c5b57610c5a610c14565b5b5f610c6884828501610c32565b91505092915050565b5f81519050919050565b5f82825260208201905092915050565b5f5b83811015610ca8578082015181840152602081019050610c8d565b5f8484015250505050565b5f601f19601f8301169050919050565b5f610ccd82610c71565b610cd78185610c7b565b9350610ce7818560208601610c8b565b610cf081610cb3565b840191505092915050565b5f81519050919050565b5f82825260208201905092915050565b5f819050602082019050919050565b5f82825260208201905092915050565b5f610d3e82610c71565b610d488185610d24565b9350610d58818560208601610c8b565b610d6181610cb3565b840191505092915050565b5f610d778383610d34565b905092915050565b5f602082019050919050565b5f610d9582610cfb565b610d9f8185610d05565b935083602082028501610db185610d15565b805f5b85811015610dec5784840389528151610dcd8582610d6c565b9450610dd883610d7f565b925060208a01995050600181019050610db4565b50829750879550505050505092915050565b5f60a0820190508181035f830152610e168188610cc3565b90508181036020830152610e2a8187610cc3565b90508181036040830152610e3e8186610cc3565b90508181036060830152610e528185610d8b565b9050610e616080830184610b8b565b9695505050505050565b610e7481610b82565b8114610e7e575f80fd5b50565b5f81359050610e8f81610e6b565b92915050565b5f60208284031215610eaa57610ea9610c14565b5b5f610eb784828501610e81565b91505092915050565b5f6020820190508181035f830152610ed88184610cc3565b905092915050565b5f819050919050565b5f610f03610efe610ef984610bb3565b610ee0565b610bb3565b9050919050565b5f610f1482610ee9565b9050919050565b5f610f2582610f0a565b9050919050565b610f3581610f1b565b82525050565b5f602082019050610f4e5f830184610f2c565b92915050565b5f80fd5b5f80fd5b7f4e487b71000000000000000000000000000000000000000000000000000000005f52604160045260245ffd5b610f9282610cb3565b810181811067ffffffffffffffff82111715610fb157610fb0610f5c565b5b80604052505050565b5f610fc3610c0b565b9050610fcf8282610f89565b919050565b5f67ffffffffffffffff821115610fee57610fed610f5c565b5b610ff782610cb3565b9050602081019050919050565b828183375f83830152505050565b5f61102461101f84610fd4565b610fba565b9050828152602081018484840111156110405761103f610f58565b5b61104b848285611004565b509392505050565b5f82601f83011261106757611066610f54565b5b8135611077848260208601611012565b91505092915050565b5f67ffffffffffffffff82111561109a57611099610f5c565b5b602082029050602081019050919050565b5f80fd5b5f6110c16110bc84611080565b610fba565b905080838252602082019050602084028301858111156110e4576110e36110ab565b5b835b8181101561112b57803567ffffffffffffffff81111561110957611108610f54565b5b8086016111168982611053565b855260208501945050506020810190506110e6565b5050509392505050565b5f82601f83011261114957611148610f54565b5b81356111598482602086016110af565b91505092915050565b5f805f806080858703121561117a57611179610c14565b5b5f85013567ffffffffffffffff81111561119757611196610c18565b5b6111a387828801611053565b945050602085013567ffffffffffffffff8111156111c4576111c3610c18565b5b6111d087828801611053565b935050604085013567ffffffffffffffff8111156111f1576111f0610c18565b5b6111fd87828801611053565b925050606085013567ffffffffffffffff81111561121e5761121d610c18565b5b61122a87828801611135565b91505092959194509250565b5f6060820190508181035f83015261124e8186610cc3565b905081810360208301526112628185610cc3565b905081810360408301526112768184610cc3565b9050949350505050565b5f6020820190508181035f8301526112988184610d8b565b905092915050565b5f815190506112ae81610e6b565b92915050565b5f602082840312156112c9576112c8610c14565b5b5f6112d6848285016112a0565b91505092915050565b7f4e487b71000000000000000000000000000000000000000000000000000000005f52602260045260245ffd5b5f600282049050600182168061132357607f821691505b602082108103611336576113356112df565b5b50919050565b5f819050815f5260205f209050919050565b5f6020601f8301049050919050565b5f82821b905092915050565b5f600883026113987fffffffffffffffffffffffffffffffffffffffffffffffffffffffffffffffff8261135d565b6113a2868361135d565b95508019841693508086168417925050509392505050565b5f6113d46113cf6113ca84610b82565b610ee0565b610b82565b9050919050565b5f819050919050565b6113ed836113ba565b6114016113f9826113db565b848454611369565b825550505050565b5f90565b611415611409565b6114208184846113e4565b505050565b5b81811015611443576114385f8261140d565b600181019050611426565b5050565b601f821115611488576114598161133c565b6114628461134e565b81016020851015611471578190505b61148561147d8561134e565b830182611425565b50505b505050565b5f82821c905092915050565b5f6114a85f198460080261148d565b1980831691505092915050565b5f6114c08383611499565b9150826002028217905092915050565b6114d982610c71565b67ffffffffffffffff8111156114f2576114f1610f5c565b5b6114fc825461130c565b611507828285611447565b5f60209050601f831160018114611538575f8415611526578287015190505b61153085826114b5565b865550611597565b601f1984166115468661133c565b5f5b8281101561156d57848901518255600182019150602085019450602081019050611548565b8683101561158a5784890151611586601f891682611499565b8355505b6001600288020188555050505b505050505050565b7f4e487b71000000000000000000000000000000000000000000000000000000005f52601160045260245ffd5b5f6115d682610b82565b91507fffffffffffffffffffffffffffffffffffffffffffffffffffffffffffffffff82036116085761160761159f565b5b60018201905091905056fea264697066735822122039b7e8d110284ad5de6df1df2a1b3a38ae77747cd9ba0bb03d281ebf7e3643c264736f6c63430008150033",
  "immutableReferences": {},
  "source": "// SPDX-License-Identifier: MIT\npragma solidity ^0.8.0;\nimport \"./Token.sol\";\n\ncontract Identity {\n    struct UserInfo {\n        string name;\n        string email;\n        string bio;\n        string[] talents;\n    }\n\n    address public tokenContract;\n    Token public tokens;\n\n    uint256 public totalUserCount;\n    address[] public userList;\n\n    string[] public allowedTalents = [\n        \"Graphic Design\",\n        \"Software Development\",\n        \"Web Development\",\n        \"Data Science\",\n        \"Music Composition\",\n        \"Marketing\",\n        \"Content Writing\",\n        \"Video Production\",\n        \"Photography\",\n        \"Sales\",\n        \"Project Management\",\n        \"Dance\",\n        \"Yoga\",\n        \"Teaching\",\n        \"Woodworking\",\n        \"Nutrition\",\n        \"Personal Training\",\n        \"Acting\",\n        \"Fashion Design\",\n        \"Cybersecurity\",\n        \"Animation\",\n        \"Illustration\",\n        \"UI/UX Design\",\n        \"Blockchain Development\",\n        \"Game Development\",\n        \"Copywriting\",\n        \"SEO\",\n        \"Social Media Management\",\n        \"Event Planning\",\n        \"Accounting\",\n        \"Legal Services\",\n        \"Interior Design\",\n        \"Architecture\",\n        \"Gardening\",\n        \"Culinary Arts\",\n        \"Makeup Artistry\",\n        \"Mobile App Development\",\n        \"Robotics\",\n        \"Virtual Reality\",\n        \"Augmented Reality\",\n        \"Cryptocurrency Trading\",\n        \"Forex Trading\",\n        \"Options Trading\",\n        \"Real Estate\",\n        \"Electrical Engineering\",\n        \"Mechanical Engineering\",\n        \"Chemical Engineering\",\n        \"Biomedical Engineering\",\n        \"Environmental Science\",\n        \"Meteorology\",\n        \"Astronomy\",\n        \"Sculpting\",\n        \"Drawing\",\n        \"Calligraphy\",\n        \"Film Editing\",\n        \"Podcasting\",\n        \"Game Design\",\n        \"Health Coaching\",\n        \"Life Coaching\",\n        \"Financial Planning\",\n        \"E-commerce\",\n        \"Cryptocurrency Analysis\",\n        \"Quantum Computing\",\n        \"AI Development\",\n        \"Machine Learning\",\n        \"Quantitative Analysis\",\n        \"Risk Management\",\n        \"Blockchain Consulting\"\n    ];\n\n    constructor(address _tokenContract) {\n        tokenContract = _tokenContract;\n        tokens = Token(tokenContract);\n    }\n\n    mapping(address => UserInfo) public users;\n\n    function setUser(\n        string memory _name,\n        string memory _email,\n        string memory _bio,\n        string[] memory _talents\n    ) public {\n        UserInfo storage user = users[msg.sender];\n        user.name = _name;\n        user.email = _email;\n        user.bio = _bio;\n        user.talents = _talents;\n        tokens.initializeUser(msg.sender);\n        totalUserCount++;\n        userList.push(msg.sender);\n    }\n\n    function getAllowedTalents() public view returns (string[] memory) {\n        return allowedTalents;\n    }\n\n    function getUser(\n        address _user\n    )\n        public\n        view\n        returns (\n            string memory,\n            string memory,\n            string memory,\n            string[] memory,\n            uint256\n        )\n    {\n        UserInfo storage user = users[_user];\n        uint256 userTokens = tokens.balanceOf(_user);\n        return (user.name, user.email, user.bio, user.talents, userTokens);\n    }\n}",
  "sourcePath": "/home/am/TRINIT_REDACTED_WEB3/truffle/contracts/Identity.sol",
  "compiler": {
    "name": "solc",
    "version": "0.8.21+commit.d9974bed.Emscripten.clang"
  },
  "schemaVersion": "3.4.16",
  "updatedAt": "2025-11-06T05:24:02.008Z",
  "networkType": "ethereum",
  "devdoc": {
    "kind": "dev",
    "methods": {},
    "version": 1
  },
  "userdoc": {
    "kind": "user",
    "methods": {},
    "version": 1
  }
}