{
  "contractName": "Identity",
  "abi": [
    {
      "inputs": [
        {
          "internalType": "address",
          "name": "_tokenContract",
          "type": "address"
        }
      ],
      "stateMutability": "nonpayable",
      "type": "constructor"
    },
    {
      "inputs": [],
      "name": "tokenContract",
      "outputs": [
        {
          "internalType": "address",
          "name": "",
          "type": "address"
        }
      ],
      "stateMutability": "view",
      "type": "function",
      "constant": true
    },
    {
      "inputs": [],
      "name": "tokens",
      "outputs": [
        {
          "internalType": "contract Token",
          "name": "",
          "type": "address"
        }
      ],
      "stateMutability": "view",
      "type": "function",
      "constant": true
    },
    {
      "inputs": [
        {
          "internalType": "address",
          "name": "",
          "type": "address"
        }
      ],
      "name": "users",
      "outputs": [
        {
          "internalType": "string",
          "name": "name",
          "type": "string"
        },
        {
          "internalType": "string",
          "name": "email",
          "type": "string"
        }
      ],
      "stateMutability": "view",
      "type": "function",
      "constant": true
    },
    {
      "inputs": [
        {
          "internalType": "string",
          "name": "_name",
          "type": "string"
        },
        {
          "internalType": "string",
          "name": "_email",
          "type": "string"
        }
      ],
      "name": "setUser",
      "outputs": [],
      "stateMutability": "nonpayable",
      "type": "function"
    },
    {
      "inputs": [
        {
          "internalType": "address",
          "name": "_user",
          "type": "address"
        }
      ],
      "name": "getUser",
      "outputs": [
        {
          "internalType": "string",
          "name": "",
          "type": "string"
        },
        {
          "internalType": "string",
          "name": "",
          "type": "string"
        },
        {
          "internalType": "uint256",
          "name": "",
          "type": "uint256"
        }
      ],
      "stateMutability": "view",
      "type": "function",
      "constant": true
    }
  ],
  "bytecode": "0x608060405234801561000f575f80fd5b50604051610e25380380610e2583398181016040528101906100319190610133565b805f806101000a81548173ffffffffffffffffffffffffffffffffffffffff021916908373ffffffffffffffffffffffffffffffffffffffff1602179055505f8054906101000a900473ffffffffffffffffffffffffffffffffffffffff1660015f6101000a81548173ffffffffffffffffffffffffffffffffffffffff021916908373ffffffffffffffffffffffffffffffffffffffff1602179055505061015e565b5f80fd5b5f73ffffffffffffffffffffffffffffffffffffffff82169050919050565b5f610102826100d9565b9050919050565b610112816100f8565b811461011c575f80fd5b50565b5f8151905061012d81610109565b92915050565b5f60208284031215610148576101476100d5565b5b5f6101558482850161011f565b91505092915050565b610cba8061016b5f395ff3fe608060405234801561000f575f80fd5b5060043610610055575f3560e01c806355a373d6146100595780635728b973146100775780636f77926b146100935780639d63848a146100c5578063a87430ba146100e3575b5f80fd5b610061610114565b60405161006e91906105c0565b60405180910390f35b610091600480360381019061008c9190610726565b610137565b005b6100ad60048036038101906100a891906107c6565b610225565b6040516100bc93929190610883565b60405180910390f35b6100cd610430565b6040516100da9190610921565b60405180910390f35b6100fd60048036038101906100f891906107c6565b610455565b60405161010b92919061093a565b60405180910390f35b5f8054906101000a900473ffffffffffffffffffffffffffffffffffffffff1681565b5f60025f3373ffffffffffffffffffffffffffffffffffffffff1673ffffffffffffffffffffffffffffffffffffffff1681526020019081526020015f20905082815f0190816101879190610b60565b50818160010190816101999190610b60565b5060015f9054906101000a900473ffffffffffffffffffffffffffffffffffffffff1673ffffffffffffffffffffffffffffffffffffffff1662be4984336040518263ffffffff1660e01b81526004016101f391906105c0565b5f604051808303815f87803b15801561020a575f80fd5b505af115801561021c573d5f803e3d5ffd5b50505050505050565b6060805f8060025f8673ffffffffffffffffffffffffffffffffffffffff1673ffffffffffffffffffffffffffffffffffffffff1681526020019081526020015f2090505f60015f9054906101000a900473ffffffffffffffffffffffffffffffffffffffff1673ffffffffffffffffffffffffffffffffffffffff166370a08231876040518263ffffffff1660e01b81526004016102c491906105c0565b602060405180830381865afa1580156102df573d5f803e3d5ffd5b505050506040513d601f19601f820116820180604052508101906103039190610c59565b9050815f0182600101828280546103199061099c565b80601f01602080910402602001604051908101604052809291908181526020018280546103459061099c565b80156103905780601f1061036757610100808354040283529160200191610390565b820191905f5260205f20905b81548152906001019060200180831161037357829003601f168201915b505050505092508180546103a39061099c565b80601f01602080910402602001604051908101604052809291908181526020018280546103cf9061099c565b801561041a5780601f106103f15761010080835404028352916020019161041a565b820191905f5260205f20905b8154815290600101906020018083116103fd57829003601f168201915b5050505050915094509450945050509193909250565b60015f9054906101000a900473ffffffffffffffffffffffffffffffffffffffff1681565b6002602052805f5260405f205f91509050805f0180546104749061099c565b80601f01602080910402602001604051908101604052809291908181526020018280546104a09061099c565b80156104eb5780601f106104c2576101008083540402835291602001916104eb565b820191905f5260205f20905b8154815290600101906020018083116104ce57829003601f168201915b5050505050908060010180546105009061099c565b80601f016020809104026020016040519081016040528092919081815260200182805461052c9061099c565b80156105775780601f1061054e57610100808354040283529160200191610577565b820191905f5260205f20905b81548152906001019060200180831161055a57829003601f168201915b5050505050905082565b5f73ffffffffffffffffffffffffffffffffffffffff82169050919050565b5f6105aa82610581565b9050919050565b6105ba816105a0565b82525050565b5f6020820190506105d35f8301846105b1565b92915050565b5f604051905090565b5f80fd5b5f80fd5b5f80fd5b5f80fd5b5f601f19601f8301169050919050565b7f4e487b71000000000000000000000000000000000000000000000000000000005f52604160045260245ffd5b610638826105f2565b810181811067ffffffffffffffff8211171561065757610656610602565b5b80604052505050565b5f6106696105d9565b9050610675828261062f565b919050565b5f67ffffffffffffffff82111561069457610693610602565b5b61069d826105f2565b9050602081019050919050565b828183375f83830152505050565b5f6106ca6106c58461067a565b610660565b9050828152602081018484840111156106e6576106e56105ee565b5b6106f18482856106aa565b509392505050565b5f82601f83011261070d5761070c6105ea565b5b813561071d8482602086016106b8565b91505092915050565b5f806040838503121561073c5761073b6105e2565b5b5f83013567ffffffffffffffff811115610759576107586105e6565b5b610765858286016106f9565b925050602083013567ffffffffffffffff811115610786576107856105e6565b5b610792858286016106f9565b9150509250929050565b6107a5816105a0565b81146107af575f80fd5b50565b5f813590506107c08161079c565b92915050565b5f602082840312156107db576107da6105e2565b5b5f6107e8848285016107b2565b91505092915050565b5f81519050919050565b5f82825260208201905092915050565b5f5b8381101561082857808201518184015260208101905061080d565b5f8484015250505050565b5f61083d826107f1565b61084781856107fb565b935061085781856020860161080b565b610860816105f2565b840191505092915050565b5f819050919050565b61087d8161086b565b82525050565b5f6060820190508181035f83015261089b8186610833565b905081810360208301526108af8185610833565b90506108be6040830184610874565b949350505050565b5f819050919050565b5f6108e96108e46108df84610581565b6108c6565b610581565b9050919050565b5f6108fa826108cf565b9050919050565b5f61090b826108f0565b9050919050565b61091b81610901565b82525050565b5f6020820190506109345f830184610912565b92915050565b5f6040820190508181035f8301526109528185610833565b905081810360208301526109668184610833565b90509392505050565b7f4e487b71000000000000000000000000000000000000000000000000000000005f52602260045260245ffd5b5f60028204905060018216806109b357607f821691505b6020821081036109c6576109c561096f565b5b50919050565b5f819050815f5260205f209050919050565b5f6020601f8301049050919050565b5f82821b905092915050565b5f60088302610a287fffffffffffffffffffffffffffffffffffffffffffffffffffffffffffffffff826109ed565b610a3286836109ed565b95508019841693508086168417925050509392505050565b5f610a64610a5f610a5a8461086b565b6108c6565b61086b565b9050919050565b5f819050919050565b610a7d83610a4a565b610a91610a8982610a6b565b8484546109f9565b825550505050565b5f90565b610aa5610a99565b610ab0818484610a74565b505050565b5b81811015610ad357610ac85f82610a9d565b600181019050610ab6565b5050565b601f821115610b1857610ae9816109cc565b610af2846109de565b81016020851015610b01578190505b610b15610b0d856109de565b830182610ab5565b50505b505050565b5f82821c905092915050565b5f610b385f1984600802610b1d565b1980831691505092915050565b5f610b508383610b29565b9150826002028217905092915050565b610b69826107f1565b67ffffffffffffffff811115610b8257610b81610602565b5b610b8c825461099c565b610b97828285610ad7565b5f60209050601f831160018114610bc8575f8415610bb6578287015190505b610bc08582610b45565b865550610c27565b601f198416610bd6866109cc565b5f5b82811015610bfd57848901518255600182019150602085019450602081019050610bd8565b86831015610c1a5784890151610c16601f891682610b29565b8355505b6001600288020188555050505b505050505050565b610c388161086b565b8114610c42575f80fd5b50565b5f81519050610c5381610c2f565b92915050565b5f60208284031215610c6e57610c6d6105e2565b5b5f610c7b84828501610c45565b9150509291505056fea26469706673582212206d3d488170c1cba5ff2137e545ade18c26dee922956f2a3eda52e46d3807260064736f6c63430008150033",
  "immutableReferences": {},
  "source": "// SPDX-License-Identifier: MIT\npragma solidity ^0.8.0;\nimport \"./Token.sol\";\n\ncontract Identity {\n    struct UserInfo {\n        string name;\n        string email;\n    }\n\n    address public tokenContract;\n    Token public tokens;\n\n    constructor(address _tokenContract) {\n        tokenContract = _tokenContract;\n        tokens = Token(tokenContract);\n    }\n\n    mapping(address => UserInfo) public users;\n\n    function setUser(string memory _name, string memory _email) public {\n        UserInfo storage user = users[msg.sender];\n        user.name = _name;\n        user.email = _email;\n        tokens.initializeUser(msg.sender);\n    }\n\n    function getUser(\n        address _user\n    ) public view returns (string memory, string memory, uint256) {\n        UserInfo storage user = users[_user];\n        uint256 userTokens = tokens.balanceOf(_user);\n        return (user.name, user.email, userTokens);\n    }\n}\n",
  "sourcePath": "/home/aaditkrishnaa/Documents/trinit/TRINIT_REDACTED_WEB3/truffle/contracts/Identity.sol",
  "compiler": {
    "name": "solc",
    "version": "0.8.21+commit.d9974bed.Emscripten.clang"
  },
  "schemaVersion": "3.4.16",
  "updatedAt": "2024-03-09T20:43:18.647Z",
  "networkType": "ethereum",
  "devdoc": {
    "kind": "dev",
    "methods": {},
    "version": 1
  },
  "userdoc": {
    "kind": "user",
    "methods": {},
    "version": 1
  }
}