{
  "contractName": "Token",
  "abi": [
    {
      "inputs": [],
      "stateMutability": "nonpayable",
      "type": "constructor"
    },
    {
      "anonymous": false,
      "inputs": [
        {
          "indexed": true,
          "internalType": "address",
          "name": "from",
          "type": "address"
        },
        {
          "indexed": false,
          "internalType": "uint256",
          "name": "value",
          "type": "uint256"
        }
      ],
      "name": "Burn",
      "type": "event"
    },
    {
      "anonymous": false,
      "inputs": [
        {
          "indexed": true,
          "internalType": "address",
          "name": "from",
          "type": "address"
        },
        {
          "indexed": true,
          "internalType": "address",
          "name": "to",
          "type": "address"
        },
        {
          "indexed": false,
          "internalType": "uint256",
          "name": "value",
          "type": "uint256"
        }
      ],
      "name": "Transfer",
      "type": "event"
    },
    {
      "inputs": [
        {
          "internalType": "address",
          "name": "",
          "type": "address"
        }
      ],
      "name": "allowed",
      "outputs": [
        {
          "internalType": "bool",
          "name": "",
          "type": "bool"
        }
      ],
      "stateMutability": "view",
      "type": "function",
      "constant": true
    },
    {
      "inputs": [
        {
          "internalType": "address",
          "name": "",
          "type": "address"
        }
      ],
      "name": "initialized",
      "outputs": [
        {
          "internalType": "bool",
          "name": "",
          "type": "bool"
        }
      ],
      "stateMutability": "view",
      "type": "function",
      "constant": true
    },
    {
      "inputs": [],
      "name": "totalTokens",
      "outputs": [
        {
          "internalType": "uint256",
          "name": "",
          "type": "uint256"
        }
      ],
      "stateMutability": "view",
      "type": "function",
      "constant": true
    },
    {
      "inputs": [
        {
          "internalType": "address",
          "name": "",
          "type": "address"
        }
      ],
      "name": "userBalance",
      "outputs": [
        {
          "internalType": "uint256",
          "name": "",
          "type": "uint256"
        }
      ],
      "stateMutability": "view",
      "type": "function",
      "constant": true
    },
    {
      "inputs": [
        {
          "internalType": "address",
          "name": "_newAddress",
          "type": "address"
        }
      ],
      "name": "addAllowedAddress",
      "outputs": [],
      "stateMutability": "nonpayable",
      "type": "function"
    },
    {
      "inputs": [
        {
          "internalType": "address",
          "name": "_user",
          "type": "address"
        }
      ],
      "name": "initializeUser",
      "outputs": [],
      "stateMutability": "nonpayable",
      "type": "function"
    },
    {
      "inputs": [
        {
          "internalType": "address",
          "name": "_recipient",
          "type": "address"
        },
        {
          "internalType": "uint256",
          "name": "_amount",
          "type": "uint256"
        }
      ],
      "name": "transfer",
      "outputs": [
        {
          "internalType": "bool",
          "name": "",
          "type": "bool"
        }
      ],
      "stateMutability": "nonpayable",
      "type": "function"
    },
    {
      "inputs": [
        {
          "internalType": "address",
          "name": "_account",
          "type": "address"
        }
      ],
      "name": "balanceOf",
      "outputs": [
        {
          "internalType": "uint256",
          "name": "",
          "type": "uint256"
        }
      ],
      "stateMutability": "view",
      "type": "function",
      "constant": true
    },
    {
      "inputs": [
        {
          "internalType": "address",
          "name": "_to",
          "type": "address"
        },
        {
          "internalType": "uint256",
          "name": "_amount",
          "type": "uint256"
        }
      ],
      "name": "addTokens",
      "outputs": [],
      "stateMutability": "nonpayable",
      "type": "function"
    },
    {
      "inputs": [
        {
          "internalType": "uint256",
          "name": "_amount",
          "type": "uint256"
        }
      ],
      "name": "burnTokens",
      "outputs": [],
      "stateMutability": "nonpayable",
      "type": "function"
    },
    {
      "inputs": [
        {
          "internalType": "address",
          "name": "_user",
          "type": "address"
        }
      ],
      "name": "getStakePercentage",
      "outputs": [
        {
          "internalType": "uint256",
          "name": "",
          "type": "uint256"
        }
      ],
      "stateMutability": "view",
      "type": "function",
      "constant": true
    },
    {
      "inputs": [],
      "name": "destroyUserTokens",
      "outputs": [],
      "stateMutability": "nonpayable",
      "type": "function"
    }
  ],
  "bytecode": "0x608060405234801561000f575f80fd5b50600160035f3373ffffffffffffffffffffffffffffffffffffffff1673ffffffffffffffffffffffffffffffffffffffff1681526020019081526020015f205f6101000a81548160ff0219169083151502179055506112b1806100725f395ff3fe608060405234801561000f575f80fd5b50600436106100b1575f3560e01c80637e1c0c091161006f5780637e1c0c091461017357806381788e2b1461019157806385e48dd2146101ad578063a9059cbb146101dd578063cbca47db1461020d578063d63a8e111461023d576100b1565b8062be4984146100b55780630103c92b146100d15780636039fbdb1461010157806367fd7aa51461011d5780636d1b229d1461012757806370a0823114610143575b5f80fd5b6100cf60048036038101906100ca9190610dea565b61026d565b005b6100eb60048036038101906100e69190610dea565b610434565b6040516100f89190610e2d565b60405180910390f35b61011b60048036038101906101169190610e70565b610448565b005b61012561062d565b005b610141600480360381019061013c9190610eae565b6107a0565b005b61015d60048036038101906101589190610dea565b610963565b60405161016a9190610e2d565b60405180910390f35b61017b6109a8565b6040516101889190610e2d565b60405180910390f35b6101ab60048036038101906101a69190610dea565b6109ae565b005b6101c760048036038101906101c29190610dea565b610a8f565b6040516101d49190610e2d565b60405180910390f35b6101f760048036038101906101f29190610e70565b610b36565b6040516102049190610ef3565b60405180910390f35b61022760048036038101906102229190610dea565b610d52565b6040516102349190610ef3565b60405180910390f35b61025760048036038101906102529190610dea565b610d6f565b6040516102649190610ef3565b60405180910390f35b60035f3373ffffffffffffffffffffffffffffffffffffffff1673ffffffffffffffffffffffffffffffffffffffff1681526020019081526020015f205f9054906101000a900460ff166102f6576040517f08c379a00000000000000000000000000000000000000000000000000000000081526004016102ed90610f8c565b60405180910390fd5b60015f8273ffffffffffffffffffffffffffffffffffffffff1673ffffffffffffffffffffffffffffffffffffffff1681526020019081526020015f205f9054906101000a900460ff1615610380576040517f08c379a000000000000000000000000000000000000000000000000000000000815260040161037790610ff4565b60405180910390fd5b6103e85f808373ffffffffffffffffffffffffffffffffffffffff1673ffffffffffffffffffffffffffffffffffffffff1681526020019081526020015f20819055506001805f8373ffffffffffffffffffffffffffffffffffffffff1673ffffffffffffffffffffffffffffffffffffffff1681526020019081526020015f205f6101000a81548160ff0219169083151502179055506103e860025f82825461042a919061103f565b9250508190555050565b5f602052805f5260405f205f915090505481565b60035f3373ffffffffffffffffffffffffffffffffffffffff1673ffffffffffffffffffffffffffffffffffffffff1681526020019081526020015f205f9054906101000a900460ff166104d1576040517f08c379a00000000000000000000000000000000000000000000000000000000081526004016104c890610f8c565b60405180910390fd5b60015f8373ffffffffffffffffffffffffffffffffffffffff1673ffffffffffffffffffffffffffffffffffffffff1681526020019081526020015f205f9054906101000a900460ff1661055a576040517f08c379a0000000000000000000000000000000000000000000000000000000008152600401610551906110bc565b60405180910390fd5b805f808473ffffffffffffffffffffffffffffffffffffffff1673ffffffffffffffffffffffffffffffffffffffff1681526020019081526020015f205f8282546105a5919061103f565b925050819055508060025f8282546105bd919061103f565b925050819055508173ffffffffffffffffffffffffffffffffffffffff165f73ffffffffffffffffffffffffffffffffffffffff167fddf252ad1be2c89b69c2b068fc378daa952ba7f163c4a11628f55a4df523b3ef836040516106219190610e2d565b60405180910390a35050565b60035f3373ffffffffffffffffffffffffffffffffffffffff1673ffffffffffffffffffffffffffffffffffffffff1681526020019081526020015f205f9054906101000a900460ff166106b6576040517f08c379a00000000000000000000000000000000000000000000000000000000081526004016106ad90610f8c565b60405180910390fd5b5f805f3373ffffffffffffffffffffffffffffffffffffffff1673ffffffffffffffffffffffffffffffffffffffff1681526020019081526020015f205490508060025f82825461070791906110da565b925050819055505f805f3373ffffffffffffffffffffffffffffffffffffffff1673ffffffffffffffffffffffffffffffffffffffff1681526020019081526020015f20819055503373ffffffffffffffffffffffffffffffffffffffff167fcc16f5dbb4873280815c1ee09dbd06736cffcc184412cf7a71a0fdb75d397ca5826040516107959190610e2d565b60405180910390a250565b60035f3373ffffffffffffffffffffffffffffffffffffffff1673ffffffffffffffffffffffffffffffffffffffff1681526020019081526020015f205f9054906101000a900460ff16610829576040517f08c379a000000000000000000000000000000000000000000000000000000000815260040161082090610f8c565b60405180910390fd5b805f803373ffffffffffffffffffffffffffffffffffffffff1673ffffffffffffffffffffffffffffffffffffffff1681526020019081526020015f205410156108a8576040517f08c379a000000000000000000000000000000000000000000000000000000000815260040161089f90611157565b60405180910390fd5b805f803373ffffffffffffffffffffffffffffffffffffffff1673ffffffffffffffffffffffffffffffffffffffff1681526020019081526020015f205f8282546108f391906110da565b925050819055508060025f82825461090b91906110da565b925050819055503373ffffffffffffffffffffffffffffffffffffffff167fcc16f5dbb4873280815c1ee09dbd06736cffcc184412cf7a71a0fdb75d397ca5826040516109589190610e2d565b60405180910390a250565b5f805f8373ffffffffffffffffffffffffffffffffffffffff1673ffffffffffffffffffffffffffffffffffffffff1681526020019081526020015f20549050919050565b60025481565b60035f3373ffffffffffffffffffffffffffffffffffffffff1673ffffffffffffffffffffffffffffffffffffffff1681526020019081526020015f205f9054906101000a900460ff16610a37576040517f08c379a0000000000000000000000000000000000000000000000000000000008152600401610a2e90610f8c565b60405180910390fd5b600160035f8373ffffffffffffffffffffffffffffffffffffffff1673ffffffffffffffffffffffffffffffffffffffff1681526020019081526020015f205f6101000a81548160ff02191690831515021790555050565b5f8060025411610ad4576040517f08c379a0000000000000000000000000000000000000000000000000000000008152600401610acb906111bf565b60405180910390fd5b5f60025460645f808673ffffffffffffffffffffffffffffffffffffffff1673ffffffffffffffffffffffffffffffffffffffff1681526020019081526020015f2054610b2191906111dd565b610b2b919061124b565b905080915050919050565b5f60035f3373ffffffffffffffffffffffffffffffffffffffff1673ffffffffffffffffffffffffffffffffffffffff1681526020019081526020015f205f9054906101000a900460ff16610bc0576040517f08c379a0000000000000000000000000000000000000000000000000000000008152600401610bb790610f8c565b60405180910390fd5b815f803373ffffffffffffffffffffffffffffffffffffffff1673ffffffffffffffffffffffffffffffffffffffff1681526020019081526020015f20541015610c3f576040517f08c379a0000000000000000000000000000000000000000000000000000000008152600401610c3690611157565b60405180910390fd5b815f803373ffffffffffffffffffffffffffffffffffffffff1673ffffffffffffffffffffffffffffffffffffffff1681526020019081526020015f205f828254610c8a91906110da565b92505081905550815f808573ffffffffffffffffffffffffffffffffffffffff1673ffffffffffffffffffffffffffffffffffffffff1681526020019081526020015f205f828254610cdc919061103f565b925050819055508273ffffffffffffffffffffffffffffffffffffffff163373ffffffffffffffffffffffffffffffffffffffff167fddf252ad1be2c89b69c2b068fc378daa952ba7f163c4a11628f55a4df523b3ef84604051610d409190610e2d565b60405180910390a36001905092915050565b6001602052805f5260405f205f915054906101000a900460ff1681565b6003602052805f5260405f205f915054906101000a900460ff1681565b5f80fd5b5f73ffffffffffffffffffffffffffffffffffffffff82169050919050565b5f610db982610d90565b9050919050565b610dc981610daf565b8114610dd3575f80fd5b50565b5f81359050610de481610dc0565b92915050565b5f60208284031215610dff57610dfe610d8c565b5b5f610e0c84828501610dd6565b91505092915050565b5f819050919050565b610e2781610e15565b82525050565b5f602082019050610e405f830184610e1e565b92915050565b610e4f81610e15565b8114610e59575f80fd5b50565b5f81359050610e6a81610e46565b92915050565b5f8060408385031215610e8657610e85610d8c565b5b5f610e9385828601610dd6565b9250506020610ea485828601610e5c565b9150509250929050565b5f60208284031215610ec357610ec2610d8c565b5b5f610ed084828501610e5c565b91505092915050565b5f8115159050919050565b610eed81610ed9565b82525050565b5f602082019050610f065f830184610ee4565b92915050565b5f82825260208201905092915050565b7f4e6f7420616c6c6f77656420746f2063616c6c20746869732066756e6374696f5f8201527f6e00000000000000000000000000000000000000000000000000000000000000602082015250565b5f610f76602183610f0c565b9150610f8182610f1c565b604082019050919050565b5f6020820190508181035f830152610fa381610f6a565b9050919050565b7f5573657220616c726561647920696e697469616c697a656400000000000000005f82015250565b5f610fde601883610f0c565b9150610fe982610faa565b602082019050919050565b5f6020820190508181035f83015261100b81610fd2565b9050919050565b7f4e487b71000000000000000000000000000000000000000000000000000000005f52601160045260245ffd5b5f61104982610e15565b915061105483610e15565b925082820190508082111561106c5761106b611012565b5b92915050565b7f55736572206e6f7420696e697469616c697a65640000000000000000000000005f82015250565b5f6110a6601483610f0c565b91506110b182611072565b602082019050919050565b5f6020820190508181035f8301526110d38161109a565b9050919050565b5f6110e482610e15565b91506110ef83610e15565b925082820390508181111561110757611106611012565b5b92915050565b7f496e73756666696369656e742062616c616e63650000000000000000000000005f82015250565b5f611141601483610f0c565b915061114c8261110d565b602082019050919050565b5f6020820190508181035f83015261116e81611135565b9050919050565b7f546f74616c20746f6b656e7320617265207a65726f00000000000000000000005f82015250565b5f6111a9601583610f0c565b91506111b482611175565b602082019050919050565b5f6020820190508181035f8301526111d68161119d565b9050919050565b5f6111e782610e15565b91506111f283610e15565b925082820261120081610e15565b9150828204841483151761121757611216611012565b5b5092915050565b7f4e487b71000000000000000000000000000000000000000000000000000000005f52601260045260245ffd5b5f61125582610e15565b915061126083610e15565b9250826112705761126f61121e565b5b82820490509291505056fea2646970667358221220f3c9796c1cb897d91231f1329a5690d8ded54599bee329892b3eaa788ccb1c1c64736f6c63430008150033",
  "immutableReferences": {},
  "source": "// SPDX-License-Identifier: MIT\npragma solidity ^0.8.0;\n\ncontract Token {\n    mapping(address => uint256) public userBalance;\n    mapping(address => bool) public initialized;\n    uint256 public totalTokens;\n\n    uint256 private constant INITIAL_AMOUNT = 1000;\n\n    event Transfer(address indexed from, address indexed to, uint256 value);\n    event Burn(address indexed from, uint256 value);\n\n    mapping(address => bool) public allowed;\n    modifier allowedAddresses() {\n        require(allowed[msg.sender], \"Not allowed to call this function\");\n        _;\n    }\n\n    // sets the contract deployer as a allowed address\n    constructor() {\n        allowed[msg.sender] = true;\n    }\n\n    // to set other contract addresses as allowed address\n    function addAllowedAddress(address _newAddress) external allowedAddresses {\n        allowed[_newAddress] = true;\n    }\n\n    function initializeUser(address _user) external allowedAddresses {\n        require(!initialized[_user], \"User already initialized\");\n        userBalance[_user] = INITIAL_AMOUNT;\n        initialized[_user] = true;\n        totalTokens += INITIAL_AMOUNT;\n    }\n\n    function transfer(\n        address _recipient,\n        uint256 _amount\n    ) external allowedAddresses returns (bool) {\n        require(userBalance[msg.sender] >= _amount, \"Insufficient balance\");\n        userBalance[msg.sender] -= _amount;\n        userBalance[_recipient] += _amount;\n        emit Transfer(msg.sender, _recipient, _amount);\n        return true;\n    }\n\n    function balanceOf(address _account) external view returns (uint256) {\n        return userBalance[_account];\n    }\n\n    function addTokens(address _to, uint256 _amount) external allowedAddresses {\n        require(initialized[_to], \"User not initialized\");\n        userBalance[_to] += _amount;\n        totalTokens += _amount;\n        emit Transfer(address(0), _to, _amount);\n    }\n\n    function burnTokens(uint256 _amount) external allowedAddresses {\n        require(userBalance[msg.sender] >= _amount, \"Insufficient balance\");\n        userBalance[msg.sender] -= _amount;\n        totalTokens -= _amount;\n        emit Burn(msg.sender, _amount);\n    }\n\n    function getStakePercentage(address _user) external view returns (uint256) {\n        require(totalTokens > 0, \"Total tokens are zero\");\n        uint256 stakePercentage = (userBalance[_user] * 100) / totalTokens;\n        return stakePercentage;\n    }\n\n    function destroyUserTokens() external allowedAddresses {\n        uint256 amountToDestroy = userBalance[msg.sender];\n        totalTokens -= amountToDestroy;\n        userBalance[msg.sender] = 0;\n        emit Burn(msg.sender, amountToDestroy);\n    }\n}\n",
  "sourcePath": "/home/am/Desktop/TRINIT_REDACTED_WEB3/truffle/contracts/Token.sol",
  "compiler": {
    "name": "solc",
    "version": "0.8.21+commit.d9974bed.Emscripten.clang"
  },
  "schemaVersion": "3.4.16",
  "updatedAt": "2024-03-09T19:18:46.387Z",
  "networkType": "ethereum",
  "devdoc": {
    "kind": "dev",
    "methods": {},
    "version": 1
  },
  "userdoc": {
    "kind": "user",
    "methods": {},
    "version": 1
  }
}